:100000000A128A11F52FFF0000308A007F0882074C
:1000100008280A168A11462BE9006908E7006708D4
:10002000EB00EC016230E7006708EA006108E700D6
:100030006708D9006A30E8006808DA006B300A12F5
:100040008A117E216B0884008313800108008312CB
:10005000C5006E304502031CDD280330BA003A08A3
:10006000A4000A30BB003B08F7006430BC003C0829
:10007000F00045080A128A15B2200A128A110A16DF
:100080008A117B240A128A110A168A1196230A12EF
:100090008A11433E84000A128A1500200A128A112E
:1000A000A7000A128A1500200A128A11A8000A1253
:1000B0008A1500200A128A11A9000330BD003D08EC
:1000C000A4006430BE003E08F70045080A168A11F5
:1000D0007B240A128A110A168A1196230A128A119F
:1000E0005E3E84000A128A1500200A128A11AA00B4
:1000F0000A128A1500200A128A11AB000A128A1508
:1001000000200A128A11AC000A128A15BE220A12B5
:100110008A112708C2002808C3002908C400033038
:10012000BA003A08A4000A30BB003B08F0004508BA
:100130000A128A15B2200A128A110A168A11962307
:100140000A128A11283E84000A128A1500200A1217
:100150008A11A7000A128A1500200A128A11A80023
:100160000A128A1500200A128A11A9004208AA0060
:100170004308AB004408AC000A128A15BE220A12DA
:100180008A112708BF002808C0002908C1000030D4
:10019000A7000030A8003F30A9003F08AA0040088F
:1001A000AB004108AC000A128A15BE222708B7002E
:1001B0002808B8002908B90008000B304502031CC4
:1001C00050290330BA003A08A4000A30BB003B08AB
:1001D000F00045080A128A15B2200A128A110A167E
:1001E0008A1196230A128A11283E84000A128A155F
:1001F00000200A128A11A7000A128A1500200A128A
:100200008A11A8000A128A1500200A128A11A90070
:100210000330BC003C08A4000A30BD003D08F700D4
:1002200045080A168A117B240A128A110A168A11B5
:1002300096230A128A11433E84000A128A1500206E
:100240000A128A11AA000A128A1500200A128A11BB
:10025000AB000A128A1500200A128A11AC000A1299
:100260008A15BE220A128A112708C2002808C30074
:100270002908C4000030A7000030A8003F30A900C2
:100280004208AA004308AB004408AC000A128A15D1
:10029000BE222708B7002808B8002908B9000800BE
:1002A0000030A7000030A8003F30A9000330BA009A
:1002B0003A08A40045080A168A1196230A128A11E0
:1002C000283E84000A128A1500200A128A11AA0008
:1002D0000A128A1500200A128A11AB000A128A1526
:1002E00000200A128A11AC000A128A15BE222708C1
:1002F000B7002808B8002908B90008008316B8001C
:10030000013083120313D907FF30590784000A1202
:100310008A1500200A128A11DB005B088316B700D9
:1003200037080319F12F253037060319C329380A76
:100330008400831300080319AE2937088312DB00F9
:100340005B08F0008316380A840000080A128A113C
:1003500003200A128A118316031380293708831297
:10036000DB008316380884000008840083125B08D1
:1003700080000130DB0083163808840083125B089C
:10038000800783168029A601A701831259088400DB
:100390000A128A1500200A128A112E3A031D182A01
:1003A0008316271701308312DB005B08D9078316F9
:1003B000B501B6018312590884000A128A1500207B
:1003C0000A128A110A168A1179230A128A11031C49
:1003D0009A2A0A30F0000030F10083163608F30044
:1003E0003508F2000A168A115A240A128A11710875
:1003F000B6007008B5008312590884000A128A15E5
:1004000000200A128A11D03EDB00FF3003180030B2
:10041000DC005B088316B5070318B60A83125C0874
:100420008316B60701308312DB005B08D907DA298F
:100430008316B501B60127169A2A2715B12A350861
:1004400036040319392A3608803A8312DB008316F2
:100450002408803A83125B02031D312A8316230885
:1004600035020318392A831603133608A400350809
:10047000A300013083160313A3020030031CA4035E
:10048000A402230A0319240A03198029380A8400C4
:10049000831300080319642A2508840000088312C6
:1004A000DB005B08F0008316380A840000080A129B
:1004B0008A1103200A128A11013083120313DB0010
:1004C0005B088316A507392A2508840000088312D3
:1004D000DB008316380884000008840083125B0860
:1004E00080000130DB005B088316A5070130831212
:1004F000DB0083163808840083125B088007392AE2
:1005000083125A08840083130008DB00023080073E
:100510005B0884000008DC005C088316B700B73075
:100520008312DB005B088316A5000130A3000030B6
:10053000A4001F2A01308312D907FF305907840015
:100540000A128A1500200A128A118316B700003A8F
:100550000319F12F633A0319802A053A03191D2A5A
:100560008F2A003026058312DB000730831627050B
:100570008312DC005B085C040319992F8316271E85
:10058000C52A0630B5000030B60083125A08840030
:1005900083130008DB00033080075B088400000839
:1005A0008316B200840A0008B300840A0008B4006D
:1005B0003208F0003308F1003408F2000030F30094
:1005C0000030F4000030F5000A168A11C7240A1220
:1005D0008A110318002B3208F0003308F1003408A8
:1005E000F2000A168A114C230A128A117008B2000E
:1005F0007108B3007208B4000330A6040030A704E9
:10060000AC01AD013408330432040319CC2BB230F1
:100610008400831300088312DB00840A0008DC00D6
:10062000840A0008DD00840A0008DE000F30031091
:10063000DE0CDD0CDC0CDB0CFF3E031D172BFF304A
:100640005B05DF0000305C05E0005F08823E83163A
:10065000AC00831260080318013EFF3E8316AD0014
:10066000FF30AC070318AD0AFF30AD070330F000D0
:100670000030F1002D08F3002C08F2000A168A1150
:100680005A240A128A117108AD007008AC000A30B1
:10069000F7000030F8002D08FA002C08F9000A16BF
:1006A0008A1106260A128A1178088316AD00770887
:1006B000AC00AD1F612BFF30AC070318AD0AFF3053
:1006C000AD072C03FF3A0A128A1590250A128A11E7
:1006D00037088316AE00831238088316AF008312E2
:1006E00039088316B00032088312A7008316330836
:1006F0008312A800831634088312A90083162E08DB
:100700008312AA0083162F088312AB0083163008C9
:100710008312AC000A128A15BE220A128A11270817
:100720008316AE00831228088316AF0083122908AF
:100730008316B0002E08F0002F08F1003008F200F8
:100740000030F3008030F4003F30F5000A168A11C3
:10075000C7240A128A110318B32BFF30AC07031801
:10076000AD0AFF30CB2B2E08F0002F08F100300827
:10077000F2000030F3002030F4004130F5000A169A
:100780008A11C7240A128A11031CCC2B0130AC0732
:100790000318AD0A0030AD073608803AFF008030FC
:1007A0007F02031DD52B0D3035020318012C831653
:1007B000031335080A128A1127200A128A113708F2
:1007C000C6003808C7003908C800831632088312EB
:1007D000C900831633088312CA00831634088312B3
:1007E000CB000A128A1572230A128A114608831650
:1007F000B200831247088316B30083124808831699
:10080000B400831603132D08803AFF0080307F0266
:10081000031D0C2C0A302C020318372C83160313EB
:100820003408330432040319862C32088312C000C2
:10083000831633088312C100831634088312C20062
:100840000A168A1185270A128A11430842044104B4
:100850004004031D862C83162D08803AFF0080304B
:100860007F02031D352C02302C02031C862C8316BC
:1008700003132E08F0002F08F1003008F20070304A
:10088000F3008930F4004030F5000A168A11C724BD
:100890000A128A1103184E2CF7304F2CF830AC078F
:1008A0000318AD0AFF30AD072C080A128A159025EF
:1008B0000A128A1137088316AE008312380883168D
:1008C000AF00831239088316B0003208F0003308F5
:1008D000F1003408F2002E08F3002F08F40030086D
:1008E000F5000A128A156E210A128A1173088316FE
:1008F000AB007208AA007108A9007008A8000030B7
:10090000B2000030B3000030B400D92C83160313BA
:1009100032088312C000831633088312C100831685
:1009200034088312C2000A168A1185270A128A1116
:1009300043088316AB00831242088316AA00831271
:1009400041088316A900831240088316A8002B08CB
:10095000FB002A08FA002908F9002808F8000A16FE
:100960008A119C240A128A1178088312D30079080C
:10097000D4007A08D500831632088312D600831675
:1009800033088312D700831634088312D8000A165E
:100990008A111F240A128A1153088316B200831287
:1009A00054088316B300831255088316B400AC01B3
:1009B000AD01B701B70A0A3037060319252D3708EC
:1009C0008312DB0001300310DB0DFF3E031DE32C1F
:1009D00003105B0D4F3E84000A128A1500200A1294
:1009E0008A11DC000A128A1500200A128A11DD0021
:1009F0000A128A1500200A128A11DE000A128A15CC
:100A000000200A128A11DF005F0883162B02031DE3
:100A1000192D83125E0883162A02031D192D8312D5
:100A20005D0883162902031D192D83125C088316A5
:100A30002802031C252D01308312DB005B0883167E
:100A4000B7070A303706031DDF2C260803390319C0
:100A5000512D380A84008313000803193E2D2D30D0
:100A60008312DB005B08F0008316380A840000085C
:100A70000A128A1103200A128A11512D2D30831275
:100A8000DB008316380884000008840083125B08AA
:100A900080000130DB0083163808840083125B0875
:100AA0008007013083160313B702370A0319FB2DA1
:100AB00037088312DB0001300310DB0DFF3E031DFE
:100AC0005C2D03105B0D4F3E84000A128A15002036
:100AD0000A128A11F0000A128A1500200A128A11DD
:100AE000F1000A128A1500200A128A11F2000A1275
:100AF0008A1500200A128A11F30083162B08F700CA
:100B00002A08F6002908F5002808F4000A168A11B8
:100B1000BB260A128A117308B1007208B00071086E
:100B2000AF007008AE000030F3000030F20000307B
:100B3000F1000A30F0003108F7003008F6002F0805
:100B4000F5002E08F4000A168A11BA250A128A1135
:100B50007308B1007208B0007108AF007008AE00F1
:100B6000380A8400831300080319C62D2E08303E6E
:100B70008312DB005B08F0008316380A840000084B
:100B80000A128A1103200A128A11512D2E08303EB2
:100B90003F2D83160313380A8400831300080319BA
:100BA000E02D30308312DB005B08F0008316380A3A
:100BB000840000080A128A1103200A128A11F32DF8
:100BC00030308312DB00831638088400000884006C
:100BD00083125B0880000130DB0083163808840034
:100BE00083125B088007FF3083160313AC070318DA
:100BF000AD0AFF30AD072D08803AFF0080307F023C
:100C0000031D042E01302C020318C92D8316031373
:100C10003608803AFF0080307F02031D112E093014
:100C20003502031C172E0830831203131B2E831664
:100C3000031335088312DB005B088316B7003708FF
:100C40008312DB00DC015B088316B50283125C08AB
:100C50008316031CB603B60237080319572E380A49
:100C60008400831300080319442E2E308312DB0006
:100C70005B08F0008316380A840000080A128A1103
:100C800003200A128A11572E2E308312DB0083169E
:100C9000380884000008840083125B08800001305B
:100CA000DB0083163808840083125B0880078316F4
:100CB000031337080A128A1590250A128A11370879
:100CC0008316A000831238088316A1008312390806
:100CD0008316A20020088312AA008316210883121B
:100CE000AB00831622088312AC00831632088312ED
:100CF000A700831633088312A800831634088312D2
:100D0000A9000A128A15BE220A128A112708C000F9
:100D10002808C1002908C2000A168A1185270A126C
:100D20008A1143088316AB00831242088316AA0077
:100D3000831241088316A900831240088316A80075
:100D40000130B702370A0319942F37088312DB00EA
:100D500001300310DB0DFF3E031DA92E03105B0DB8
:100D60004F3E84000A128A1500200A128A11F000F0
:100D70000A128A1500200A128A11F1000A128A1535
:100D800000200A128A11F2000A128A1500200A12A3
:100D90008A11F30083162B08F7002A08F6002908A9
:100DA000F5002808F4000A168A11BB260A128A11D7
:100DB0007308B1007208B0007108AF007008AE008F
:100DC0000030F3000030F2000030F1000A30F00093
:100DD0003108F7003008F6002F08F5002E08F4005F
:100DE0000A168A11BA250A128A117308B10072080C
:100DF000B0007108AF007008AE00380A8400831399
:100E000000080319132F2E08303E8312DB005B0805
:100E1000F0008316380A840000080A128A110320A1
:100E20000A128A11272F2E08303E8312DB00831608
:100E3000380884000008840083125B0880000130B9
:100E4000DB0083163808840083125B088007831652
:100E5000031337088312DB0001300310DB0DFF3E64
:100E6000031D2D2F03105B0D4F3E84000A128A15BF
:100E700000200A128A11F0000A128A1500200A12B4
:100E80008A11F1000A128A1500200A128A11F20052
:100E90000A128A1500200A128A11F30083162B0801
:100EA000F7002A08F6002908F5002808F4000A16B9
:100EB0008A11BA250A128A117308AB007208AA00B7
:100EC0007108A90070089F2E380A84008313000857
:100ED0000319792F30308312DB005B08F000831692
:100EE000380A840000080A128A1103200A128A11A3
:100EF0008C2F30308312DB00831638088400000802
:100F0000840083125B0880000130DB008316380800
:100F1000840083125B088007FF3083160313B50734
:100F20000318B60AFF30B6073508360403198029BE
:100F3000642F831635083604031DAA2F2B082A04B4
:100F400029042804031DAA2F0130B5070318B60A87
:100F50000030B6073608803A803C031DB12F3508B3
:100F60003702031CC22F831603133608803A8312FC
:100F7000DB0080305B02031DC02F8316370835026B
:100F8000031CC22F83160313260803390319802973
:100F9000380A8400831300080319DD2F2D308312D3
:100FA000DB005B08F0008316380A840000080A1290
:100FB0008A1103200A128A1180292D308312DB0046
:100FC0008316380884000008840083125B088000C0
:100FD0000130DB0083163808840083125B08800729
:100FE00080298312D901DA0108008313B930840003
:100FF000D0300A168A11542383010A128A15162A40
:1010000008308A000408840A8207003400348034DF
:101010003F340034203441340034C8344234003486
:101020007A34443440341C3446345034C334473466
:10103000243474344934973418344B34BC34BE34BB
:101040004C346B346E344E340334153450347934AC
:10105000AD346034F33449347134003480343F3477
:10106000CD34CC343D34D73423343C34123483343F
:101070003A34B734D1343834C6342734373438347A
:1010800086343534C034D6343334CC342B34323413
:10109000703489343034E734DB342E34E5343C3476
:1010A0001E344234A2340D34013400340034003490
:1010B0000A34003400340034643400340034003422
:1010C000E83403340034003410342734003400345E
:1010D000A034863401340034403442340F340034B8
:1010E00080349634983400340034E134F5340534D7
:1010F0000034CA349A343B3441346634663469343B
:10110000633468346134673465342034743465344E
:101110006D347034653472346134743475347234BF
:1011200065340D340A340034543420343D342034D2
:1011300025342E3432346634203425346334433439
:101140000D340A340034543420343D3420342534F2
:101150002E3432346634203425346334433400343E
:10116400F4000830F1007108F500F6017408F1008C
:1011740007300310F10CFF3E031DBB287608F20074
:1011840072077104F3007308F6000310F40D70087D
:101194007602031CCF287008F6020130F502031D05
:1011A400B828760808007B088312A0007C08A100F8
:1011B4007D08A2000310210D220DA3002308A8001E
:1011C4002808031DEC280030F8000030F900003036
:1011D400FA0008007808A0007908A1007A08A200A3
:1011E4000310210D220DA3002308A9002908031DC3
:1011F40002290030F8000030F9000030FA0008003D
:101204000030A5000030A6000030A700893029076F
:10121400A0002008A8027D08A0002008A9007A08E0
:10122400A0002008A9068030A0002008A905FC170A
:10123400FF30FB05FF30FC050030FD05F917FF30DA
:10124400F805FF30F9050030FA051830A000200831
:10125400A40001300310A50DA60DA70DFF3E031D2C
:101264002C297A087D02031D3D2979087C02031D7F
:101274003D2978087B02031C4A297808FB02790877
:10128400031C790FFC027A08031C7A0AFD02251458
:1012940001300310FB0DFC0DFD0DFF3E031D4B291A
:1012A4000130A402031D2B292508F0002608F100B3
:1012B4002708F2002808A0002008F3002908A1004C
:1012C4002108F4000A168A1119277008F800710819
:1012D400F9007208FA0008007008F6007108F700B7
:1012E4007208F8000310770D780DF900790883125D
:1012F400A5002508031D87290030F3000030F20003
:101304000030F1000030F00008007308F6007408A3
:10131400F7007508F8000310770D780DF9007908C7
:10132400A400240803197E29F117FF30F005FF30CB
:10133400F1050030F205F417FF30F305FF30F40532
:101344000030F5050030A3000030A2000030A100F9
:101354000030A0007F30A50298302407F6007608FC
:10136400A5021830F6007608A4000130F600031038
:10137400A00DA10DA20DA30DF60BB92975087202DB
:10138400031DCA2974087102031DCA297308700257
:10139400031CD7297308F0027408031C740FF102AC
:1013A4007508031C750AF202201401300310F00DB5
:1013B400F10DF20DFF3E031DD8290130A402031DD7
:1013C400B729A51FFA292508803A973E031C7E29D0
:1013D40001300310A30CA20CA10CA00CFF3E031DB2
:1013E400EB290130F6007608A50703190D2AEA292E
:1013F4001830250203187E29250803190D2A013007
:10140400F6000310A00DA10DA20DA30DF60B032AE7
:101414000130A502FE292308F3002208F200210866
:10142400F1002008F00008000A168A115C230A1251
:101434008A150A168A1160260A128A150A168A1152
:1014440065230A128A150A168A1187230A128A1535
:10145400063083120313EF001330EE00AD30ED00BD
:10146400ED0B322AEE0B322AEF0B322A77300A16B2
:101474008A11EB230A128A150A168A116E230A129C
:101484008A15F401F40A01300A168A1125250A1274
:101494008A1502300A168A1104240A128A15710860
:1014A400F9007008F8000A168A11A7230A128A158F
:1014B40078088316B9007908BA007A08BB00F230BC
:1014C400F8000230F9004030FA003908FB003A080D
:1014D400FC003B08FD000A128A15D5200A128A1561
:1014E40078088316B9007908BA007A08BB0039086D
:1014F4008312E10083163A088312E20083163B0844
:101504008312E300F830E4000030E5008F300A165F
:101514008A11EB230A128A159E30ED006D08E10052
:10152400831639088312E20083163A088312E30013
:1015340083163B088312E400DF30E5000030E60048
:10154400BC300A128A110C200A128A15F401F40A1A
:1015540001300A168A1125250A128A15BC300A168A
:101564008A113C240A128A15061D4B2A0A168A116E
:1015740060260A128A154B2A2708AD002808AE00F7
:101584002908AF0003102E0D2F0DB0003008B10054
:101594003108031DD42A0030A7000030A800003011
:1015A400A90008002A08AD002B08AE002C08AF00E3
:1015B40003102E0D2F0DB0003008B6003608031DA1
:1015C400EA2A0030A7000030A8000030A900080073
:1015D40036087B3EAD002D08B1072908AD002D0863
:1015E400B6002C08AD002D08B6068030AD002D08DD
:1015F400B605A817AB17FF30AA05FF30AB050030BE
:10160400AC050030B2000030B3000030B400073045
:10161400AD002D08B500271C1D2B2A08B2072B0886
:10162400031103182B0A031DB3072C080311031815
:101634002C0A031DB40701300310A90CA80CA70C35
:10164400FF3E031D1E2B01300310AA0DAB0DAC0D84
:10165400FF3E031D262B0130B502031D0D2B09305F
:10166400AD002D08B500271C452B2A08B2072B080E
:10167400031103182B0A031DB3072C0803110318C5
:101684002C0A031DB40701300310A90CA80CA70CE5
:10169400FF3E031D462B01300310B40CB30CB20CF7
:1016A400FF3E031D4E2B0130B502031D352B3208BE
:1016B400F0003308F1003408F2003108AD002D08C1
:1016C400F3003608AE002E08F4000A168A11192712
:1016D40070088312A7007108A8007208A900080006
:1016E4004608CC004708CD004808CE0003104D0D35
:1016F4004E0DCF004F08D2004908CC004A08CD0057
:101704004B08CE0003104D0D4E0DCF004F08D100F5
:1017140052080319992B510852020318A02B51089F
:10172400CC005208CC0219304C02031CA02B4908EF
:10173400C6004A08C7004B08C8000800510803192E
:101744000800520851020318AF2B5208CC0051086C
:10175400CC0219304C02031808000630CC004C08A7
:10176400D000C81BD017CB1B5017C717FF30C605B6
:10177400FF30C7050030C805CA17FF30C905FF3060
:10178400CA050030CB05510852020318EF2B013073
:101794000310C90DCA0DCB0DFF3E031DCA2B01302A
:1017A400D102510852060319EA2B0130D002500825
:1017B40007390319EA2BC92B01300310C80CC70CD5
:1017C400C60CFF3E031DDF2B0130CC004C08D207B2
:1017D400520851060319182CDE2B52085102031823
:1017E400182C01300310C60DC70DC80DFF3E031D94
:1017F400F42B0130D202510852060319142C013083
:10180400D002500807390319142CF32B01300310AC
:10181400CB0CCA0CC90CFF3E031D092C0130CC00B3
:101824004C08D10752085106031D082CD01F2A2C3E
:10183400FF30C606FF30C706FF30C8060130C607B2
:10184400003003180130C707003003180130C807FF
:10185400501F3C2CFF30C906FF30CA06FF30CB06B0
:101864000130C907003003180130CA0700300318DB
:101874000130CB07D0014608C907470803110318F4
:10188400470A031DCA07480803110318480A031D21
:10189400CB07CB1F5F2CFF30C906FF30CA06FF30D1
:1018A400CB060130C907003003180130CA070030E5
:1018B40003180130CB07D001D00A4908F0004A08C8
:1018C400F1004B08F2005208CC004C08F300500819
:1018D400CD004D08F4000A168A11192770088312E6
:1018E400C6007108C7007208C80008007030840080
:1018F4000008F600840A0008F700840A0008F800CB
:10190400840A0008F9000310780D790DFA007A08AA
:1019140083120313A5002508031D992C0030F3003E
:101924000030F2000030F1000030F00008007330A5
:1019340084000008F600840A0008F700840A0008FE
:10194400F800840A0008F9000310780D790DFA00F4
:101954007A08A40024080319902C70308400003005
:101964008004840A00308004840A80308004840A5D
:101974000030800470308400FF308005840AFF301A
:101984008005840AFF308005840A003080057330A6
:10199400840000308004840A00308004840A80308B
:1019A4008004840A0030800473308400FF30800592
:1019B400840AFF308005840AFF308005840A0030E1
:1019C40080050030A3000030A2000030A1000030E8
:1019D400A0007F30A502A0302407F6007608A502F7
:1019E4002030F6007608A4000130F6000310A00DA4
:1019F400A10DA20DA30DF60BF82C73308400000882
:101A0400F600840A0008F700840A0008F800840A33
:101A14000008F900703084000008FA00840A000805
:101A2400FB00840A0008FC00840A0008FD00790811
:101A34007D02031D272D78087C02031D272D7708BE
:101A44007B02031D272D76087A02031C4C2D73306C
:101A540084000008F600840A0008F700840A0008DD
:101A6400F800840A0008F9007030840076088002C7
:101A7400840A7708031C770F8002840A7808031C01
:101A8400780F8002840A7908031C790A80020330E3
:101A940084022014703084000310800D840A800DA9
:101AA400840A800D840A800D840384038403013036
:101AB400A402031DF62CA51F742D2508803A9F3E11
:101AC400031C902C01300310A30CA20CA10CA00C3D
:101AD400FF3E031D652D0130F6007608A5070319A6
:101AE400872D642D203025020318902C2508031916
:101AF400872D0130F6000310A00DA10DA20DA30D3A
:101B0400F60B7D2D0130A502782D2308F300220861
:101B1400F2002108F1002008F00008008312BF0041
:101B2400BF1FCB2EBF09BF0A3F08803A123E031CD9
:101B3400472E0330BA003A08A4003F08F200F3012C
:101B4400F21BF3036430F0000030F1000A168A112E
:101B54006F250A128A157108FA007008F9000A3014
:101B6400F7000030F8000A168A1106260A128A15B0
:101B740077080A168A1196230A128A15433E8400AE
:101B84000A128A1500200A128A15A7000A128A1559
:101B940000200A128A15A8000A128A1500200A12C7
:101BA4008A15A9000330BB003B08A4003F08F900D4
:101BB400FA01F91BFA036430F7000030F8000A1642
:101BC4008A1106260A128A1577080A168A1196239C
:101BD4000A128A155E3E84000A128A1500200A122F
:101BE4008A15AA000A128A1500200A128A15AB0067
:101BF4000A128A1500200A128A15AC000A128A15E4
:101C0400BE220A128A152708BC002808BD0029082C
:101C1400BE000330BA003A08A4003F08F200F30102
:101C2400F21BF3030A30F0000030F1000A168A11A7
:101C34006F250A128A1570080A168A1196230A1249
:101C44008A15283E84000A128A1500200A128A1571
:101C5400A7000A128A1500200A128A15A8000A127F
:101C64008A1500200A128A15A9003C08AA003D081A
:101C7400AB003E08AC000A128A15BE222708B70042
:101C84002808B8002908B90008003F08803A753EC2
:101C9400031CAE2E0330BA003A08A4003F08F20039
:101CA400F301F21BF3030A30F0000030F1000A16CE
:101CB4008A116F250A128A1570080A168A1196234A
:101CC4000A128A15283E84000A128A1500200A1274
:101CD4008A15A7000A128A1500200A128A15A8007C
:101CE4000A128A1500200A128A15A9000330BB00C3
:101CF4003B08A4003F08F900FA01F91BFA030A3073
:101D0400F7000030F8000A168A1106260A128A150E
:101D140077080A168A1196230A128A15433E84000C
:101D24000A128A1500200A128A15AA000A128A15B4
:101D340000200A128A15AB000A128A1500200A1222
:101D44008A15AC000A128A15BE222708B700280893
:101D5400B8002908B90008000330BA003A08A40002
:101D64003F080A168A1196230A128A15283E84000F
:101D74000A128A1500200A128A15B7000A128A1557
:101D840000200A128A15B8000A128A150020B90028
:101D940008003F08803A123E031C7C2F0330BA002F
:101DA4003A08A4003F08F200F301F21BF303643085
:101DB400F0000030F1000A168A116F250A128A1504
:101DC4007108FA007008F9000A30F7000030F800D2
:101DD4000A168A1106260A128A1577080A168A1123
:101DE40096230A128A151C3E84000A128A150020C2
:101DF4000A128A15A7000A128A1500200A128A15E7
:101E0400A8000A128A1500200A128A15A9000330B4
:101E1400BB003B08A4003F08F900FA01F91BFA03D0
:101E24006430F7000030F8000A168A1106260A12F8
:101E34008A1577080A168A1196230A128A15373EDC
:101E440084000A128A1500200A128A15AA000A12AE
:101E54008A1500200A128A15AB000A128A1500207E
:101E64000A128A15AC000A128A15BE220A128A15B1
:101E74002708BC002808BD002908BE000330BA00AA
:101E84003A08A4003F08F200F301F21BF3030A30FE
:101E9400F0000030F1000A168A116F250A128A1523
:101EA40070080A168A1196230A128A15013E8400C4
:101EB4000A128A1500200A128A15A7000A128A1526
:101EC40000200A128A15A8000A128A1500200A1294
:101ED4008A15A9003C08AA003D08AB003E08AC00E6
:101EE4000A128A15BE222708B7002808B800290854
:101EF400B90008003F08803A753E031CE32F033005
:101F0400BA003A08A4003F08F200F301F21BF303FD
:101F14000A30F0000030F1000A168A116F250A1207
:101F24008A1570080A168A1196230A128A15013E28
:101F340084000A128A1500200A128A15A7000A12C0
:101F44008A1500200A128A15A8000A128A15002090
:101F54000A128A15A9000330BB003B08A4003F08FD
:101F6400F900FA01F91BFA030A30F7000030F8000F
:101F74000A168A1106260A128A1577080A168A1181
:101F840096230A128A151C3E84000A128A15002020
:101F94000A128A15AA000A128A1500200A128A1542
:101FA400AB000A128A1500200A128A15AC000A1224
:101FB4008A15BE222708B7002808B8002908B900E6
:101FC40008000330BA003A08A4003F080A168A1130
:101FD40096230A128A15013E84000A128A150020EB
:101FE4000A128A15B7000A128A1500200A128A15E5
:0C1FF400B8000A128A150020B90008008D
:10268C00981C462B7008831299000800720871047C
:10269C007004031908008030F20608006400800101
:1026AC00840A0406031900340406552B01308316E2
:1026BC008800051003170814031307130800C03013
:1026CC009F0083169F0180309F0083121F14080007
:1026DC0000300A168A11D3230A168A1101300A1601
:1026EC008A11D3230800F100F0013A30710203186B
:1026FC00852B30307102031C852BF001F00A700C15
:10270C000800193083169900243098008030831209
:10271C009800831698161815831298171816080027
:10272C00A600A501261C9E2B2408FC007C08A507EE
:10273C000310A40D0310A60C2608031D982B2508C6
:10274C0008007808F0007908F100F2018E30FB00E7
:10275C007B08F300F4010A168A1119277008F80097
:10276C007108F9007208FA000800F000701CC12B07
:10277C0083120816C32B83120812F01CC72B881661
:10278C00C82B8812701DCC2B0817CD2B0813F01DED
:10279C00D12B8817080088130800F3008312031349
:1027AC00081173080A168A11BB230A168A11881598
:1027BC000630F2003030F100F10BE22BF20BE22B81
:1027CC000000831203138811080083120313E8001E
:1027DC00EA010130E6006608EB006130E6006608AD
:1027EC00E9006808E6006608D9006930E700670868
:1027FC00DA006A300A128A117E210800F400C73010
:10280C00F20072089F057408F20001300310F20DFB
:10281C00FF3E031D0C2C0310720DF30073089F0474
:10282C009F149F18172C1E08F10083161E08F00029
:10283C0008005508540453040319262C8030D5067F
:10284C005608C6005708C7005808C8005308C900E6
:10285C005408CA005508CB000A128A157223460880
:10286C00D3004708D4004808D5000800F800F6014A
:10287C00F70176087807F5007508840083130008C3
:10288C000319080076087807F5007508840000081D
:10289C000A168A11F4240A168A110130F607031855
:1028AC00F70A0030F7073F2CF401F501701C642C7B
:1028BC007208F4070318F50A7308F50701300310C2
:1028CC00F20DF30DFF3E031D652C01300310F10CCE
:1028DC00F00CFF3E031D6C2C70087104031D5C2C66
:1028EC007508F1007408F0000800F900FB01770886
:1028FC0003199A2CFA01FA0AF71B8B2C0310F70D0B
:10290C000130F8007808FA07822C0310FB0D7708C9
:10291C007902031C952C7708F9027B140310F70C31
:10292C000130FA02031D8B2C7B0808008E30FC0052
:10293C007C08FD00FF307B050319B22C013003101D
:10294C00FB0CFA0CF90CF80CFF3E031DA52C013006
:10295C00FC007C08FD07A02C7808F0007908F10039
:10296C007A08F2007D08FC007C08F300F4010A16DA
:10297C008A1119277008F8007108F9007208FA001A
:10298C000800F21FD62C7008003CF0007108031CE4
:10299C00710F003CF1007208031C720F803CF200B6
:1029AC00F51FE52C7308003CF3007408031C740F2E
:1029BC00003CF4007508031C750F803CF50080305A
:1029CC00F2068030F50675087202031D08007408C3
:1029DC007102031D0800730870020800F4007408EB
:1029EC000F39F1007108F2007408F039F100710828
:1029FC00F30008157308F10004300310F10CFF3ECE
:102A0C00031D032D71080A168A11BB230A168A119D
:102A1C0088150D30F100F10B112D83120313881161
:102A2C0072080A168A11BB230A168A1188150D30F2
:102A3C00F100F10B1F2D8312031388110800F7000E
:102A4C007703031D4A2D74087F3EF5007508FA00C4
:102A5C007A08F50004300310F50CFF3E031D312DF0
:102A6C007508F6007608F8007A080F39F500750835
:102A7C00F90078080A168A11D3230A168A117908E4
:102A8C000A168A11D323080002307706031D0800AA
:102A9C007408BF3EF5007508FA007A08F50004309A
:102AAC000310F50CFF3E031D562D7508F600760835
:102ABC00F8007A080F39F5007508F90078080A163D
:102ACC008A11D3230A168A1179080A168A11D3237C
:102ADC000800F601F31F792DF209F309F20A031924
:102AEC00F30AF601F60AF11F802DF009F109F00A3C
:102AFC000319F10A700871040319AD2DF501F50ADB
:102B0C00F11B942D01300310F00DF10DFF3E031D50
:102B1C00892D0130F4007408F507862D71087302B5
:102B2C00031D9A2D70087202031CA22D7008F2026C
:102B3C007108031CF303F30201300310F10CF00CC9
:102B4C00FF3E031DA32D0130F502031D942D7608C5
:102B5C000319B52DF209F309F20A0319F30A7308E4
:102B6C00F1007208F000080073087204710470041C
:102B7C000319FD2DF901F90AF31BD22D0130F800D0
:102B8C000310F00DF10DF20DF30DF80BC62D013005
:102B9C00F8007808F907C22D73087702031DE02DA1
:102BAC0072087602031DE02D71087502031DE02DDD
:102BBC0070087402031CF02D7008F4027108031CD9
:102BCC00710FF5027208031C720FF6027308031CD6
:102BDC00730FF70201300310F30CF20CF10CF00C34
:102BEC00FF3E031DF12D0130F902031DD22D770894
:102BFC00F3007608F2007508F1007408F000080084
:102C0C008312A101F81F112EF709F809F70A03190D
:102C1C00F80AA101A10AFA1F1C2EF909FA09F90AEE
:102C2C000319FA0A0130FB007B08A106A201A301DB
:102C3C00770878040319532EA001A00AF81B322E32
:102C4C0001300310F70DF80DFF3E031D272E013048
:102C5C00FB007B08A007242E01300310A20DA30D4E
:102C6C00FF3E031D332E78087A02031D3F2E770892
:102C7C007902031C482E7708F9027808031CFA0322
:102C8C00FA02221401300310F80CF70CFF3E031D5E
:102C9C00492E0130A002031D322E210803195B2E90
:102CAC00A209A309A20A0319A30A2308F8002208FF
:102CBC00F700080000300A168A11BB230A168A1185
:102CCC001A30F500F830F400F40B6A2EF50B6A2E6E
:102CDC00000003300A168A11D3230A168A11073012
:102CEC00F5007D30F400F40B792EF50B792E0330C2
:102CFC000A168A11D3230A168A110F30F5004730B1
:102D0C00F400F40B872EF50B872E8C2E03300A164D
:102D1C008A11D3230A168A1102300A168A11D32378
:102D2C000A168A1102300A168A11D3230A168A113E
:102D3C0008300A168A11D3230A168A1100300A1693
:102D4C008A11D3230A168A110C300A168A11D3233E
:102D5C000A168A1100300A168A11D3230A168A1110
:102D6C0006300A168A11D32308000030FC0000300C
:102D7C00FB000030FA000030F90073087204710493
:102D8C0070040319102FFD01FD0AF31BDB2E01301B
:102D9C00F8000310F00DF10DF20DF30DF80BCF2E22
:102DAC000130F8007808FD07CB2E0130F800031035
:102DBC00F90DFA0DFB0DFC0DF80BDD2E73087702E7
:102DCC00031DF22E72087602031DF22E7108750295
:102DDC00031DF22E70087402031C032F7008F402FA
:102DEC007108031C710FF5027208031C720FF602B6
:102DFC007308031C730FF702791401300310F30CE2
:102E0C00F20CF10CF00CFF3E031D042F0130FD02FF
:102E1C00031DDB2E7C08F3007B08F2007A08F1001E
:102E2C007908F000080073080319212F7208710447
:102E3C007004031D342F0030F0000030F10000301E
:102E4C00F20008000130F5007508F307013003109B
:102E5C00F20CF10CF00CFF3E031D2D2FFE30720511
:102E6C0003194F2F282F0130F5007508F307013097
:102E7C00F007003003180130F1070030031801305F
:102E8C00F20701300310F20CF10CF00CFF3E031DA5
:102E9C00482FFF3072050319622F392F023073024D
:102EAC00031C642F0130F30201300310F00DF10DFF
:102EBC00F20DFF3E031D5B2FF11F542F73186C2F67
:102ECC00FF30F0057F30F105FF30F2050310F30CF5
:102EDC007308F500F601F70110300310F50DF60D2F
:102EEC00F70DFF3E031D732F7508F0047608F104EF
:102EFC007708F204740803190800F2170800400858
:102F0C00C4004108C5004208C6000310450D460D1B
:102F1C00C7004708CD004D08031D9D2F0030C3008E
:102F2C000030C2000030C1000030C0000800400872
:102F3C00C4004108C5004208C60017300310C60C77
:102F4C00C50CC40CFF3E031DA42F4408C700470842
:102F5C00C800C117FF30C005FF30C1050030C205E5
:102F6C004008C9004108CA004208CB00CC018E3091
:102F7C00CD02CD1FD62F4D08803A8F3E031C942FC7
:102F8C0001300310CC0CCB0CCA0CC90CFF3E031D3A
:102F9C00C72F0130C4004408CD070319E92FC62FF1
:102FAC0018304D020318942F4D080319E92F0130E6
:102FBC00C4000310C90DCA0DCB0DCC0DC40BDF2FF3
:102FCC000130CD02DA2F48080319F72FC909CA09B5
:102FDC00CB09CC09C90A0319CA0A0319CB0A03196C
:102FEC00CC0A4C08C3004B08C2004A08C10049086F
:042FFC00C000080009
:04400E00E2EFFFFFDF
:00000001FF
