:100000000A128A11F52FFF0000308A007F0882074C
:1000100008280A168A11CD2AE9006908E70067084E
:10002000EB00EC016230E7006708EA006108E700D6
:100030006708D9006A30E8006808DA006B300A12F5
:100040008A117E216B0884008313800108008312CB
:10005000C5006E304502031CDD280330BA003A08A3
:10006000A4000A30BB003B08F7006430BC003C0829
:10007000F00045080A168A1111240A128A110A167C
:100080008A11F0230A128A110A168A111D230A12F4
:100090008A11433E84000A128A1500200A128A112E
:1000A000A7000A128A1500200A128A11A8000A1253
:1000B0008A1500200A128A11A9000330BD003D08EC
:1000C000A4006430BE003E08F70045080A168A11F5
:1000D000F0230A128A110A168A111D230A128A11A4
:1000E0005E3E84000A128A1500200A128A11AA00B4
:1000F0000A128A1500200A128A11AB000A128A1508
:1001000000200A128A11AC000A128A15A0210A12D4
:100110008A112708C2002808C3002908C400033038
:10012000BA003A08A4000A30BB003B08F0004508BA
:100130000A168A1111240A128A110A168A111D231D
:100140000A128A11283E84000A128A1500200A1217
:100150008A11A7000A128A1500200A128A11A80023
:100160000A128A1500200A128A11A9004208AA0060
:100170004308AB004408AC000A128A15A0210A12F9
:100180008A112708BF002808C0002908C1000030D4
:10019000A7000030A8003F30A9003F08AA0040088F
:1001A000AB004108AC000A128A15A0212708B7004D
:1001B0002808B8002908B90008000B304502031CC4
:1001C00050290330BA003A08A4000A30BB003B08AB
:1001D000F00045080A168A1111240A128A110A161B
:1001E0008A111D230A128A11283E84000A128A15D8
:1001F00000200A128A11A7000A128A1500200A128A
:100200008A11A8000A128A1500200A128A11A90070
:100210000330BC003C08A4000A30BD003D08F700D4
:1002200045080A168A11F0230A128A110A168A1141
:100230001D230A128A11433E84000A128A150020E7
:100240000A128A11AA000A128A1500200A128A11BB
:10025000AB000A128A1500200A128A11AC000A1299
:100260008A15A0210A128A112708C2002808C30093
:100270002908C4000030A7000030A8003F30A900C2
:100280004208AA004308AB004408AC000A128A15D1
:10029000A0212708B7002808B8002908B9000800DD
:1002A0000030A7000030A8003F30A9000330BA009A
:1002B0003A08A40045080A168A111D230A128A1159
:1002C000283E84000A128A1500200A128A11AA0008
:1002D0000A128A1500200A128A11AB000A128A1526
:1002E00000200A128A11AC000A128A15A0212708E0
:1002F000B7002808B8002908B90008008316D500FF
:10030000013083120313D907FF30590784000A1202
:100310008A1500200A128A11DB005B088316D400BC
:1003200054080319F12F253054060319C329550A1F
:100330008400831300080319AE2954088312DB00DC
:100340005B08F0008316550A840000080A128A111F
:1003500003200A128A11831603138029540883127A
:10036000DB008316550884000008840083125B08B4
:1003700080000130DB0083165508840083125B087F
:10038000800783168029C301C401831259088400A1
:100390000A128A1500200A128A112E3A031D182A01
:1003A0008316441701308312DB005B08D9078316DC
:1003B000D201D3018312590884000A128A15002041
:1003C0000A128A110A168A1100230A128A11031CC2
:1003D0009A2A0A30F0000030F10083165308F30027
:1003E0005208F2000A168A11CF230A128A117108E4
:1003F000D3007008D2008312590884000A128A15AB
:1004000000200A128A11D03EDB00FF3003180030B2
:10041000DC005B088316D2070318D30A83125C083A
:100420008316D30701308312DB005B08D907DA2972
:100430008316D201D30144169A2A4415B12A5208D0
:1004400053040319392A5308803A8312DB008316B8
:100450004108803A83125B02031D312A831640084B
:1004600052020318392A831603135308C100520895
:10047000C000013083160313C0020030031CC10307
:10048000C102400A0319410A03198029550A840050
:10049000831300080319642A4208840000088312A9
:1004A000DB005B08F0008316550A840000080A127E
:1004B0008A1103200A128A11013083120313DB0010
:1004C0005B088316C207392A420884000008831299
:1004D000DB008316550884000008840083125B0843
:1004E00080000130DB005B088316C20701308312F5
:1004F000DB0083165508840083125B088007392AC5
:1005000083125A08840083130008DB00023080073E
:100510005B0884000008DC005C088316D400D4303B
:100520008312DB005B088316C2000130C00000307C
:10053000C1001F2A01308312D907FF3059078400F8
:100540000A128A1500200A128A118316D400003A72
:100550000319F12F633A0319802A053A03191D2A5A
:100560008F2A003043058312DB00073083164405D1
:100570008312DC005B085C040319992F8316441E68
:10058000C52A0630D2000030D30083125A088400F6
:1005900083130008DB00033080075B088400000839
:1005A0008316CF00840A0008D000840A0008D10016
:1005B0004F08F0005008F1005108F2000030F3003D
:1005C0000030F4000030F5000A168A115F240A1288
:1005D0008A110318002B4F08F0005008F100510851
:1005E000F2000A168A11D3220A128A117008CF006B
:1005F0007108D0007208D1000330C3040030C40475
:10060000C901CA01510850044F040319CC2BCF3043
:100610008400831300088312DB00840A0008DC00D6
:10062000840A0008DD00840A0008DE000F30031091
:10063000DE0CDD0CDC0CDB0CFF3E031D172BFF304A
:100640005B05DF0000305C05E0005F08823E83163A
:10065000C900831260080318013EFF3E8316CA00DA
:10066000FF30C9070318CA0AFF30CA070330F00079
:100670000030F1004A08F3004908F2000A168A1116
:10068000CF230A128A117108CA007008C9000A3003
:10069000F7000030F8004A08FA004908F9000A1685
:1006A0008A116D250A128A1178088316CA00770804
:1006B000C900CA1F612BFF30C9070318CA0AFF30DF
:1006C000CA074903FF3A0A128A1590250A128A11AD
:1006D00037088316CB00831238088316CC008312A8
:1006E00039088316CD004F088312A70083165008DF
:1006F0008312A800831651088312A90083164B08A1
:100700008312AA0083164C088312AB0083164D088F
:100710008312AC000A128A15A0210A128A11270836
:100720008316CB00831228088316CC008312290875
:100730008316CD004B08F0004C08F1004D08F20084
:100740000030F3008030F4003F30F5000A168A11C3
:100750005F240A128A110318B32BFF30C90703184C
:10076000CA0AFF30CB2B4B08F0004C08F1004D08B3
:10077000F2000030F3002030F4004130F5000A169A
:100780008A115F240A128A11031CCC2B0130C9077D
:100790000318CA0A0030CA075308803AFF008030A5
:1007A0007F02031DD52B0D3052020318012C831636
:1007B000031352080A128A1127200A128A113708D5
:1007C000C6003808C7003908C80083164F088312CE
:1007D000C900831650088312CA0083165108831279
:1007E000CB000A128A1554220A128A11460883166F
:1007F000CF00831247088316D0008312480883165F
:10080000D100831603134A08803AFF0080307F022C
:10081000031D0C2C0A3049020318372C83160313CE
:10082000510850044F040319862C4F088312C0004E
:10083000831650088312C100831651088312C20028
:100840000A168A11EC260A128A114308420441044E
:100850004004031D862C83164A08803AFF0080302E
:100860007F02031D352C02304902031C862C83169F
:1008700003134B08F0004C08F1004D08F2007030F3
:10088000F3008930F4004030F5000A168A115F2425
:100890000A128A1103184E2CF7304F2CF830C90772
:1008A0000318CA0AFF30CA0749080A128A15902598
:1008B0000A128A1137088316CB0083123808831670
:1008C000CC00831239088316CD004F08F000500881
:1008D000F1005108F2004B08F3004C08F4004D08F9
:1008E000F5000A128A15F8200A128A117308831675
:1008F000C8007208C7007108C6007008C500003043
:10090000CF000030D0000030D100D92C8316031363
:100910004F088312C000831650088312C10083164B
:1009200051088312C2000A168A11EC260A128A1193
:1009300043088316C800831242088316C700831237
:1009400041088316C600831240088316C500480874
:10095000FB004708FA004608F9004508F8000A16A7
:100960008A1134240A128A1178088312D300790874
:10097000D4007A08D50083164F088312D600831658
:1009800050088312D700831651088312D8000A1624
:100990008A1177230A128A1153088316CF00831213
:1009A00054088316D000831255088316D100C9015C
:1009B000CA01D401D40A0A3054060319252D54085B
:1009C0008312DB0001300310DB0DFF3E031DE32C1F
:1009D00003105B0D4F3E84000A128A1500200A1294
:1009E0008A11DC000A128A1500200A128A11DD0021
:1009F0000A128A1500200A128A11DE000A128A15CC
:100A000000200A128A11DF005F0883164802031DC6
:100A1000192D83125E0883164702031D192D8312B8
:100A20005D0883164602031D192D83125C08831688
:100A30004502031C252D01308312DB005B08831661
:100A4000D4070A305406031DDF2C43080339031969
:100A5000512D550A84008313000803193E2D2D30B3
:100A60008312DB005B08F0008316550A840000083F
:100A70000A128A1103200A128A11512D2D30831275
:100A8000DB008316550884000008840083125B088D
:100A900080000130DB0083165508840083125B0858
:100AA0008007013083160313D402540A0319FB2D67
:100AB00054088312DB0001300310DB0DFF3E031DE1
:100AC0005C2D03105B0D4F3E84000A128A15002036
:100AD0000A128A11F0000A128A1500200A128A11DD
:100AE000F1000A128A1500200A128A11F2000A1275
:100AF0008A1500200A128A11F30083164808F700AD
:100B00004708F6004608F5004508F4000A168A1161
:100B100022260A128A117308CE007208CD007108CD
:100B2000CC007008CB000030F3000030F200003041
:100B3000F1000A30F0004E08F7004D08F6004C08AE
:100B4000F5004B08F4000A168A1121250A128A11B1
:100B50007308CE007208CD007108CC007008CB007D
:100B6000550A8400831300080319C62D4B08303E34
:100B70008312DB005B08F0008316550A840000082E
:100B80000A128A1103200A128A11512D4B08303E95
:100B90003F2D83160313550A84008313000803199D
:100BA000E02D30308312DB005B08F0008316550A1D
:100BB000840000080A128A1103200A128A11F32DF8
:100BC00030308312DB00831655088400000884004F
:100BD00083125B0880000130DB0083165508840017
:100BE00083125B088007FF3083160313C9070318BD
:100BF000CA0AFF30CA074A08803AFF0080307F02E5
:100C0000031D042E013049020318C92D8316031356
:100C10005308803AFF0080307F02031D112E0930F7
:100C20005202031C172E0830831203131B2E831647
:100C3000031352088312DB005B088316D4005408A8
:100C40008312DB00DC015B088316D20283125C088E
:100C50008316031CD303D30254080319572E550AD5
:100C60008400831300080319442E2E308312DB0006
:100C70005B08F0008316550A840000080A128A11E6
:100C800003200A128A11572E2E308312DB0083169E
:100C9000550884000008840083125B08800001303E
:100CA000DB0083165508840083125B0880078316D7
:100CB000031354080A128A1590250A128A1137085C
:100CC0008316BD00831238088316BE0083123908CC
:100CD0008316BF003D088312AA0083163E088312C4
:100CE000AB0083163F088312AC0083164F088312B3
:100CF000A700831650088312A80083165108831298
:100D0000A9000A128A15A0210A128A112708C00018
:100D10002808C1002908C2000A168A11EC260A1206
:100D20008A1143088316C800831242088316C7003D
:100D3000831241088316C600831240088316C5003B
:100D40000130D402540A0319942F54088312DB0093
:100D500001300310DB0DFF3E031DA92E03105B0DB8
:100D60004F3E84000A128A1500200A128A11F000F0
:100D70000A128A1500200A128A11F1000A128A1535
:100D800000200A128A11F2000A128A1500200A12A3
:100D90008A11F30083164808F7004708F600460852
:100DA000F5004508F4000A168A1122260A128A1153
:100DB0007308CE007208CD007108CC007008CB001B
:100DC0000030F3000030F2000030F1000A30F00093
:100DD0004E08F7004D08F6004C08F5004B08F400EB
:100DE0000A168A1121250A128A117308CE00720888
:100DF000CD007108CC007008CB00550A8400831325
:100E000000080319132F4B08303E8312DB005B08E8
:100E1000F0008316550A840000080A128A11032084
:100E20000A128A11272F4B08303E8312DB008316EB
:100E3000550884000008840083125B08800001309C
:100E4000DB0083165508840083125B088007831635
:100E5000031354088312DB0001300310DB0DFF3E47
:100E6000031D2D2F03105B0D4F3E84000A128A15BF
:100E700000200A128A11F0000A128A1500200A12B4
:100E80008A11F1000A128A1500200A128A11F20052
:100E90000A128A1500200A128A11F30083164808E4
:100EA000F7004708F6004608F5004508F4000A1662
:100EB0008A1121250A128A117308C8007208C70016
:100EC0007108C60070089F2E550A8400831300081D
:100ED0000319792F30308312DB005B08F000831692
:100EE000550A840000080A128A1103200A128A1186
:100EF0008C2F30308312DB008316550884000008E5
:100F0000840083125B0880000130DB0083165508E3
:100F1000840083125B088007FF3083160313D20717
:100F20000318D30AFF30D30752085304031980294A
:100F3000642F831652085304031DAA2F4808470440
:100F400046044504031DAA2F0130D2070318D30A13
:100F50000030D3075308803A803C031DB12F52085C
:100F60005402031CC22F831603135308803A8312C2
:100F7000DB0080305B02031DC02F83165408520231
:100F8000031CC22F83160313430803390319802956
:100F9000550A8400831300080319DD2F2D308312B6
:100FA000DB005B08F0008316550A840000080A1273
:100FB0008A1103200A128A1180292D308312DB0046
:100FC0008316550884000008840083125B088000A3
:100FD0000130DB0083165508840083125B0880070C
:100FE00080298312D901DA0108008313A03084001C
:100FF000BD300A168A11DB2283010A128A15722C6F
:1010000008308A000408840A8207003400348034DF
:101010003F340034203441340034C8344234003486
:101020007A34443440341C3446345034C334473466
:10103000243474344934973418344B34BC34BE34BB
:101040004C346B346E344E340334153450347934AC
:10105000AD346034F33449347134003480343F3477
:10106000CD34CC343D34D73423343C34123483343F
:101070003A34B734D1343834C6342734373438347A
:1010800086343534C034D6343334CC342B34323413
:10109000703489343034E734DB342E34E5343C3476
:1010A0001E344234A2340D34013400340034003490
:1010B0000A34003400340034643400340034003422
:1010C000E83403340034003410342734003400345E
:1010D000A034863401340034403442340F340034B8
:1010E00080349634983400340034E134F5340534D7
:1010F0000034CA349A343B3441346634663469343B
:10110000633468346134673465342034743465344E
:101110006D347034653472346134743475347234BF
:1011200065340D340A340034543420343D342034D2
:1011300025342E3432346634203425346334433439
:101140000D340A340034543420343D3420342534F2
:101150002E3432346634203425346334433400343E
:101166007808F0007908F100F2018E30FB007B0868
:10117600F300F4010A168A1180267008F800710837
:10118600F9007208FA000800F40074080F39F1003B
:101196007108F2007408F039F1007108F3000815BF
:1011A6007308F10004300310F10CFF3E031DD6282E
:1011B60071080A168A112E230A128A1588150D300F
:1011C600F100F10BE42883120313881172080A1642
:1011D6008A112E230A128A1588150D30F100F10B9B
:1011E600F22883120313881108007008F6007108AC
:1011F600F7007208F8000310770D780DF9007908EA
:101206008312A5002508031D11290030F3000030C4
:10121600F2000030F1000030F00008007308F6001C
:101226007408F7007508F8000310770D780DF900BB
:101236007908A400240803190829F117FF30F005DE
:10124600FF30F1050030F205F417FF30F305FF30EB
:10125600F4050030F5050030A3000030A200003090
:10126600A1000030A0007F30A50298302407F600C8
:101276007608A5021830F6007608A4000130F600BC
:101286000310A00DA10DA20DA30DF60B43297508A1
:101296007202031D542974087102031D5429730830
:1012A6007002031C61297308F0027408031C740F92
:1012B600F1027508031C750AF202201401300310AE
:1012C600F00DF10DF20DFF3E031D62290130A4025F
:1012D600031D4129A51F84292508803A973E031C32
:1012E600082901300310A30CA20CA10CA00CFF3E90
:1012F600031D75290130F6007608A50703199729FD
:101306007429183025020318082925080319972976
:101316000130F6000310A00DA10DA20DA30DF60BD2
:101326008D290130A50288292308F3002208F2003E
:101336002108F1002008F00008002708AD00280861
:10134600AE002908AF0003102E0D2F0DB000300897
:10135600B1003108031DB6290030A7000030A800EF
:101366000030A90008002A08AD002B08AE002C08A2
:10137600AF0003102E0D2F0DB0003008B600360852
:10138600031DCC290030A7000030A8000030A900BA
:10139600080036087B3EAD002D08B1072908AD00D0
:1013A6002D08B6002C08AD002D08B6068030AD001D
:1013B6002D08B605A817AB17FF30AA05FF30AB05F9
:1013C6000030AC050030B2000030B3000030B4008D
:1013D6000730AD002D08B500271CFF292A08B207E3
:1013E6002B08031103182B0A031DB3072C0803113E
:1013F60003182C0A031DB40701300310A90CA80C0E
:10140600A70CFF3E031D002A01300310AA0DAB0DE9
:10141600AC0DFF3E031D082A0130B502031DEF295E
:101426000930AD002D08B500271C272A2A08B20767
:101436002B08031103182B0A031DB3072C080311ED
:1014460003182C0A031DB40701300310A90CA80CBD
:10145600A70CFF3E031D282A01300310B40CB30C61
:10146600B20CFF3E031D302A0130B502031D172AB8
:101476003208F0003308F1003408F2003108AD00FC
:101486002D08F3003608AE002E08F4000A168A115D
:10149600802670088312A7007108A8007208A900A8
:1014A60008004608CC004708CD004808CE000310C7
:1014B6004D0D4E0DCF004F08D2004908CC004A080A
:1014C600CD004B08CE0003104D0D4E0DCF004F083A
:1014D600D100520803197B2A510852020318822AA6
:1014E6005108CC005208CC0219304C02031C822A47
:1014F6004908C6004A08C7004B08C800080051083A
:1015060003190800520851020318912A5208CC0008
:101516005108CC0219304C02031808000630CC00E2
:101526004C08D000C81BD017CB1B5017C717FF306D
:10153600C605FF30C7050030C805CA17FF30C90504
:10154600FF30CA050030CB05510852020318D12AD4
:1015560001300310C90DCA0DCB0DFF3E031DAC2A89
:101566000130D102510852060319CC2A0130D002AB
:10157600500807390319CC2AAB2A01300310C80CCE
:10158600C70CC60CFF3E031DC12A0130CC004C0817
:10159600D207520851060319FA2AC02A52085102E4
:1015A6000318FA2A01300310C60DC70DC80DFF3EF9
:1015B600031DD62A0130D202510852060319F62A13
:1015C6000130D002500807390319F62AD52A01300E
:1015D6000310CB0CCA0CC90CFF3E031DEB2A0130CD
:1015E600CC004C08D10752085106031DEA2AD01F29
:1015F6000C2BFF30C606FF30C706FF30C806013089
:10160600C607003003180130C70700300318013041
:10161600C807501F1E2BFF30C906FF30CA06FF3011
:10162600CB060130C907003003180130CA07003065
:1016360003180130CB07D0014608C9074708031134
:101646000318470A031DCA07480803110318480A66
:10165600031DCB07CB1F412BFF30C906FF30CA063F
:10166600FF30CB060130C907003003180130CA0726
:10167600003003180130CB07D001D00A4908F0002A
:101686004A08F1004B08F2005208CC004C08F3005F
:101696005008CD004D08F4000A168A1180267008FD
:1016A6008312C6007108C7007208C80008007030AF
:1016B60084000008F600840A0008F700840A00087F
:1016C600F800840A0008F9000310780D790DFA0075
:1016D6007A0883120313A5002508031D7B2B00300F
:1016E600F3000030F2000030F1000030F000080096
:1016F600733084000008F600840A0008F700840AA4
:101706000008F800840A0008F9000310780D790D26
:10171600FA007A08A40024080319722B703084009A
:1017260000308004840A00308004840A80308004FB
:10173600840A0030800470308400FF308005840AFB
:10174600FF308005840AFF308005840A003080055A
:101756007330840000308004840A00308004840AD8
:1017660080308004840A0030800473308400FF30A7
:101776008005840AFF308005840AFF308005840ACC
:10178600003080050030A3000030A2000030A10028
:101796000030A0007F30A502A0302407F6007608AE
:1017A600A5022030F6007608A4000130F6000310EA
:1017B600A00DA10DA20DA30DF60BDA2B733084003C
:1017C6000008F600840A0008F700840A0008F800FA
:1017D600840A0008F900703084000008FA00840AC0
:1017E6000008FB00840A0008FC00840A0008FD00CB
:1017F60079087D02031D092C78087C02031D092C3B
:1018060077087B02031D092C76087A02031C2E2C0E
:10181600733084000008F600840A0008F700840A82
:101826000008F800840A0008F90070308400760881
:101836008002840A7708031C770F8002840A7808DE
:10184600031C780F8002840A7908031C790A800237
:10185600033084022014703084000310800D840A43
:10186600800D840A800D840A800D8403840384031A
:101876000130A402031DD82BA51F562C2508803A3B
:101886009F3E031C722B01300310A30CA20CA10C6B
:10189600A00CFF3E031D472C0130F6007608A50775
:1018A6000319692C462C203025020318722B2508B3
:1018B6000319692C0130F6000310A00DA10DA20D2D
:1018C600A30DF60B5F2C0130A5025A2C2308F3005A
:1018D6002208F2002108F1002008F00008000A168C
:1018E6008A11E3220A128A150A168A11C7250A12D4
:1018F6008A150A168A11EC220A128A150A168A1104
:101906000E230A128A15063083120313EF001330D2
:10191600EE00AD30ED00ED0B8E2CEE0B8E2CEF0BAA
:101926008E2C77300A168A115E230A128A150A1639
:101936008A11F5220A128A15CE01CE0A01300A163C
:101946008A118C240A128A1502300A168A119423E7
:101956000A128A157108F9007008F8000A128A1529
:10196600B3200A128A1578088316A6007908A700FC
:101976007A08A800F230F8000230F9004030FA0088
:101986002608FB002708FC002808FD000A168A1115
:1019960067270A128A1578088316A6007908A70011
:1019A6007A08A80026088312E10083162708831206
:1019B600E200831628088312E300F830E4000030C2
:1019C600E5008F300A168A115E230A128A159E30A8
:1019D600ED006D08E100831626088312E2008316E7
:1019E60027088312E300831628088312E400DF30F9
:1019F600E5000030E600A9300A128A110C200A120E
:101A06008A15CE01CE0A01300A168A118C240A12D2
:101A16008A15A9300A168A11B1230A128A150030CE
:101A2600F800F030F9004030FA0083162608FB0073
:101A36002708FC002808FD000A168A1167270A12E3
:101A46008A1578088316A3007908A4007A08A500E9
:101A56002008F0002108F1002208F2002308F30014
:101A66002408F4002508F5000A168A115F240A12D4
:101A76008A150318812D20088312C00083162108B9
:101A86008312C100831622088312C2000A168A1125
:101A9600EC260A128A154008ED006D08CE000230C9
:101AA6000A168A118C240A128A15FF300A128A1520
:101AB600C7200A128A150030C6008030C7003F30A2
:101AC600C800831620088312C900831621088312D2
:101AD600CA00831622088312CB000A128A155422E2
:101AE6000A128A1546088316A00083124708831631
:101AF600A100831248088316A2002B2D03308312FF
:101B06000313EF008A30EE005530ED00ED0B892D02
:101B1600EE0B892DEF0B892DA72C8312BF00BF1F5B
:101B2600CB2EBF09BF0A3F08803A123E031C472E40
:101B36000330BA003A08A4003F08F200F301F21B92
:101B4600F3036430F0000030F1000A168A11D6243F
:101B56000A128A157108FA007008F9000A30F700AF
:101B66000030F8000A168A116D250A128A157708C0
:101B76000A168A111D230A128A15433E84000A1288
:101B86008A1500200A128A15A7000A128A15002053
:101B96000A128A15A8000A128A1500200A128A1546
:101BA600A9000330BB003B08A4003F08F900FA0176
:101BB600F91BFA036430F7000030F8000A168A11A0
:101BC6006D250A128A1577080A168A111D230A122C
:101BD6008A155E3E84000A128A1500200A128A15AA
:101BE600AA000A128A1500200A128A15AB000A12E8
:101BF6008A1500200A128A15AC000A128A15A0213D
:101C06000A128A152708BC002808BD002908BE004C
:101C16000330BA003A08A4003F08F200F301F21BB1
:101C2600F3030A30F0000030F1000A168A11D624B8
:101C36000A128A1570080A168A111D230A128A15B5
:101C4600283E84000A128A1500200A128A15A70067
:101C56000A128A1500200A128A15A8000A128A1585
:101C660000200A128A15A9003C08AA003D08AB000C
:101C76003E08AC000A128A15A0212708B7002808DA
:101C8600B8002908B90008003F08803A753E031CD1
:101C9600AE2E0330BA003A08A4003F08F200F30162
:101CA600F21BF3030A30F0000030F1000A168A1125
:101CB600D6240A128A1570080A168A111D230A12DA
:101CC6008A15283E84000A128A1500200A128A15EF
:101CD600A7000A128A1500200A128A15A8000A12FD
:101CE6008A1500200A128A15A9000330BB003B089A
:101CF600A4003F08F900FA01F91BFA030A30F700BD
:101D06000030F8000A168A116D250A128A1577081E
:101D16000A168A111D230A128A15433E84000A12E6
:101D26008A1500200A128A15AA000A128A150020AE
:101D36000A128A15AB000A128A1500200A128A15A1
:101D4600AC000A128A15A0212708B7002808B80097
:101D56002908B90008000330BA003A08A4003F0871
:101D66000A168A111D230A128A15283E84000A12B1
:101D76008A1500200A128A15B7000A128A15002051
:101D86000A128A15B8000A128A150020B90008003E
:101D96003F08803A123E031C7C2F0330BA003A08F3
:101DA600A4003F08F200F301F21BF3036430F000D5
:101DB6000030F1000A168A11D6240A128A15710813
:101DC600FA007008F9000A30F7000030F8000A1629
:101DD6008A116D250A128A1577080A168A111D239B
:101DE6000A128A151C3E84000A128A1500200A125D
:101DF6008A15A7000A128A1500200A128A15A80059
:101E06000A128A1500200A128A15A9000330BB009F
:101E16003B08A4003F08F900FA01F91BFA036430F5
:101E2600F7000030F8000A168A116D250A128A1585
:101E360077080A168A111D230A128A15373E84006E
:101E46000A128A1500200A128A15AA000A128A1591
:101E560000200A128A15AB000A128A1500200A12FF
:101E66008A15AC000A128A15A0210A128A152708BB
:101E7600BC002808BD002908BE000330BA003A0895
:101E8600A4003F08F200F301F21BF3030A30F0004E
:101E96000030F1000A168A11D6240A128A15700833
:101EA6000A168A111D230A128A15013E84000A1297
:101EB6008A1500200A128A15A7000A128A15002020
:101EC6000A128A15A8000A128A1500200A128A1513
:101ED600A9003C08AA003D08AB003E08AC000A1267
:101EE6008A15A0212708B7002808B8002908B900D4
:101EF60008003F08803A753E031CE32F0330BA0002
:101F06003A08A4003F08F200F301F21BF3030A307B
:101F1600F0000030F1000A168A11D6240A128A153A
:101F260070080A168A111D230A128A15013E8400BA
:101F36000A128A1500200A128A15A7000A128A15A3
:101F460000200A128A15A8000A128A1500200A1211
:101F56008A15A9000330BB003B08A4003F08F9001E
:101F6600FA01F91BFA030A30F7000030F8000A16E6
:101F76008A116D250A128A1577080A168A111D23F9
:101F86000A128A151C3E84000A128A1500200A12BB
:101F96008A15AA000A128A1500200A128A15AB00B1
:101FA6000A128A1500200A128A15AC000A128A152E
:101FB600A0212708B7002808B8002908B90008009A
:101FC6000330BA003A08A4003F080A168A111D23F6
:101FD6000A128A15013E84000A128A1500200A1286
:101FE6008A15B7000A128A1500200A128A15B80047
:0A1FF6000A128A150020B900080045
:10259A00981CCD2A700883129900080072087104E9
:1025AA007004031908008030F206080064008001F4
:1025BA00840A0406031900340406DC2A013083164F
:1025CA008800051003170814031307130800C03006
:1025DA009F0083169F0180309F0083121F140800FA
:1025EA0000300A168A1146230A168A1101300A1681
:1025FA008A1146230800F100F0013A3071020318EB
:10260A000C2B30307102031C0C2BF001F00A700CF9
:10261A0008001930831699002430980080308312FC
:10262A00980083169816181583129817181608001A
:10263A00A600A501261C252B2408FC007C08A5075A
:10264A000310A40D0310A60C2608031D1F2B250832
:10265A000800F000701C342B83120816362B8312E4
:10266A000812F01C3A2B88163B2B8812701D3F2B40
:10267A000817402B0813F01D442B881708008813ED
:10268A000800F30083120313081173080A168A114B
:10269A002E230A168A1188150630F2003030F1000E
:1026AA00F10B552BF20B552B0000831203138811E3
:1026BA00080083120313E800EA010130E600660805
:1026CA00EB006130E6006608E9006808E600660883
:1026DA00D9006930E7006708DA006A300A128A11FD
:1026EA007E21080055085404530403197E2B8030B8
:1026FA00D5065608C6005708C7005808C800530828
:10270A00C9005408CA005508CB000A128A15542277
:10271A004608D3004708D4004808D5000800F4004A
:10272A00C730F2007208831203139F057408F2007F
:10273A0001300310F20DFF3E031D9E2B0310720D94
:10274A00F30073089F049F149F18A92B1E08F10019
:10275A0083161E08F0000800F800F601F701760853
:10276A007807F50075088400831300080319080028
:10277A0076087807F5007508840000080A128A1599
:10278A00C7200A168A110130F6070318F70A003023
:10279A00F707B42BF401F501701CD92B7208F40762
:1027AA000318F50A7308F50701300310F20DF30D4B
:1027BA00FF3E031DDA2B01300310F10CF00CFF3E33
:1027CA00031DE12B70087104031DD12B7508F1005C
:1027DA007408F0000800F900FB01770803190F2CB0
:1027EA00FA01FA0AF71B002C0310F70D0130F80062
:1027FA007808FA07F72B0310FB0D77087902031CF8
:10280A000A2C7708F9027B140310F70C0130FA023C
:10281A00031D002C7B080800F4000830F100710841
:10282A00F500F6017408F10007300310F10CFF3EC1
:10283A00031D1A2C7608F20072077104F30073085C
:10284A00F6000310F40D70087602031C2E2C700893
:10285A00F6020130F502031D172C760808008E30A7
:10286A00FC007C08FD00FF307B0503194A2C01306F
:10287A000310FB0CFA0CF90CF80CFF3E031D3D2C5F
:10288A000130FC007C08FD07382C7808F000790834
:10289A00F1007A08F2007D08FC007C08F300F401DC
:1028AA000A168A1180267008F8007108F900720861
:1028BA00FA000800F21F6E2C7008003CF000710844
:1028CA00031C710F003CF1007208031C720F803C5C
:1028DA00F200F51F7D2C7308003CF3007408031CFA
:1028EA00740F003CF4007508031C750F803CF5005A
:1028FA008030F2068030F50675087202031D080062
:10290A0074087102031D0800730870020800D100E0
:10291A005103031DB12C4E087F3ECF004F08D4004F
:10292A005408CF0004300310CF0CFF3E031D982C2F
:10293A004F08D0005008D20054080F39CF004F0872
:10294A00D30052080A168A1146230A168A11530816
:10295A000A168A114623080002305106031D080090
:10296A004E08BF3ECF004F08D4005408CF000430B1
:10297A000310CF0CFF3E031DBD2C4F08D00050089A
:10298A00D20054080F39CF004F08D30052080A1654
:10299A008A1146230A168A1153080A168A114623EF
:1029AA000800F601F31FE02CF209F309F20A0319F1
:1029BA00F30AF601F60AF11FE72CF009F109F00A09
:1029CA000319F10A700871040319142DF501F50AA7
:1029DA00F11BFB2C01300310F00DF10DFF3E031D1E
:1029EA00F02C0130F4007408F507ED2C710873021D
:1029FA00031D012D70087202031C092D7008F202D2
:102A0A007108031CF303F30201300310F10CF00CFC
:102A1A00FF3E031D0A2D0130F502031DFB2C76082B
:102A2A0003191C2DF209F309F20A0319F30A7308B0
:102A3A00F1007208F000080073087204710470044F
:102A4A000319642DF901F90AF31B392D0130F80035
:102A5A000310F00DF10DF20DF30DF80B2D2D0130D1
:102A6A00F8007808F907292D73087702031D472D06
:102A7A0072087602031D472D71087502031D472D42
:102A8A0070087402031C572D7008F4027108031CA5
:102A9A00710FF5027208031C720FF6027308031C09
:102AAA00730FF70201300310F30CF20CF10CF00C67
:102ABA00FF3E031D582D0130F902031D392D7708F9
:102ACA00F3007608F2007508F1007408F0000800B7
:102ADA008312A101F81F782DF709F809F70A0319DB
:102AEA00F80AA101A10AFA1F832DF909FA09F90ABC
:102AFA000319FA0A0130FB007B08A106A201A3010F
:102B0A00770878040319BA2DA001A00AF81B992D99
:102B1A0001300310F70DF80DFF3E031D8E2D013015
:102B2A00FB007B08A0078B2D01300310A20DA30D1B
:102B3A00FF3E031D9A2D78087A02031DA62D7708F9
:102B4A007902031CAF2D7708F9027808031CFA03EF
:102B5A00FA02221401300310F80CF70CFF3E031D91
:102B6A00B02D0130A002031D992D21080319C22D91
:102B7A00A209A309A20A0319A30A2308F800220832
:102B8A00F700080000300A168A112E230A168A1145
:102B9A001A30F500F830F400F40BD12DF50BD12DD5
:102BAA00000003300A168A1146230A168A110730D2
:102BBA00F5007D30F400F40BE02DF50BE02D033029
:102BCA000A168A1146230A168A110F30F500473071
:102BDA00F400F40BEE2DF50BEE2DF32D03300A164F
:102BEA008A1146230A168A1102300A168A114623C6
:102BFA000A168A1102300A168A1146230A168A11FF
:102C0A0008300A168A1146230A168A1100300A1653
:102C1A008A1146230A168A110C300A168A1146238B
:102C2A000A168A1100300A168A1146230A168A11D0
:102C3A0006300A168A11462308000030FC000030CC
:102C4A00FB000030FA000030F900730872047104C6
:102C5A0070040319772EFD01FD0AF31B422E013081
:102C6A00F8000310F00DF10DF20DF30DF80B362EEE
:102C7A000130F8007808FD07322E0130F800031001
:102C8A00F90DFA0DFB0DFC0DF80B442E73087702B3
:102C9A00031D592E72087602031D592E71087502FA
:102CAA00031D592E70087402031C6A2E7008F40260
:102CBA007108031C710FF5027208031C720FF602E9
:102CCA007308031C730FF702791401300310F30C15
:102CDA00F20CF10CF00CFF3E031D6B2E0130FD02CD
:102CEA00031D422E7C08F3007B08F2007A08F100EB
:102CFA007908F000080073080319882E7208710415
:102D0A007004031D9B2E0030F0000030F1000030EB
:102D1A00F20008000130F5007508F30701300310CE
:102D2A00F20CF10CF00CFF3E031D942EFE307205DE
:102D3A000319B62E8F2E0130F5007508F3070130FE
:102D4A00F007003003180130F10700300318013092
:102D5A00F20701300310F20CF10CF00CFF3E031DD8
:102D6A00AF2EFF3072050319C92EA02E023073024E
:102D7A00031CCB2E0130F30201300310F00DF10DCC
:102D8A00F20DFF3E031DC22EF11FBB2E7318D32E68
:102D9A00FF30F0057F30F105FF30F2050310F30C28
:102DAA007308F500F601F70110300310F50DF60D62
:102DBA00F70DFF3E031DDA2E7508F0047608F104BC
:102DCA007708F204740803190800F217080040088B
:102DDA00C4004108C5004208C6000310450D460D4F
:102DEA00C7004708CD004D08031D042F0030C3005B
:102DFA000030C2000030C1000030C00008004008A6
:102E0A00C4004108C5004208C60017300310C60CAA
:102E1A00C50CC40CFF3E031D0B2F4408C70047080E
:102E2A00C800C117FF30C005FF30C1050030C20518
:102E3A004008C9004108CA004208CB00CC018E30C4
:102E4A00CD02CD1F3D2F4D08803A8F3E031CFB2E2D
:102E5A0001300310CC0CCB0CCA0CC90CFF3E031D6D
:102E6A002E2F0130C4004408CD070319502F2D2FEF
:102E7A0018304D020318FB2E4D080319502F01304C
:102E8A00C4000310C90DCA0DCB0DCC0DC40B462FBF
:102E9A000130CD02412F480803195E2FC909CA091A
:102EAA00CB09CC09C90A0319CA0A0319CB0A03199F
:102EBA00CC0A4C08C3004B08C2004A08C1004908A2
:102ECA00C00008007B088312A0007C08A1007D08CE
:102EDA00A2000310210D220DA3002308A800280830
:102EEA00031D7E2F0030F8000030F9000030FA0090
:102EFA0008007808A0007908A1007A08A200031047
:102F0A00210D220DA3002308A9002908031D942FCF
:102F1A000030F8000030F9000030FA0008000030F4
:102F2A00A5000030A6000030A70089302907A000BC
:102F3A002008A8027D08A0002008A9007A08A0009D
:102F4A002008A9068030A0002008A905FC17FF3038
:102F5A00FB05FF30FC050030FD05F917FF30F805C9
:102F6A00FF30F9050030FA051830A0002008A40047
:102F7A0001300310A50DA60DA70DFF3E031DBE2FA0
:102F8A007A087D02031DCF2F79087C02031DCF2FFB
:102F9A0078087B02031CDC2F7808FB027908031CE3
:102FAA00790FFC027A08031C7A0AFD022514013003
:102FBA000310FB0DFC0DFD0DFF3E031DDD2F01303F
:102FCA00A402031DBD2F2508F0002608F1002708DA
:102FDA00F2002808A0002008F3002908A10021080F
:102FEA00F4000A168A1180267008F8007108F900A0
:062FFA007208FA00080055
:04400E00E2EFFFFFDF
:00000001FF
