:100000000A128A11E82F00308A000408840A820745
:10001000003449346C3420346534733474342034FF
:100020003A34203425342E343134303473340D34A2
:0200300000349A
:10095000C0309F00803083169F0083121F14080050
:10096000831688018601051403170814031307135F
:10097000080040347934243430341B3412340334C6
:1009800038340034183419309900243098008030FD
:100990008312980083169816181583129817181644
:1009A00008007E088A007F088200D1240A128A117A
:1009B0008000840A04087D0603190034FF0A031925
:1009C000FE0AD52CF4000F30F2007208F405C33093
:1009D000F20072089F057408F20001300310F20D56
:1009E000FF3E031DEE2C0310720DF30073089F04ED
:1009F0009F149F18F92C1E08F10083161E08F000A2
:100A00000800FD01F91F0B2DF809F909F80A03196F
:100A1000F90AFD01FD0A7808F0007908F100F201F9
:100A20008E30FB007B08F3007D08FC007C08F4009E
:100A30000A128A11C6257008F8007108F9007208B8
:100A4000FA000800A101FC1F2C2DFB09FC09FB0A80
:100A50000319FC0AA101A10AFA1F332DF909FA09A9
:100A6000F90A0319FA0A79087A040319602DA0011A
:100A7000A00AFA1B472D01300310F90DFA0DFF3EB5
:100A8000031D3C2D0130FD007D08A007392D7A089B
:100A90007C02031D4D2D79087B02031C552D79081E
:100AA000FB027A08031CFC03FC0201300310FA0C61
:100AB000F90CFF3E031D562D0130A002031D472DEA
:100AC00021080319682DFB09FC09FB0A0319FC0A1C
:100AD0007C08FA007B08F9000800F601F11F772D69
:100AE000F009F109F00A0319F10AF601F60AF31FF9
:100AF000822DF209F309F20A0319F30A0130F40016
:100B00007408F606F701F801700871040319B92D8D
:100B1000F501F50AF11B982D01300310F00DF10DD0
:100B2000FF3E031D8D2D0130F4007408F5078A2D5A
:100B300001300310F70DF80DFF3E031D992D7108CC
:100B40007302031DA52D70087202031CAE2D7008E0
:100B5000F2027108031CF303F3027714013003104F
:100B6000F10CF00CFF3E031DAF2D0130F502031D0B
:100B7000982D76080319C12DF709F809F70A03190A
:100B8000F80A7808F1007708F000080073080319E4
:100B9000CE2D720871047004031DE12D0030F000A9
:100BA0000030F1000030F20008000130F500750857
:100BB000F30701300310F20CF10CF00CFF3E031DA3
:100BC000DA2DFE3072050319FC2DD52D0130F5000C
:100BD0007508F3070130F007003003180130F10702
:100BE000003003180130F20701300310F20CF10C51
:100BF000F00CFF3E031DF52DFF30720503190F2E7B
:100C0000E62D02307302031C112E0130F302013075
:100C10000310F00DF10DF20DFF3E031D082EF11F24
:100C2000012E7318192EFF30F0057F30F105FF30CB
:100C3000F2050310F30C7308F500F601F70110300C
:100C40000310F50DF60DF70DFF3E031D202E750860
:100C5000F0047608F1047708F20474080319080018
:100C6000F21708003008B4003108B5003208B600A9
:100C70000310350D360DB7003708BD003D08031DC4
:100C80004A2E0030B3000030B2000030B100003016
:100C9000B00008003008B4003108B5003208B600D2
:100CA00017300310B60CB50CB40CFF3E031D512ECB
:100CB0003408B7003708B800B117FF30B005FF306F
:100CC000B1050030B2053008B9003108BA00320869
:100CD000BB00BC018E30BD02BD1F832E3D08803A93
:100CE0008F3E031C412E01300310BC0CBB0CBA0C10
:100CF000B90CFF3E031D742E0130B4003408BD074B
:100D00000319962E732E18303D020318412E3D080C
:100D10000319962E0130B4000310B90DBA0DBB0DA6
:100D2000BC0DB40B8C2E0130BD02872E3808031980
:100D3000A42EB909BA09BB09BC09B90A0319BA0A30
:100D40000319BB0A0319BC0A3C08B3003B08B200F4
:100D50003A08B1003908B00008002308A6002408AA
:100D6000A7002508A8000310270D280DA9002908B1
:100D7000AE002E08031DC32E0030A0000030A100DD
:100D80000030A20008002008A6002108A7002208C1
:100D9000A8000310270D280DA9002908AF002F086F
:100DA000031DD92E0030A0000030A1000030A200A9
:100DB00008000030AB000030AC000030AD008930DE
:100DC0002F07A6002608AE022508A6002608AF00B9
:100DD0002208A6002608AF068030A6002608AF0528
:100DE000A417FF30A305FF30A4050030A505A11707
:100DF000FF30A005FF30A1050030A2051830A60085
:100E00002608AA0001300310AB0DAC0DAD0DFF3E5E
:100E1000031D032F22082502031D142F210824027D
:100E2000031D142F20082302031C212F2008A302D6
:100E30002108031C210FA4022208031C220AA50278
:100E40002B1401300310A30DA40DA50DFF3E031DAF
:100E5000222F0130AA02031D022F2B08F0002C08BC
:100E6000F1002D08F2002E08A6002608F3002F0836
:100E7000A7002708F4000A128A11C6257008A000EE
:100E80007108A1007208A20008000A128A11B02499
:100E90000A128A110A128A11C3240A128A110A122A
:100EA0008A11A8240A128A1100300A128A11E22437
:100EB0000A128A1171088312CF007008CE004F0801
:100EC000F9004E08F8000A128A1101250A128A1147
:100ED0007808A3007908A4007A08A500F230A000E1
:100EE0000230A1004030A2000A128A11AD260A1277
:100EF0008A112008B0002108B1002208B2000A12AD
:100F00008A1132260A128A113108CF003008CE0029
:100F10000A30F9000030FA004F08FC004E08FB00D0
:100F20000A128A1122250A128A117A08CD0079083C
:100F3000CC000A30F9000030FA000A30F00000302E
:100F4000F1004F08F3004E08F2000A128A116D25D5
:100F50000A128A117108FC007008FB000A128A113B
:100F600022250A128A117A08CB007908CA000A30B1
:100F7000F9000030FA006430F0000030F1004F0852
:100F8000F3004E08F2000A128A116D250A128A1126
:100F90007108FC007008FB000A128A1122250A124F
:100FA0008A117A08C9007908C80048084904031959
:100FB000DB2F8817DC2F88134A083E3E84008313FA
:100FC000000888004C083E3E840000088600542F2C
:100FD00083134830FD000430FE00B930FF003E307E
:100FE00084000A128A11D524D001D101D201D30183
:100FF000D401D501D601D70183010A128A11452FE8
:04400E00E2EFFFFFDF
:00000001FF
