:060000000A128A11E72F2D
:10000A000034C8344134F21F17287008003CF0004D
:10001A007108031C710F003CF1007208031C720F77
:10002A00803CF200F51F26287308003CF300740890
:10003A00031C740F003CF4007508031C750F803C08
:10004A00F5008030F2068030F50675087202031D4D
:10005A00080074087102031D080073087002080082
:10006A008312BF00BF1F7029BF09BF0A3F08803A29
:10007A00123E031CEC280330BA003A08A4003F08D9
:10008A00F200F301F21BF3036430F0000030F100D8
:10009A000A168A11B1260A128A117108FA00700822
:1000AA00F9000A30F7000030F8000A168A114827CA
:1000BA000A128A1177080A168A11FF250A128A116A
:1000CA00433E84000A128A150A200A128A11A700DE
:1000DA000A128A150A200A128A11A8000A128A1517
:1000EA000A200A128A11A9000330BB003B08A400A7
:1000FA003F08F900FA01F91BFA036430F7000030EF
:10010A00F8000A168A1148270A128A1177080A166D
:10011A008A11FF250A128A115E3E84000A128A1584
:10012A000A200A128A11AA000A128A150A200A1239
:10013A008A11AB000A128A150A200A128A11AC0027
:10014A000A128A15D7230A128A112708BC0028081E
:10015A00BD002908BE000330BA003A08A4003F08CF
:10016A00F200F301F21BF3030A30F0000030F10051
:10017A000A168A11B1260A128A1170080A168A11F9
:10018A00FF250A128A11283E84000A128A150A20BB
:10019A000A128A11A7000A128A150A200A128A115B
:1001AA00A8000A128A150A200A128A11A9003C0814
:1001BA00AA003D08AB003E08AC000A128A15D723F4
:1001CA002708B7002808B8002908B90008003F081E
:1001DA00803A753E031C53290330BA003A08A4003A
:1001EA003F08F200F301F21BF3030A30F00000307B
:1001FA00F1000A168A11B1260A128A1170080A1623
:10020A008A11FF250A128A11283E84000A128A15C9
:10021A000A200A128A11A7000A128A150A200A124B
:10022A008A11A8000A128A150A200A128A11A9003C
:10023A000330BB003B08A4003F08F900FA01F91B90
:10024A00FA030A30F7000030F8000A168A11482724
:10025A000A128A1177080A168A11FF250A128A11C8
:10026A00433E84000A128A150A200A128A11AA0039
:10027A000A128A150A200A128A11AB000A128A1572
:10028A000A200A128A11AC000A128A15D7232708F3
:10029A00B7002808B8002908B90008000330BA00D6
:1002AA003A08A4003F080A168A11FF250A128A1181
:1002BA00283E84000A128A150A200A128A11B700F7
:1002CA000A128A150A200A128A11B8000A128A1515
:1002DA000A20B90008003F08803A123E031C212A6E
:1002EA000330BA003A08A4003F08F200F301F21BF7
:1002FA00F3036430F0000030F1000A168A11B126C7
:10030A000A128A117108FA007008F9000A30F70017
:10031A000030F8000A168A1148270A128A1177084B
:10032A000A168A11FF250A128A111C3E84000A1233
:10033A008A150A200A128A11A7000A128A150A20A7
:10034A000A128A11A8000A128A150A200A128A11A8
:10035A00A9000330BB003B08A4003F08F900FA01DA
:10036A00F91BFA036430F7000030F8000A168A1104
:10037A0048270A128A1177080A168A11FF250A12D3
:10038A008A11373E84000A128A150A200A128A1133
:10039A00AA000A128A150A200A128A11AB000A1246
:1003AA008A150A200A128A11AC000A128A15D72362
:1003BA000A128A112708BC002808BD002908BE00B5
:1003CA000330BA003A08A4003F08F200F301F21B16
:1003DA00F3030A30F0000030F1000A168A11B12640
:1003EA000A128A1170080A168A11FF250A128A113E
:1003FA00013E84000A128A150A200A128A11A700ED
:10040A000A128A150A200A128A11A8000A128A15E3
:10041A000A200A128A11A9003C08AA003D08AB006A
:10042A003E08AC000A128A15D7232708B700280805
:10043A00B8002908B90008003F08803A753E031C35
:10044A00882A0330BA003A08A4003F08F200F301F0
:10045A00F21BF3030A30F0000030F1000A168A1189
:10046A00B1260A128A1170080A168A11FF250A1281
:10047A008A11013E84000A128A150A200A128A1178
:10048A00A7000A128A150A200A128A11A8000A125B
:10049A008A150A200A128A11A9000330BB003B08F8
:1004AA00A4003F08F900FA01F91BFA030A30F70021
:1004BA000030F8000A168A1148270A128A117708AA
:1004CA000A168A11FF250A128A111C3E84000A1292
:1004DA008A150A200A128A11AA000A128A150A2003
:1004EA000A128A11AB000A128A150A200A128A1104
:1004FA00AC000A128A15D7232708B7002808B800C3
:10050A002908B90008000330BA003A08A4003F08D5
:10051A000A168A11FF250A128A11013E84000A125C
:10052A008A150A200A128A11B7000A128A150A20A5
:10053A000A128A11B8000A128A150A20B90008009C
:10054A008316AA0059308312DC005C088316A300C4
:10055A0001308316AA07FF302A0784000A128A1577
:10056A000A200A128A118312DC005C088316BA0078
:10057A003A080319080025303A060319C62A3A0828
:10058A00E02FA801A9012A0884000A128A150A2064
:10059A000A128A112E3A031D172B291701308312CA
:1005AA00DC005C088316AA07B801B9012A0884008E
:1005BA000A128A150A200A128A110A168A11F125C4
:1005CA000A128A11031C812B3908F1003808F0003D
:1005DA000A30F2000030F3000A168A114C260A1279
:1005EA008A112A0884000A128A150A200A128A1114
:1005FA0070078312DC000030031801307107DD0038
:10060A005C08D03E8316B80083125D080318013EC9
:10061A00FF3E8316B90001308312DC005C088316A2
:10062A00AA07DB2AB801B9012916812B2915962BAD
:10063A002308840083130008A6000030A7000130B5
:10064A008312DC005C088316A30726082704031D0F
:10065A00322BE430A6008030A700A401A5012408AB
:10066A002607840027080318270A8312FF000A12A4
:10067A008A1500200A128A11003A03194C2B0130FC
:10068A008316A4070318A50A0030A507342B83167E
:10069A003808390403195D2B25083902031D572B25
:1006AA002408380203185D2B3908A5003808A4006D
:1006BA000130A4020030031CA503A502240A031971
:1006CA00250A0319AD2A27088312FF008316260874
:1006DA00840083120A128A1500200A128A110A1645
:1006EA008A11DA250A128A1101308316A60703181D
:1006FA00A70A0030A7075D2B0130AA07FF302A0797
:10070A0084000A128A150A200A128A11BA00003ACB
:10071A000319E62F663A03191B2B153A03191D2BE9
:10072A00AD2A003028058312DC000730831629051C
:10073A008312DD005C085D040319B02F8316291E9D
:10074A00AA2B0630B8000030B900230884008313AE
:10075A000008B500840A0008B600840A0008B70039
:10076A0003308312DC005C088316A3073508F00007
:10077A003608F1003708F2000030F3000030F400C8
:10078A000030F5000A128A1108200A128A11031889
:10079A00E32B3508F0003608F1003708F2000A1694
:1007AA008A11D2250A128A117008B5007108B6009A
:1007BA007208B7000330A8040030A904AF01B001E1
:1007CA003708360435040319AF2CB5308400831377
:1007DA0000088312DC00840A0008DD00840A00088D
:1007EA00DE00840A0008DF000F300310DF0CDE0C85
:1007FA00DD0CDC0CFF3E031DFA2BFF305C05E0002C
:10080A0000305D05E1006008823E8316AF00831266
:10081A0061080318013EFF3E8316B000FF30AF07A0
:10082A000318B00AFF30B0070330F0000030F100BF
:10083A003008F3002F08F2000A168A114C260A1211
:10084A008A117108B0007008AF000A30F700003052
:10085A00F8003008FA002F08F9000A168A1148270A
:10086A000A128A1178088316B0007708AF00B01F01
:10087A00442CFF30AF070318B00AFF30B0072F032C
:10088A00FF3A0A128A1135200A128A11370883168A
:10089A00B100831238088316B2008312390883160E
:1008AA00B30035088312A700831636088312A800FE
:1008BA00831637088312A900831631088312AA0007
:1008CA00831632088312AB00831633088312AC00F6
:1008DA000A128A15D7230A128A1127088316B10029
:1008EA00831228088316B200831229088316B300DC
:1008FA003108F0003208F1003308F2000030F3004A
:10090A008030F4003F30F5000A128A1108200A12DA
:10091A008A110318962CFF30AF070318B00AFF306C
:10092A00AE2C3108F0003208F1003308F200003032
:10093A00F3002030F4004130F5000A128A11082031
:10094A000A128A11031CAF2C0130AF070318B00A30
:10095A000030B0073908803AFF0080307F02031D5B
:10096A00B82C0D3038020318E42C83160313380808
:10097A000A128A15A9260A128A113708C6003808E7
:10098A00C7003908C800831635088312C9008316C0
:10099A0036088312CA00831637088312CB000A125C
:1009AA008A158B240A128A1146088316B500831207
:1009BA0047088316B600831248088316B7008316C1
:1009CA0003133008803AFF0080307F02031DEF2CAA
:1009DA000A302F0203181A2D831603133708360418
:1009EA0035040319692D35088312C00083163608A9
:1009FA008312C100831637088312C2000A128A15AD
:100A0A001C220A128A114308420441044004031DAD
:100A1A00692D83163008803AFF0080307F02031D5B
:100A2A00182D02302F02031C692D83160313310877
:100A3A00F0003208F1003308F2007030F300893018
:100A4A00F4004030F5000A128A1108200A128A11AD
:100A5A000318312DF730322DF830AF070318B00ADA
:100A6A00FF30B0072F080A128A1135200A128A119C
:100A7A0037088316B100831238088316B20083122E
:100A8A0039088316B3003508F0003608F100370834
:100A9A00F2003108F3003208F4003308F5000A12B4
:100AAA008A152F230A128A1173088316AE00720858
:100ABA00AD007108AC007008AB000030B500003022
:100ACA00B6000030B700BC2D831603133508831215
:100ADA00C000831636088312C100831637088312B2
:100AEA00C2000A128A151C220A128A1143088316A6
:100AFA00AE00831242088316AD00831241088316A2
:100B0A00AC00831240088316AB002E08FB002D08A8
:100B1A00FA002C08F9002B08F8000A128A1510218D
:100B2A000A128A1178088312D3007908D4007A0845
:100B3A00D500831635088312D60083163608831229
:100B4A00D700831637088312D8000A168A1110268E
:100B5A000A128A1153088316B500831254088316A1
:100B6A00B600831255088316B700AF01B001BA0167
:100B7A00BA0A3A088312DC0001300310DC0DFF3E8A
:100B8A00031DC22D03105C0D4F3E84000A128A1504
:100B9A000A200A128A11DD000A128A150A200A128C
:100BAA008A11DE000A128A150A200A128A11DF0047
:100BBA000A128A150A200A128A11E00060088316AE
:100BCA002E02031DF82D83125F0883162D02031DC2
:100BDA00F82D83125E0883162C02031DF82D83124A
:100BEA005D0883162B02031C042E01308312DC00DD
:100BFA005C088316BA070A303A06031DBE2D280878
:100C0A00033903190E2E2D300A168A11DA250A1213
:100C1A008A1101308316BA023A0A03197C2E3A085D
:100C2A008312DC0001300310DC0DFF3E031D182E79
:100C3A0003105C0D4F3E84000A128A150A200A121C
:100C4A008A11F0000A128A150A200A128A11F10082
:100C5A000A128A150A200A128A11F2000A128A1541
:100C6A000A200A128A11F30083162E08F7002D08AB
:100C7A00F6002C08F5002B08F4000A168A11A227A0
:100C8A000A128A117308B4007208B3007108B2001C
:100C9A007008B1000030F3000030F2000030F100BB
:100CAA000A30F0003408F7003308F6003208F5007D
:100CBA003108F4000A168A11FC260A128A117308EE
:100CCA00B4007208B3007108B2007008B1003108AC
:100CDA00303E092E30300A168A11DA250A128A1194
:100CEA00FF308316AF070318B00AFF30B007300889
:100CFA00803AFF0080307F02031D852E01302F02CB
:100D0A0003186F2E831603133908803AFF008030C8
:100D1A007F02031D922E09303802031C982E0830D8
:100D2A00831203139C2E8316031338088312DC00E4
:100D3A005C088316BA003A088312DC00DD015C08FD
:100D4A008316B80283125D088316031CB903B9021D
:100D5A003A080319B62E2E300A168A11DA250A1213
:100D6A008A1183163A080A128A1135200A128A1140
:100D7A0037088316A000831238088316A10083124D
:100D8A0039088316A20020088312AA0083162108B4
:100D9A008312AB00831622088312AC00831635082F
:100DAA008312A700831636088312A8008316370811
:100DBA008312A9000A128A15D7230A128A11270850
:100DCA00C0002808C1002908C2000A128A151C227C
:100DDA000A128A1143088316AE0083124208831648
:100DEA00AD00831241088316AC00831240088316B3
:100DFA00AB000130BA023A0A0319AB2F3A08831240
:100E0A00DC0001300310DC0DFF3E031D072F031029
:100E1A005C0D4F3E84000A128A150A200A128A11B2
:100E2A00F0000A128A150A200A128A11F1000A121F
:100E3A008A150A200A128A11F2000A128A150A2051
:100E4A000A128A11F30083162E08F7002D08F600FD
:100E5A002C08F5002B08F4000A168A11A2270A1298
:100E6A008A117308B4007208B3007108B2007008DE
:100E7A00B1000030F3000030F2000030F1000A3017
:100E8A00F0003408F7003308F6003208F50031089C
:100E9A00F4000A168A11FC260A128A117308B40091
:100EAA007208B3007108B2007008B1003108303E10
:100EBA000A168A11DA250A128A1183163A08831247
:100ECA00DC0001300310DC0DFF3E031D672F031009
:100EDA005C0D4F3E84000A128A150A200A128A11F2
:100EEA00F0000A128A150A200A128A11F1000A125F
:100EFA008A150A200A128A11F2000A128A150A2091
:100F0A000A128A11F30083162E08F7002D08F6003C
:100F1A002C08F5002B08F4000A168A11FC260A127E
:100F2A008A117308AE007208AD007108AC0070082F
:100F3A00FD2E30300A168A11DA250A128A11FF307C
:100F4A008316B8070318B90AFF30B90738083904F5
:100F5A000319AD2A9E2F831638083904031DC12FA1
:100F6A002E082D042C042B04031DC12F0130B807B1
:100F7A000318B90A0030B9073908803A803C031DC2
:100F8A00C82F38083A02031CD92F831603133908CD
:100F9A00803A8312DC0080305C02031DD72F83164F
:100FAA003A083802031CD92F831603132808033979
:100FBA000319AD2A2D300A168A11DA250A128A1166
:100FCA00AD2A08000A128A1105200A128A11E900BC
:100FDA000A128A1106200A128A11EA000A128A11D2
:100FEA000720EB00E401E501E601E701E8018301DE
:100FFA000A128A15A729FF1B0A2883137F18831749
:10100A000008840A0319FF0A080008308A00040845
:10101A00840A82070034003480343F340034203498
:10102A0041340034C834423400347A3444344034CD
:10103A001C3446345034C334473424347434493469
:10104A00973418344B34BC34BE344C346B346E345D
:10105A004E340334153450347934AD346034F334B7
:10106A0049347134003480343F34CD34CC343D3487
:10107A00D73423343C34123483343A34B734D13439
:10108A003834C63427343734383486343534C034A7
:10109A00D6343334CC342B3432347034893430344B
:1010AA00E734DB342E34E5343C341E344234A23483
:1010BA000D3401340034003400340A34003400346E
:1010CA0000346434003400340034E8340334003427
:1010DA0000341034273400340034A0348634013408
:1010EA000034403442340F34003480349634983417
:1010FA0000340034E134F53405340034CA349A3407
:10110A003B344134703470347534793465347A340C
:10111A0020347334753472342034543420347034A7
:10112A006F34753472342034613466346634693409
:10113A00633468346534723420346C346134203456
:10114A00743465346D347034E9347234613474340F
:10115A0075347234653420346F3475342034613414
:10116A00703470347534793465347A342034733495
:10117A007534723420345134203470346F347534F9
:10118A0072342034723465346434E9346D34613431
:10119A0072347234653472340D340A3420340034B3
:1011AA0049346C34203465347334743420343A341A
:1011BA00203425342E343134303473340D34003431
:1011CA00543420343D34203425342E3432346634B9
:1011DA002034B03443340D340A34003428346E34A5
:0A11EA0075346C346C342934003481
:1011F8007808F0007908F100F2018E30FB007B08D6
:10120800F300F4010A128A153B217008F8007108EE
:10121800F9007208FA0008008E30FC007C08FD0016
:10122800FF307B050319262901300310FB0CFA0C4B
:10123800F90CF80CFF3E031D19290130FC007C084D
:10124800FD0714297808F0007908F1007A08F200FF
:101258007D08FC007C08F300F4010A128A153B2182
:101268007008F8007108F9007208FA00080073089D
:1012780003194329720871047004031D56290030AC
:10128800F0000030F1000030F20008000130F500F5
:101298007508F30701300310F20CF10CF00CFF3E57
:1012A800031D4F29FE307205031971294A2901309F
:1012B800F5007508F3070130F00700300318013016
:1012C800F107003003180130F20701300310F20C67
:1012D800F10CF00CFF3E031D6A29FF30720503195B
:1012E80084295B2902307302031C86290130F3022A
:1012F80001300310F00DF10DF20DFF3E031D7D29A5
:10130800F11F762973188E29FF30F0057F30F1051B
:10131800FF30F2050310F30C7308F500F601F7012E
:1013280010300310F50DF60DF70DFF3E031D95293E
:101338007508F0047608F1047708F20474080319B4
:101348000800F21708000A168A11C2250A128A151F
:101358000A168A11E3250A128A150A168A11CA255D
:101368000A128A1577300A128A11A5220A128A15DA
:101378000A168A11BC250A128A15E2006208E700DB
:10138800743067060319CC2954306706031D112AE7
:1013980001300A168A112D260A128A157108F900D9
:1013A8007008F8000A128A15FC200A128A157808B3
:1013B8008312E9007908EA007A08EB00F230F800B5
:1013C8000230F9004030FA006908FB006A08FC00A6
:1013D8006B08FD000A128A1597220A128A157808E6
:1013E8008312E4007908E5007A08E6006408D90069
:1013F8006508DA006608DB00D6300A128A11A522D1
:101408000A128A15823083120313E300DD30E200EA
:10141800E20B0C2AE30B0C2ABC297130670603196E
:10142800192A51306706031DBC290A128A1100289F
:101438004008C4004108C5004208C6000310450D15
:10144800460DC7004708CD004D08031D342A00305B
:10145800C3000030C2000030C1000030C0000800E6
:101468004008C4004108C5004208C60017300310F0
:10147800C60CC50CC40CFF3E031D3B2A4408C7001C
:101488004708C800C117FF30C005FF30C10500304C
:10149800C2054008C9004108CA004208CB00CC0177
:1014A8008E30CD02CD1F6D2A4D08803A8F3E031C29
:1014B8002B2A01300310CC0CCB0CCA0CC90CFF3EF4
:1014C800031D5E2A0130C4004408CD070319802A91
:1014D8005D2A18304D0203182B2A4D080319802A5B
:1014E8000130C4000310C90DCA0DCB0DCC0DC40BBF
:1014F800762A0130CD02712A480803198E2AC909B3
:10150800CA09CB09CC09C90A0319CA0A0319CB0AA3
:101518000319CC0A4C08C3004B08C2004A08C10092
:101528004908C00008007B08A0007C08A1007D08CD
:10153800A2000310210D220DA3002308A8002808EB
:10154800031DAD2A0030F8000030F9000030FA0021
:1015580008007808A0007908A1007A08A200031002
:10156800210D220DA3002308A9002908031DC32A61
:101578000030F8000030F9000030FA0008000030B0
:10158800A5000030A6000030A70089302907A00078
:101598002008A8027D08A0002008A9007A08A00059
:1015A8002008A9068030A0002008A905FC17FF30F4
:1015B800FB05FF30FC050030FD05F917FF30F80585
:1015C800FF30F9050030FA051830A0002008A40003
:1015D80001300310A50DA60DA70DFF3E031DED2A32
:1015E8007A087D02031DFE2A79087C02031DFE2A63
:1015F80078087B02031C0B2B7808FB027908031C74
:10160800790FFC027A08031C7A0AFD0225140130BE
:101618000310FB0DFC0DFD0DFF3E031D0C2B0130CF
:10162800A402031DEC2A2508F0002608F10027086B
:10163800F2002808A0002008F3002908A1002108CA
:10164800F4000A128A153B217008F8007108F900A5
:101658007208FA0008007008F6007108F7007208AE
:10166800F8000310770D780DF90079088312A500AA
:101678002508031D482B0030F3000030F20000302D
:10168800F1000030F00008007308F6007408F70055
:101698007508F8000310770D780DF9007908A40093
:1016A800240803193F2BF117FF30F005FF30F1052F
:1016B8000030F205F417FF30F305FF30F405003071
:1016C800F5050030A3000030A2000030A100003072
:1016D800A0007F30A50298302407F6007608A502FE
:1016E8001830F6007608A4000130F6000310A00DAB
:1016F800A10DA20DA30DF60B7A2B75087202031D1E
:101708008B2B74087102031D8B2B73087002031C4A
:10171800982B7308F0027408031C740FF102750803
:10172800031C750AF202201401300310F00DF10DAC
:10173800F20DFF3E031D992B0130A402031D782BE7
:10174800A51FBB2B2508803A973E031C3F2B013071
:101758000310A30CA20CA10CA00CFF3E031DAC2B84
:101768000130F6007608A5070319CE2BAB2B1830ED
:10177800250203183F2B25080319CE2B0130F6004C
:101788000310A00DA10DA20DA30DF60BC42B013063
:10179800A502BF2B2308F3002208F2002108F1005C
:1017A8002008F00008002708AD002808AE00290826
:1017B800AF0003102E0D2F0DB0003008B100310816
:1017C800031DED2B0030A7000030A8000030A90051
:1017D80008002A08AD002B08AE002C08AF00031043
:1017E8002E0D2F0DB0003008B6003608031D032C4F
:1017F8000030A7000030A8000030A9000800360813
:101808007B3EAD002D08B1072908AD002D08B600B4
:101818002C08AD002D08B6068030AD002D08B605A1
:10182800A817AB17FF30AA05FF30AB050030AC0591
:101838000030B2000030B3000030B4000730AD0013
:101848002D08B500271C362C2A08B2072B080311CF
:1018580003182B0A031DB3072C08031103182C0ABD
:10186800031DB40701300310A90CA80CA70CFF3EF8
:10187800031D372C01300310AA0DAB0DAC0DFF3E34
:10188800031D3F2C0130B502031D262C0930AD0085
:101898002D08B500271C5E2C2A08B2072B08031157
:1018A80003182B0A031DB3072C08031103182C0A6D
:1018B800031DB40701300310A90CA80CA70CFF3EA8
:1018C800031D5F2C01300310B40CB30CB20CFF3EA7
:1018D800031D672C0130B502031D4E2C3208F000A1
:1018E8003308F1003408F2003108AD002D08F30088
:1018F8003608AE002E08F4000A128A153B2170083B
:101908008312A7007108A8007208A90008004608F9
:10191800CC004708CD004808CE0003104D0D4E0DF1
:10192800CF004F08D2004908CC004A08CD004B0828
:10193800CE0003104D0D4E0DCF004F08D1005208B8
:101948000319B22C510852020318B92C5108CC00C3
:101958005208CC0219304C02031CB92C4908C600A5
:101968004A08C7004B08C8000800510803190800B6
:10197800520851020318C82C5208CC005108CC0256
:1019880019304C02031808000630CC004C08D0006F
:10199800C81BD017CB1B5017C717FF30C605FF3021
:1019A800C7050030C805CA17FF30C905FF30CA058A
:1019B8000030CB05510852020318082D01300310DE
:1019C800C90DCA0DCB0DFF3E031DE32C0130D1021A
:1019D800510852060319032D0130D0025008073967
:1019E8000319032DE22C01300310C80CC70CC60CD8
:1019F800FF3E031DF82C0130CC004C08D2075208DA
:101A080051060319312DF72C520851020318312DB4
:101A180001300310C60DC70DC80DFF3E031D0D2D67
:101A28000130D2025108520603192D2D0130D0027F
:101A38005008073903192D2D0C2D01300310CB0C3C
:101A4800CA0CC90CFF3E031D222D0130CC004C08E6
:101A5800D10752085106031D212DD01F432DFF30F9
:101A6800C606FF30C706FF30C8060130C60700307B
:101A780003180130C707003003180130C807501F8A
:101A8800552DFF30C906FF30CA06FF30CB0601309E
:101A9800C907003003180130CA07003003180130A5
:101AA800CB07D0014608C907470803110318470A9E
:101AB800031DCA07480803110318480A031DCB076A
:101AC800CB1F782DFF30C906FF30CA06FF30CB0682
:101AD8000130C907003003180130CA070030031865
:101AE8000130CB07D001D00A4908F0004A08F100BC
:101AF8004B08F2005208CC004C08F3005008CD0007
:101B08004D08F4000A128A153B2170088312C6009A
:101B18007108C7007208C800080070308400000807
:101B2800F600840A0008F700840A0008F800840A0E
:101B38000008F9000310780D790DFA007A0883126D
:101B48000313A5002508031DB22D0030F300003053
:101B5800F2000030F1000030F0000800733084001B
:101B68000008F600840A0008F700840A0008F80054
:101B7800840A0008F9000310780D790DFA007A0834
:101B8800A40024080319A92D7030840000308004B3
:101B9800840A00308004840A80308004840A00307B
:101BA800800470308400FF308005840AFF3080058F
:101BB800840AFF308005840A003080057330840071
:101BC80000308004840A00308004840A8030800455
:101BD800840A0030800473308400FF308005840A52
:101BE800FF308005840AFF308005840A00308005B4
:101BF8000030A3000030A2000030A1000030A00097
:101C08007F30A502A0302407F6007608A502203010
:101C1800F6007608A4000130F6000310A00DA10D0F
:101C2800A20DA30DF60B112E733084000008F600E8
:101C3800840A0008F700840A0008F800840A0008EB
:101C4800F900703084000008FA00840A0008FB00DC
:101C5800840A0008FC00840A0008FD0079087D0257
:101C6800031D402E78087C02031D402E77087B0256
:101C7800031D402E76087A02031C652E73308400FB
:101C88000008F600840A0008F700840A0008F80033
:101C9800840A0008F9007030840076088002840AFB
:101CA8007708031C770F8002840A7808031C780FD2
:101CB8008002840A7908031C790A800203308402AE
:101CC8002014703084000310800D840A800D840A6B
:101CD800800D840A800D8403840384030130A402E8
:101CE800031D0F2EA51F8D2E2508803A9F3E031C2D
:101CF800A92D01300310A30CA20CA10CA00CFF3ECF
:101D0800031D7E2E0130F6007608A5070319A02EC4
:101D18007D2E203025020318A92D25080319A02E91
:101D28000130F6000310A00DA10DA20DA30DF60BB6
:101D3800962E0130A502912E2308F3002208F20006
:101D48002108F1002008F00008008312C5006E3059
:101D58004502031C5F2F0330BA003A08A4000A307A
:101D6800BB003B08F7006430BC003C08F0004508A5
:101D78000A168A118E260A128A150A168A116D26E3
:101D88000A128A150A168A11FF250A128A15433E75
:101D980084000A128A150A200A128A15A7000A1254
:101DA8008A150A200A128A15A8000A128A150A201A
:101DB8000A128A15A9000330BD003D08A40064304A
:101DC800BE003E08F70045080A168A116D260A1259
:101DD8008A150A168A11FF250A128A155E3E8400A2
:101DE8000A128A150A200A128A15AA000A128A15E6
:101DF8000A200A128A15AB000A128A150A200A124A
:101E08008A15AC000A128A15D7230A128A152708E0
:101E1800C2002808C3002908C4000330BA003A08E1
:101E2800A4000A30BB003B08F00045080A168A11D6
:101E38008E260A128A150A168A11FF250A128A1591
:101E4800283E84000A128A150A200A128A15A70059
:101E58000A128A150A200A128A15A8000A128A1577
:101E68000A200A128A15A9004208AA004308AB00F2
:101E78004408AC000A128A15D7230A128A152708C3
:101E8800BF002808C0002908C1000030A7000030A2
:101E9800A8003F30A9003F08AA004008AB0041084D
:101EA800AC000A128A15D7232708B7002808B800FB
:101EB8002908B90008000B304502031CD22F033053
:101EC800BA003A08A4000A30BB003B08F0004508F5
:101ED8000A168A118E260A128A150A168A11FF25F1
:101EE8000A128A15283E84000A128A150A200A1244
:101EF8008A15A7000A128A150A200A128A15A8004C
:101F08000A128A150A200A128A15A9000330BC0091
:101F18003C08A4000A30BD003D08F70045080A1631
:101F28008A116D260A128A150A168A11FF250A12C5
:101F38008A15433E84000A128A150A200A128A1555
:101F4800AA000A128A150A200A128A15AB000A1278
:101F58008A150A200A128A15AC000A128A15D72394
:101F68000A128A152708C2002808C3002908C400D5
:101F78000030A7000030A8003F30A9004208AA009E
:101F88004308AB004408AC000A128A15D723270877
:101F9800B7002808B8002908B90008000030A700D1
:101FA8000030A8003F30A9000330BA003A08A40066
:101FB80045080A168A11FF250A128A15283E840048
:101FC8000A128A150A200A128A15AA000A128A1504
:101FD8000A200A128A15AB000A128A150A200A1268
:101FE8008A15AC000A128A15D7232708B7002808D3
:081FF800B8002908B900080037
:102B7800831203138C1EBC2D1A08080083168801C3
:102B8800851403178814031307130800C0309F0027
:102B9800803083169F0083121F1408007208710486
:102BA8007004031908008030F2060800F00083164C
:102BB8000313981CDB2D7008831299000800193044
:102BC8009900243098008030831298008316981654
:102BD80018158312981718160800F100F0013A30FA
:102BE80071020318FD2D30307102031CFD2DF00118
:102BF800F00A700C0800A600A501261C072E240860
:102C0800FC007C08A5070310A40D0310A60C2608D9
:102C1800031D012E25080800550854045304031900
:102C2800172E8030D5065608C6005708C700580822
:102C3800C8005308C9005408CA005508CB000A1236
:102C48008A158B244608D3004708D4004808D500C5
:102C58000800F4000F30F2007208F405C330F200E7
:102C680072089F057408F20001300310F20DFF3E50
:102C7800031D392E0310720DF30073089F049F146F
:102C88009F18442E1E08F10083161E08F000080045
:102C9800F401F501701C562E7208F4070318F50AA2
:102CA8007308F50701300310F20DF30DFF3E031D05
:102CB800572E01300310F10CF00CFF3E031D5E2E61
:102CC80070087104031D4E2E7508F1007408F00099
:102CD8000800F900FB01770803198C2EFA01FA0A9B
:102CE800F71B7D2E0310F70D0130F8007808FA075E
:102CF800742E0310FB0D77087902031C872E7708C2
:102D0800F9027B140310F70C0130FA02031D7D2E23
:102D18007B080800F4000830F1007108F500F6019E
:102D28007408F10007300310F10CFF3E031D972EC5
:102D38007608F20072077104F3007308F6000310B6
:102D4800F40D70087602031CAB2E7008F6020130F1
:102D5800F502031D942E76080800F601F31FBB2E1A
:102D6800F209F309F20A0319F30AF601F60AF11F48
:102D7800C22EF009F109F00A0319F10A700871046A
:102D88000319EF2EF501F50AF11BD62E01300310B9
:102D9800F00DF10DFF3E031DCB2E0130F400740839
:102DA800F507C82E71087302031DDC2E7008720225
:102DB800031CE42E7008F2027108031CF303F302EB
:102DC80001300310F10CF00CFF3E031DE52E01301D
:102DD800F502031DD62E76080319F72EF209F3091A
:102DE800F20A0319F30A7308F1007208F0000800E8
:102DF800730872047104700403193F2FF901F90A6A
:102E0800F31B142F0130F8000310F00DF10DF20D33
:102E1800F30DF80B082F0130F8007808F907042F94
:102E280073087702031D222F72087602031D222FD2
:102E380071087502031D222F70087402031C322FBB
:102E48007008F4027108031C710FF5027208031C64
:102E5800720FF6027308031C730FF7020130031098
:102E6800F30CF20CF10CF00CFF3E031D332F013074
:102E7800F902031D142F7708F3007608F20075088D
:102E8800F1007408F00008008312A101F81F532F05
:102E9800F709F809F70A0319F80AA101A10AFA1FA4
:102EA8005E2FF909FA09F90A0319FA0A0130FB0039
:102EB8007B08A106A201A301770878040319952FBE
:102EC800A001A00AF81B742F01300310F70DF80DAC
:102ED800FF3E031D692F0130FB007B08A007662F0A
:102EE80001300310A20DA30DFF3E031D752F7808B6
:102EF8007A02031D812F77087902031C8A2F77082D
:102F0800F9027808031CFA03FA02221401300310AC
:102F1800F80CF70CFF3E031D8B2F0130A002031D98
:102F2800742F210803199D2FA209A309A20A0319C6
:102F3800A30A2308F8002208F70008000030FC0064
:102F48000030FB000030FA000030F900730872040A
:102F5800710470040319F72FFD01FD0AF31BC22F3A
:102F68000130F8000310F00DF10DF20DF30DF80B20
:102F7800B62F0130F8007808FD07B22F0130F800AD
:102F88000310F90DFA0DFB0DFC0DF80BC42F730897
:102F98007702031DD92F72087602031DD92F7108F5
:102FA8007502031DD92F70087402031CEA2F7008DC
:102FB800F4027108031C710FF5027208031C720FEA
:102FC800F6027308031C730FF7027914013003101B
:102FD800F30CF20CF10CF00CFF3E031DEB2F01304B
:102FE800FD02031DC22F7C08F3007B08F2007A085B
:082FF800F1007908F000080067
:04400E00E2EFFFFFDF
:00000001FF
