:100000000A128A11F02FF21F12287008003CF0002B
:100010007108031C710F003CF1007208031C720F81
:10002000803CF200F51F21287308003CF30074089F
:10003000031C740F003CF4007508031C750F803C12
:10004000F5008030F2068030F50675087202031D57
:10005000080074087102031D08007308700208008C
:100060002708AD002808AE002908AF0003102E0DA8
:100070002F0DB0003008B1003108031D46280030B4
:10008000A7000030A8000030A90008002A08AD0031
:100090002B08AE002C08AF0003102E0D2F0DB00062
:1000A0003008B6003608031D5C280030A700003079
:1000B000A8000030A900080036087B3EAD002D08DE
:1000C000B1072908AD002D08B6002C08AD002D0899
:1000D000B6068030AD002D08B605A817AB17FF3067
:1000E000AA05FF30AB050030AC050030B20000308F
:1000F000B3000030B4000730AD002D08B500271C58
:100100008F282A08B2072B08031103182B0A031D96
:10011000B3072C08031103182C0A031DB407013080
:100120000310A90CA80CA70CFF3E031D902801305A
:100130000310AA0DAB0DAC0DFF3E031D9828013036
:10014000B502031D7F280930AD002D08B500271C1E
:10015000B7282A08B2072B08031103182B0A031D1E
:10016000B3072C08031103182C0A031DB407013030
:100170000310A90CA80CA70CFF3E031DB8280130E2
:100180000310B40CB30CB20CFF3E031DC0280130A9
:10019000B502031DA7283208F0003308F100340827
:1001A000F2003108AD002D08F3003608AE002E082D
:1001B000F4000A128A150E2070088312A700710835
:1001C000A8007208A90008008312C5006E3045021D
:1001D000031CA6290330BA003A08A4000A30BB0069
:1001E0003B08F7006430BC003C08F00045080A16E4
:1001F0008A1163260A128A110A168A1142260A12E5
:100200008A110A168A11A5250A128A11543E840001
:1002100090300318013EFF000A168A1100200A12CE
:100220008A11A7000A168A1100200A128A11A80052
:100230000A168A1100200A128A11A9000330BD0093
:100240003D08A4006430BE003E08F70045080A16C9
:100250008A1142260A128A110A168A11A5250A1243
:100260008A116F3E840090300318013EFF000A1689
:100270008A1100200A128A11AA000A168A11002087
:100280000A128A11AB000A168A1100200A128A117A
:10029000AC000A128A1130200A128A112708C20003
:1002A0002808C3002908C4000330BA003A08A40093
:1002B0000A30BB003B08F00045080A168A11632685
:1002C0000A128A110A168A11A5250A128A11393EC4
:1002D000840090300318013EFF000A168A110020A6
:1002E0000A128A11A7000A168A1100200A128A111E
:1002F000A8000A168A1100200A128A11A9004208D1
:10030000AA004308AB004408AC000A128A1130204E
:100310000A128A112708BF002808C0002908C10056
:100320000030A7000030A8003F30A9003F08AA0015
:100330004008AB004108AC000A128A11302027089F
:10034000B7002808B8002908B90008000B3045029A
:10035000031C212A0330BA003A08A4000A30BB006B
:100360003B08F00045080A168A1163260A128A1112
:100370000A168A11A5250A128A11393E8400903086
:100380000318013EFF000A168A1100200A128A1182
:10039000A7000A168A1100200A128A11A8000A165C
:1003A0008A1100200A128A11A9000330BC003C08FF
:1003B000A4000A30BD003D08F70045080A168A115E
:1003C00042260A128A110A168A11A5250A128A11D2
:1003D000543E840090300318013EFF000A168A1133
:1003E00000200A128A11AA000A168A1100200A1295
:1003F0008A11AB000A168A1100200A128A11AC0079
:100400000A128A1130200A128A112708C20028080D
:10041000C3002908C4000030A7000030A8003F3006
:10042000A9004208AA004308AB004408AC000A1225
:100430008A1130202708B7002808B8002908B90019
:1004400008000030A7000030A8003F30A9000330AA
:10045000BA003A08A40045080A168A11A5250A120E
:100460008A11393E840090300318013EFF000A16BD
:100470008A1100200A128A11AA000A168A11002085
:100480000A128A11AB000A168A1100200A128A1178
:10049000AC000A128A1130202708B7002808B800DB
:1004A0002908B90008005B30E00060088316A70047
:1004B00083125A08E1005908E000D90A0319DA0A40
:1004C0006108FF00600884000A168A1100200A12E1
:1004D0008A11E20062088316B9003908031908007E
:1004E000253039060319762A3908E92FA801A90110
:1004F00083125A08FF00590884000A168A11002046
:100500000A128A112E3A031DD52A831629170130A3
:100510008312D9070318DA0A0030DA078316B70105
:10052000B80183125A08FF00590884000A168A117C
:1005300000200A128A110A128A1500200A128A1152
:10054000031C642B0A30F0000030F10083163808D9
:10055000F3003708F2000A168A1121260A128A11BE
:100560007108B8007008B70083125A08FF005908D4
:1005700084000A168A1100200A128A11D03EE00077
:10058000FF3003180030E10060088316B707031836
:10059000B80A831261088316B80701308312D9079D
:1005A0000318DA0A0030DA07912A8316B701B80176
:1005B0002916642B2915842B27088400831300082F
:1005C000A5000030A60001308312E0006008831609
:1005D000A70725082604031DF12A0F30A500913036
:1005E000A600A301A40123082507840026080318F8
:1005F000260A8312FF000A168A1100200A128A11A5
:10060000003A03190B2B01308316A3070318A40A21
:100610000030A407F32A8316370838040319262B61
:100620003808803A8312E00083162408803A831247
:100630006002031D1E2B8316230837020318262B86
:10064000831603133808A4003708A300013083166B
:100650000313A3020030031CA403A402230A0319FA
:10066000240A0319582A26088312FF008316250836
:10067000840083120A168A1100200A128A110A16AF
:100680008A117D250A128A1101308316A5070318E5
:10069000A60A0030A607262B27088400831300082B
:1006A0008312E00060088316B90002308312E00074
:1006B00060088316A707B930A5000030A6000130F6
:1006C000A3000030A4000B2B83125A08E100590844
:1006D000E000D90A0319DA0A6108FF006008840003
:1006E0000A168A1100200A128A118316B900003AEC
:1006F0000319EF2F633A03194C2B053A0319DA2A31
:10070000153A0319DC2A5B2B003028058312E00020
:100710000730831629058312E1006008610403197C
:10072000B92F8316291E982B0630B7000030B80069
:100730002708840083130008B400840A0008B50069
:10074000840A0008B60003308312E00060088316B4
:10075000A7073408F0003508F1003608F200003031
:10076000F3000030F4000030F5000A128A11032073
:100770000A128A110318D22B83163408F0003508A8
:10078000F1003608F2000A168A1175250A128A113C
:100790007008B4007108B5007208B6000330A804F0
:1007A0000030A9048316AE01AF01360835043404C5
:1007B0000319A22CB4308400831300088312E000D4
:1007C000840A0008E100840A0008E200840A0008A4
:1007D000E3000F300310E30CE20CE10CE00CFF3EF1
:1007E000031DEA2BFF306005E40000306105E500E1
:1007F0006408823E8316AE00831265080318013E2A
:10080000FF3E8316AF00FF30AE070318AF0AFF307C
:10081000AF070330F0000030F1002F08F3002E087E
:10082000F2000A168A1121260A128A117108AF00F5
:100830007008AE000A30F7000030F8002F08FA0008
:100840002E08F9000A168A1148270A128A11780818
:100850008316AF007708AE00AF1F342CFF30AE0711
:100860000318AF0AFF30AF072E03FF3A0A128A15AA
:100870005A250A128A1137088316B00083123808E5
:100880008316B100831239088316B200340883122C
:10089000A700831635088312A80083163608831232
:1008A000A900831630088312AA0083163108831228
:1008B000AB00831632088312AC000A128A11302072
:1008C0000A128A1127088316B0008312280883169B
:1008D000B100831229088316B2003008F0003108F5
:1008E000F1003208F2000030F3008030F4003F30B5
:1008F000F5000A128A1103200A128A110318872CA4
:10090000FF308316AE070318AF0AFF30A12C831601
:100910003008F0003108F1003208F2000030F30036
:100920002030F4004130F5000A128A1103200A1227
:100930008A11031CA22C01308316AE070318AF0ADC
:100940000030AF0783163808803AFF0080307F02FE
:10095000031DAC2C0D3037020318D82C831603135B
:1009600037080A128A11E4200A128A113708C600D1
:100970003808C7003908C800831634088312C90034
:10098000831635088312CA00831636088312CB00FB
:100990000A128A1535220A128A1146088316B400F3
:1009A000831247088316B500831248088316B600E1
:1009B000831603132F08803AFF0080307F02031D47
:1009C000E32C0A302E0203180E2D8316031336086B
:1009D0003504340403195E2D34088312C0008316D5
:1009E00035088312C100831636088312C2000A122A
:1009F0008A157A200A128A114308420441044004ED
:100A0000031D5E2D83162F08803AFF0080307F0281
:100A1000031D0C2D02302E02031C5E2D83160313C2
:100A20003008F0003108F1003208F2007030F300B5
:100A30008930F4004030F5000A128A1103200A12AE
:100A40008A110318252DF730262DF8308316AE07AE
:100A50000318AF0AFF30AF072E080A128A155A256D
:100A60000A128A1137088316B000831238088316D9
:100A7000B100831239088316B2003408F00035083B
:100A8000F1003608F2003008F3003108F4003208B3
:100A9000F5000A128A158D210A128A11730883162D
:100AA000AD007208AC007108AB007008AA000030FD
:100AB000B4000030B5000030B600B12D831603132A
:100AC00034088312C000831635088312C1008316D0
:100AD00036088312C2000A128A157A200A128A1175
:100AE00043088316AD00831242088316AC008312BC
:100AF00041088316AB00831240088316AA002D0814
:100B0000FB002C08FA002B08F9002A08F8000A1646
:100B10008A1186260A128A1178088312D30079086E
:100B2000D4007A08D500831634088312D6008316C1
:100B300035088312D700831636088312D8000A16A8
:100B40008A11E4250A128A1153088316B40083120D
:100B500054088316B500831255088316B600AE01FB
:100B6000AF01B901B90A0A3039060319012E390853
:100B70008312E00001300310E00DFF3E031DBB2D8A
:100B80000310600D603E840090300318013EFF00AA
:100B90000A168A1100200A128A11E1000A168A1127
:100BA00000200A128A11E2000A168A1100200A1295
:100BB0008A11E3000A168A1100200A128A11E40041
:100BC000640883162D02031DF52D83126308831616
:100BD0002C02031DF52D8312620883162B02031DC0
:100BE000F52D8312610883162A02031C012E0130A1
:100BF0008312E00060088316B9070A303906031D26
:100C0000B72D2808033903190B2E2D300A168A1127
:100C10007D250A128A1101308316B902390A031997
:100C20007D2E39088312E00001300310E00DFF3EF5
:100C3000031D152E0310600D603E840090300318D4
:100C4000013EFF000A168A1100200A128A11F000E4
:100C50000A168A1100200A128A11F1000A168A1156
:100C600000200A128A11F2000A168A1100200A12C4
:100C70008A11F30083162D08F7002C08F6002B08C4
:100C8000F5002A08F4000A168A11A2270A128A110E
:100C90007308B3007208B2007108B1007008B000A8
:100CA0000030F3000030F2000030F1000A30F000B4
:100CB0003308F7003208F6003108F5003008F40078
:100CC0000A168A11FC260A128A117308B3007208E8
:100CD000B2007108B1007008B0003008303E062E36
:100CE00030300A168A117D250A128A11FF308316C8
:100CF000AE070318AF0AFF30AF072F08803AFF0096
:100D000080307F02031D862E01302E020318702EC4
:100D1000831603133808803AFF0080307F02031DDA
:100D2000932E09303702031C992E083083120313C7
:100D30009D2E8316031337088312E0006008831684
:100D4000B90039088312E000E10160088316B70298
:100D5000831261088316031CB803B802390803190B
:100D6000B72E2E300A168A117D250A128A11831693
:100D700039080A128A155A250A128A113708831669
:100D8000A000831238088316A10083123908831645
:100D9000A20020088312AA00831621088312AB0048
:100DA000831622088312AC00831634088312A7002E
:100DB000831635088312A800831636088312A9000B
:100DC0000A128A1130200A128A112708C000280846
:100DD000C1002908C2000A128A157A200A128A1153
:100DE00043088316AD00831242088316AC008312B9
:100DF00041088316AB00831240088316AA00013015
:100E0000B902390A0319B42F39088312E0000130FE
:100E10000310E00DFF3E031D082F0310600D603E20
:100E2000840090300318013EFF000A168A1100204A
:100E30000A128A11F0000A168A1100200A128A1179
:100E4000F1000A168A1100200A128A11F2000A160D
:100E50008A1100200A128A11F30083162D08F70068
:100E60002C08F6002B08F5002A08F4000A168A114F
:100E7000A2270A128A117308B3007208B20071081F
:100E8000B1007008B0000030F3000030F200003014
:100E9000F1000A30F0003308F7003208F60031089C
:100EA000F5003008F4000A168A11FC260A128A118D
:100EB0007308B3007208B2007108B1007008B00086
:100EC0003008303E0A168A117D250A128A118316CF
:100ED00039088312E00001300310E00DFF3E031DCE
:100EE0006C2F0310600D603E840090300318013EAB
:100EF000FF000A168A1100200A128A11F0000A1651
:100F00008A1100200A128A11F1000A168A110020A3
:100F10000A128A11F2000A168A1100200A128A1196
:100F2000F30083162D08F7002C08F6002B08F500B7
:100F30002A08F4000A168A11FC260A128A1173087C
:100F4000AD007208AC007108AB007008FE2E3030A6
:100F50000A168A117D250A128A11FF308316B707F7
:100F60000318B80AFF30B807370838040319582A9D
:100F7000A72F831637083804031DCA2F2D082C0409
:100F80002B042A04031DCA2F0130B7070318B80A1F
:100F90000030B8073808803A803C031DD12F37084D
:100FA0003902031CE22F831603133808803A831298
:100FB000E00080306002031DE02F831639083702FD
:100FC000031CE22F83160313280803390319582A38
:100FD0002D300A168A117D250A128A11582A080016
:100FE00083120313E601E701E801E901EA01EB01DD
:100FF000EC01ED01EE01EF0183010A128A153B2B92
:10100000F100F0013A30710203180C2830307102FF
:10101000031C0C28F001F00A700C08007308031977
:101020001628720871047004031D29280030F0008E
:101030000030F1000030F20008000130F5007508C2
:10104000F30701300310F20CF10CF00CFF3E031D0E
:101050002228FE307205031944281D280130F500AE
:101060007508F3070130F007003003180130F1076D
:10107000003003180130F20701300310F20CF10CBC
:10108000F00CFF3E031D3D28FF3072050319572861
:101090002E2802307302031C59280130F30201305C
:1010A0000310F00DF10DF20DFF3E031D5028F11F4E
:1010B000492873186128FF30F0057F30F105FF30B3
:1010C000F2050310F30C7308F500F601F701103078
:1010D0000310F50DF60DF70DFF3E031D682875088A
:1010E000F0047608F1047708F20474080319080084
:1010F000F21708004008C4004108C5004208C600B5
:101100000310450D460DC7004708CD004D08031DCF
:1011100092280030C3000030C2000030C10000300F
:10112000C00008004008C4004108C5004208C600CD
:1011300017300310C60CC50CC40CFF3E031D9928C4
:101140004408C7004708C800C117FF30C005FF307A
:10115000C1050030C2054008C9004108CA00420864
:10116000CB00CC018E30CD02CD1FCB284D08803A6C
:101170008F3E031C892801300310CC0CCB0CCA0C09
:10118000C90CFF3E031DBC280130C4004408CD0734
:101190000319DE28BB2818304D02031889284D0892
:1011A0000319DE280130C4000310C90DCA0DCB0D90
:1011B000CC0DC40BD4280130CD02CF284808031928
:1011C000EC28C909CA09CB09CC09C90A0319CA0AFA
:1011D0000319CB0A0319CC0A4C08C3004B08C20000
:1011E0004A08C1004908C00008007B08A0007C082C
:1011F000A1007D08A2000310210D220DA3002308E9
:10120000A8002808031D0B290030F8000030F90061
:101210000030FA0008007808A0007908A1007A08D8
:10122000A2000310210D220DA3002308A900290804
:10123000031D21290030F8000030F9000030FA00C9
:1012400008000030A5000030A6000030A70089305B
:101250002907A0002008A8027D08A0002008A900F6
:101260007A08A0002008A9068030A0002008A9055F
:10127000FC17FF30FB05FF30FC050030FD05F917BA
:10128000FF30F805FF30F9050030FA051830A000EE
:101290002008A40001300310A50DA60DA70DFF3EE8
:1012A000031D4B297A087D02031D5C2979087C0205
:1012B000031D5C2978087B02031C69297808FB025E
:1012C0007908031C790FFC027A08031C7A0AFD02D4
:1012D000251401300310FB0DFC0DFD0DFF3E031D19
:1012E0006A290130A402031D4A292508F0002608B6
:1012F000F1002708F2002808A0002008F3002908C0
:10130000A1002108F4000A128A150E207008F800C6
:101310007108F9007208FA0008007008F6007108F8
:10132000F7007208F8000310770D780DF9007908BE
:101330008312A5002508031DA6290030F300003004
:10134000F2000030F1000030F00008007308F600F1
:101350007408F7007508F8000310770D780DF90090
:101360007908A400240803199D29F117FF30F0051E
:10137000FF30F1050030F205F417FF30F305FF30C0
:10138000F4050030F5050030A3000030A200003065
:10139000A1000030A0007F30A50298302407F6009D
:1013A0007608A5021830F6007608A4000130F60091
:1013B0000310A00DA10DA20DA30DF60BD8297508E1
:1013C0007202031DE92974087102031DE9297308DB
:1013D0007002031CF6297308F0027408031C740FD2
:1013E000F1027508031C750AF20220140130031083
:1013F000F00DF10DF20DFF3E031DF7290130A4029F
:10140000031DD629A51F192A2508803A973E031CDB
:101410009D2901300310A30CA20CA10CA00CFF3ECF
:10142000031D0A2A0130F6007608A50703192C2AA5
:10143000092A1830250203189D29250803192C2A8A
:101440000130F6000310A00DA10DA20DA30DF60BA7
:10145000222A0130A5021D2A2308F3002208F200E7
:101460002108F1002008F00008004608CC004708D9
:10147000CD004808CE0003104D0D4E0DCF004F0893
:10148000D2004908CC004A08CD004B08CE0003101A
:101490004D0D4E0DCF004F08D100520803195C2AA4
:1014A000510852020318632A5108CC005208CC029A
:1014B00019304C02031C632A4908C6004A08C700B9
:1014C0004B08C800080051080319080052085102CF
:1014D0000318722A5208CC005108CC0219304C0271
:1014E000031808000630CC004C08D000C81BD017E9
:1014F000CB1B5017C717FF30C605FF30C70500309C
:10150000C805CA17FF30C905FF30CA050030CB0532
:10151000510852020318B22A01300310C90DCA0D36
:10152000CB0DFF3E031D8D2A0130D102510852061A
:101530000319AD2A0130D002500807390319AD2A2A
:101540008C2A01300310C80CC70CC60CFF3E031DCB
:10155000A22A0130CC004C08D207520851060319C8
:10156000DB2AA12A520851020318DB2A013003109A
:10157000C60DC70DC80DFF3E031DB72A0130D202AC
:10158000510852060319D72A0130D00250080739F2
:101590000319D72AB62A01300310CB0CCA0CC90C88
:1015A000FF3E031DCC2A0130CC004C08D107520865
:1015B0005106031DCB2AD01FED2AFF30C606FF308F
:1015C000C706FF30C8060130C607003003180130D7
:1015D000C707003003180130C807501FFF2AFF302B
:1015E000C906FF30CA06FF30CB060130C9070030FC
:1015F00003180130CA07003003180130CB07D001AF
:101600004608C907470803110318470A031DCA07FC
:10161000480803110318480A031DCB07CB1F222BD0
:10162000FF30C906FF30CA06FF30CB060130C907BC
:10163000003003180130CA07003003180130CB070F
:10164000D001D00A4908F0004A08F1004B08F20026
:101650005208CC004C08F3005008CD004D08F400AF
:101660000A128A150E2070088312C6007108C7007E
:101670007208C80008000A168A1194250A128A15F1
:101680000A168A1186250A128A150A168A116D25EC
:101690000A128A158830D9009030DA000A128A11AD
:1016A00053220A128A1501300A168A1101260A12DB
:1016B0008A157108F9007008F8000A168A11B62513
:1016C0000A128A1578088312E9007908EA007A0874
:1016D000EB00F230F8000230F9004030FA006908FF
:1016E000FB006A08FC006B08FD000A128A15F52051
:1016F0000A128A1578088312E9007908EA007A0844
:10170000EB000A168A1169250A128A150A168A112F
:10171000CA250A128A1578088312E6007908E700BC
:101720007A08E8006908F0006A08F1006B08F20026
:101730000030F3008830F4004130F5000A128A11BD
:1017400003200A128A15031CAE2B4430831267064D
:101750004230031968066604031DB92B831207146F
:10176000BD30D9009030DA000A128A1153220A12D1
:101770008A1583126908F0006A08F1006B08F2000C
:101780000030F300A030F4004130F5000A128A1155
:1017900003200A128A15031CD82B83120710A830C5
:1017A000D9009030DA000A128A1153220A128A15DF
:1017B0000030F000C830F1004130F20083126908B7
:1017C000F3006A08F4006B08F5000A128A1103207E
:1017D0000A128A15031CF52B483083126706423023
:1017E000031968066604031D002C83128714003059
:1017F000D9009130DA000A128A1153220A128A158E
:101800000030F000B030F1004130F200831269087E
:10181000F3006A08F4006B08F5000A128A1103202D
:101820000A128A15031C1F2C83128710D130D9008D
:101830009030DA000A128A1153220A128A154030B7
:1018400083126706403003196806660403190715FA
:10185000803067064030031968066604031D332C88
:10186000071087100711F130D9009030DA006908AD
:10187000DB006A08DC006B08DD00F830DE000030B9
:10188000DF004E2B703084000008F600840A000848
:10189000F700840A0008F800840A0008F900031021
:1018A000780D790DFA007A0883120313A500250834
:1018B000031D632C0030F3000030F2000030F10013
:1018C0000030F0000800733084000008F600840A3D
:1018D0000008F700840A0008F800840A0008F900EC
:1018E0000310780D790DFA007A08A4002408031972
:1018F0005A2C7030840000308004840A0030800448
:10190000840A80308004840A0030800470308400AF
:10191000FF308005840AFF308005840AFF3080058F
:10192000840A003080057330840000308004840A0B
:1019300000308004840A80308004840A00308004EF
:1019400073308400FF308005840AFF308005840AEC
:10195000FF308005840A003080050030A30000308D
:10196000A2000030A1000030A0007F30A502A0300E
:101970002407F6007608A5022030F6007608A400B9
:101980000130F6000310A00DA10DA20DA30DF60B62
:10199000C22C733084000008F600840A0008F700A7
:1019A000840A0008F800840A0008F90070308400F6
:1019B0000008FA00840A0008FB00840A0008FC0002
:1019C000840A0008FD0079087D02031DF12C7808C7
:1019D0007C02031DF12C77087B02031DF12C760895
:1019E0007A02031C162D733084000008F600840A66
:1019F0000008F700840A0008F800840A0008F900CB
:101A00007030840076088002840A7708031C770F00
:101A10008002840A7808031C780F8002840A7908FF
:101A2000031C790A80020330840220147030840081
:101A30000310800D840A800D840A800D840A800DB5
:101A40008403840384030130A402031DC02CA51F5A
:101A50003E2D2508803A9F3E031C5A2C013003106E
:101A6000A30CA20CA10CA00CFF3E031D2F2D0130D6
:101A7000F6007608A5070319512D2E2D20302502DA
:101A800003185A2C25080319512D0130F6000310B4
:101A9000A00DA10DA20DA30DF60B472D0130A5023F
:101AA000422D2308F3002208F2002108F10020084B
:101AB000F00008008312BF00BF1FB02EBF09BF0A8D
:101AC0003F08803A123E031C1F2E0330BA003A082A
:101AD000A4000A30F7000030F8003F08F200F301DC
:101AE000F21BF3036430F0000030F1000A168A1193
:101AF000B1260A128A157108FA007008F9000A1650
:101B00008A1148270A128A157708093E0A168A118F
:101B1000A5250A128A15393E840090300318013E2B
:101B2000FF000A168A1100200A128A15A7000A1659
:101B30008A1100200A128A15A8000A168A110020AC
:101B40000A128A15A9000330BB003B08A4006430C8
:101B5000F7000030F8003F08F900FA01F91BFA031A
:101B60000A168A1148270A128A157708123E0A16A1
:101B70008A11A5250A128A15393E8400903003186F
:101B8000013EFF000A168A1100200A128A15AA00D7
:101B90000A168A1100200A128A15AB000A168A1149
:101BA00000200A128A15AC000A128A1130200A128B
:101BB0008A152708BC002808BD002908BE0003308C
:101BC000BA003A08A4003F08F200F301F21BF30345
:101BD0000A30F0000030F1000A168A11B1260A120C
:101BE0008A1570080A168A11A5250A128A15393E27
:101BF000840090300318013EFF000A168A1100206D
:101C00000A128A15A7000A168A1100200A128A15DC
:101C1000A8000A168A1100200A128A15A9003C0899
:101C2000AA003D08AB003E08AC000A128A11302021
:101C30002708B7002808B8002908B90008003F089D
:101C4000803A753E031C8F2E0330BA003A08A40078
:101C50003F08F200F301F21BF3030A30F0000030FA
:101C6000F1000A168A11B1260A128A1570080A169E
:101C70008A11A5250A128A15393E8400903003186E
:101C8000013EFF000A168A1100200A128A15A700D9
:101C90000A168A1100200A128A15A8000A168A114B
:101CA00000200A128A15A9000330BB003B08A400DB
:101CB0000A30F7000030F8003F08F900FA01F91B7C
:101CC000FA030A168A1148270A128A157708093E6C
:101CD0000A168A11A5250A128A15393E8400903009
:101CE0000318013EFF000A168A1100200A128A1505
:101CF000AA000A168A1100200A128A15AB000A16D9
:101D00008A1100200A128A15AC000A128A113020AA
:101D10002708B7002808B8002908B90008000330D0
:101D2000BA003A08A4003F080A168A11A5250A122B
:101D30008A15393E840090300318013EFF000A16D0
:101D40008A1100200A128A15B7000A168A1100208B
:101D50000A128A15B8000A168A110020B900080074
:101D60003F08803A123E031C6F2F0330BA003A0836
:101D7000A4000A30F7000030F8003F08F200F30139
:101D8000F21BF3036430F0000030F1000A168A11F0
:101D9000B1260A128A157108FA007008F9000A16AD
:101DA0008A1148270A128A157708093E0A168A11ED
:101DB000A5250A128A15123E840090300318013EB0
:101DC000FF000A168A1100200A128A15A7000A16B7
:101DD0008A1100200A128A15A8000A168A1100200A
:101DE0000A128A15A9000330BB003B08A400643026
:101DF000F7000030F8003F08F900FA01F91BFA0378
:101E00000A168A1148270A128A157708123E0A16FE
:101E10008A11A5250A128A15123E840090300318F3
:101E2000013EFF000A168A1100200A128A15AA0034
:101E30000A168A1100200A128A15AB000A168A11A6
:101E400000200A128A15AC000A128A1130200A12E8
:101E50008A152708BC002808BD002908BE000330E9
:101E6000BA003A08A4003F08F200F301F21BF303A2
:101E70000A30F0000030F1000A168A11B1260A1269
:101E80008A1570080A168A11A5250A128A15123EAB
:101E9000840090300318013EFF000A168A110020CA
:101EA0000A128A15A7000A168A1100200A128A153A
:101EB000A8000A168A1100200A128A15A9003C08F7
:101EC000AA003D08AB003E08AC000A128A1130207F
:101ED0002708B7002808B8002908B90008003F08FB
:101EE000803A753E031CDF2F0330BA003A08A40085
:101EF0003F08F200F301F21BF3030A30F000003058
:101F0000F1000A168A11B1260A128A1570080A16FB
:101F10008A11A5250A128A15123E840090300318F2
:101F2000013EFF000A168A1100200A128A15A70036
:101F30000A168A1100200A128A15A8000A168A11A8
:101F400000200A128A15A9000330BB003B08A40038
:101F50000A30F7000030F8003F08F900FA01F91BD9
:101F6000FA030A168A1148270A128A157708093EC9
:101F70000A168A11A5250A128A15123E840090308D
:101F80000318013EFF000A168A1100200A128A1562
:101F9000AA000A168A1100200A128A15AB000A1636
:101FA0008A1100200A128A15AC000A128A11302008
:101FB0002708B7002808B8002908B900080003302E
:101FC000BA003A08A4003F080A168A11A5250A1289
:101FD0008A15123E840090300318013EFF000A1655
:101FE0008A1100200A128A15B7000A168A110020E9
:101FF0000A128A15B8000A168A110020B9000800D2
:10200000FF1B0A2883137F1883170008840A03190B
:10201000FF0A08007F087F398A000408840A031930
:10202000FF0A8200003480343F34003420344134CD
:102030000034C834423400347A34443440341C34DC
:1020400046345034C33447342434743449349734D8
:1020500018344B34BC34BE344C346B346E344E3490
:102060000334153450347934AD346034F3344934A6
:102070007134003480343F34CD34CC343D34D734E3
:1020800023343C34123483343A34B734D1343834C2
:10209000C63427343734383486343534C034D634F3
:1020A0003334CC342B343234703489343034E73424
:1020B000DB342E34E5343C341E344234A2340D3447
:1020C00001340034003400340A3400340034003465
:1020D0006434003400340034E83403340034003411
:1020E0001034273400340034A034863401340034F2
:1020F000403442340F340034803496349834003401
:102100000034E134F53405340034CA349A343B34B5
:10211000563461346C34653475347234733420341D
:1021200064346934733470346F346E3469346234B7
:102130006C346534733420343A34203431342C34E4
:1021400032342C3433342C3434340D340A340034E7
:102150004C344534443452342F346334683461345D
:1021600075346634663461346734653420346F34D2
:10217000663466340D340A3400344C344534443407
:1021800052342F34633468346134753466346634C1
:1021900061346734653420346F346E340D340A345E
:1021A00000344C344534443442342F3463346C347A
:1021B00069346D3420346F34663466340D340A3437
:1021C000003449346C34203465347334743420342E
:1021D0003A34203425342E343134303473340D34D1
:1021E0000034543420343D34203425342E343234F9
:1021F000663420342534633443340D340A340034D7
:102200004C344534443442342F3463346C346934B0
:102210006D3420346F346E340D340A340034283475
:0C2220006E3475346C346C342934003496
:102AD2008C1E692D1A080800C0309F0080308316B2
:102AE2009F0083121F1408007208710470040319F6
:102AF20008008030F2060800F00083160313981CC9
:102B02007E2D700883129900080019309900243034
:102B12009800803083129800831698161815831235
:102B22009817181608008701831688018514031761
:102B320088148312031387018316870107108710F5
:102B42000711071387170800A600A501261CAD2D43
:102B52002408FC007C08A5070310A40D0310A60C92
:102B62002608031DA72D250808007808F00079081B
:102B7200F100F2018E30FB007B08F300F4010A122F
:102B82008A150E207008F8007108F9007208FA0020
:102B92000800FB007B08A000A101A2012008F000B0
:102BA2002108F1002208F2008E30A3002308F3006E
:102BB200F4010A128A150E207008F8007108F90053
:102BC2007208FA0008005508540453040319EB2D47
:102BD2008030D5065608C6005708C7005808C800F6
:102BE2005308C9005408CA005508CB000A128A15B6
:102BF20035224608D3004708D4004808D50008000B
:102C0200F4000F30F2007208F405C330F2007208CB
:102C120083129F057408F20001300310F20DFF3E8B
:102C2200031D0E2E0310720DF30073089F049F14F0
:102C32009F18192E1E08F10083161E08F0000800C6
:102C4200F401F501701C2B2E7208F4070318F50A23
:102C52007308F50701300310F20DF30DFF3E031D5B
:102C62002C2E01300310F10CF00CFF3E031D332E0D
:102C720070087104031D232E7508F1007408F0001A
:102C82000800F900FB0177080319612EFA01FA0A1C
:102C9200F71B522E0310F70D0130F8007808FA07DF
:102CA200492E0310FB0D77087902031C5C2E77086E
:102CB200F9027B140310F70C0130FA02031D522EA5
:102CC2007B080800F4000830F1007108F500F601F5
:102CD2007408F10007300310F10CFF3E031D6C2E47
:102CE2007608F20072077104F3007308F60003100D
:102CF200F40D70087602031C802E7008F602013073
:102D0200F502031D692E760808008E30FC007C084F
:102D1200FD00FF307B0503199C2E01300310FB0CD4
:102D2200FA0CF90CF80CFF3E031D8F2E0130FC004B
:102D32007C08FD078A2E7808F0007908F1007A08ED
:102D4200F2007D08FC007C08F300F4010A128A15E7
:102D52000E207008F8007108F9007208FA000800E5
:102D6200F601F31FBB2EF209F309F20A0319F30A63
:102D7200F601F60AF11FC22EF009F109F00A031951
:102D8200F10A700871040319EF2EF501F50AF11B1F
:102D9200D62E01300310F00DF10DFF3E031DCB2E98
:102DA2000130F4007408F507C82E71087302031D80
:102DB200DC2E70087202031CE42E7008F202710805
:102DC200031CF303F30201300310F10CF00CFF3E7D
:102DD200031DE52E0130F502031DD62E76080319D8
:102DE200F72EF209F309F20A0319F30A7308F10044
:102DF2007208F00008007308720471047004031969
:102E02003F2FF901F90AF31B142F0130F8000310C8
:102E1200F00DF10DF20DF30DF80B082F0130F80053
:102E22007808F907042F73087702031D222F72080E
:102E32007602031D222F71087502031D222F7008CE
:102E42007402031C322F7008F4027108031C710F04
:102E5200F5027208031C720FF6027308031C730F4B
:102E6200F70201300310F30CF20CF10CF00CFF3EF0
:102E7200031D332F0130F902031D142F7708F300CD
:102E82007608F2007508F1007408F0000800831259
:102E9200A101F81F532FF709F809F70A0319F80AD5
:102EA200A101A10AFA1F5E2FF909FA09F90A031909
:102EB200FA0A0130FB007B08A106A201A3017708F0
:102EC20078040319952FA001A00AF81B742F013072
:102ED2000310F70DF80DFF3E031D692F0130FB00B3
:102EE2007B08A007662F01300310A20DA30DFF3E41
:102EF200031D752F78087A02031D812F7708790246
:102F0200031C8A2F7708F9027808031CFA03FA02D5
:102F1200221401300310F80CF70CFF3E031D8B2F17
:102F22000130A002031D742F210803199D2FA2094D
:102F3200A309A20A0319A30A2308F8002208F7002A
:102F420008000030FC000030FB000030FA000030C6
:102F5200F90073087204710470040319F72FFD015C
:102F6200FD0AF31BC22F0130F8000310F00DF10D22
:102F7200F20DF30DF80BB62F0130F8007808FD07BB
:102F8200B22F0130F8000310F90DFA0DFB0DFC0D04
:102F9200F80BC42F73087702031DD92F720876022B
:102FA200031DD92F71087502031DD92F70087402F1
:102FB200031CEA2F7008F4027108031C710FF5025A
:102FC2007208031C720FF6027308031C730FF702D8
:102FD200791401300310F30CF20CF10CF00CFF3EEB
:102FE200031DEB2F0130FD02031DC22F7C08F300ED
:0E2FF2007B08F2007A08F1007908F000080070
:04400E00E2EFFFFFDF
:00000001FF
