:060000000A128A11F02F24
:10000800F100F0013A307102031810283030710203
:10001800031C1028F001F00A700C08008312BF00BE
:10002800BF1F4D29BF09BF0A3F08803A123E031C73
:10003800C9280330BA003A08A4003F08F200F301C7
:10004800F21BF3036430F0000030F1000A168A1145
:100058000F270A128A117108FA007008F9000A308D
:10006800F7000030F8000A168A11A6270A128A112A
:1000780077080A168A11D6250A128A11433E840087
:100088000A128A150A200A128A11A7000A128A156A
:100098000A200A128A11A8000A128A150A200A12CE
:1000A8008A11A9000330BB003B08A4003F08F900EF
:1000B800FA01F91BFA036430F7000030F8000A1659
:1000C8008A11A6270A128A1177080A168A11D625D4
:1000D8000A128A115E3E84000A128A150A200A1240
:1000E8008A11AA000A128A150A200A128A11AB007C
:1000F8000A128A150A200A128A11AC000A128A15F5
:10010800D7230A128A112708BC002808BD0029082D
:10011800BE000330BA003A08A4003F08F200F30119
:10012800F21BF3030A30F0000030F1000A168A11BE
:100138000F270A128A1170080A168A11D6250A1280
:100148008A11283E84000A128A150A200A128A1186
:10015800A7000A128A150A200A128A11A8000A1290
:100168008A150A200A128A11A9003C08AA003D082B
:10017800AB003E08AC000A128A15D7232708B7003F
:100188002808B8002908B90008003F08803A753ED9
:10019800031C30290330BA003A08A4003F08F200D3
:1001A800F301F21BF3030A30F0000030F1000A16E5
:1001B8008A110F270A128A1170080A168A11D62581
:1001C8000A128A11283E84000A128A150A200A1285
:1001D8008A11A7000A128A150A200A128A11A80091
:1001E8000A128A150A200A128A11A9000330BB00D4
:1001F8003B08A4003F08F900FA01F91BFA030A308A
:10020800F7000030F8000A168A11A6270A128A1188
:1002180077080A168A11D6250A128A11433E8400E5
:100228000A128A150A200A128A11AA000A128A15C5
:100238000A200A128A11AB000A128A150A200A1229
:100248008A11AC000A128A15D7232708B700280894
:10025800B8002908B90008000330BA003A08A40019
:100268003F080A168A11D6250A128A11283E8400E8
:100278000A128A150A200A128A11B7000A128A1568
:100288000A200A128A11B8000A128A150A20B9002F
:1002980008003F08803A123E031CFE290330BA00CA
:1002A8003A08A4003F08F200F301F21BF30364309C
:1002B800F0000030F1000A168A110F270A128A117D
:1002C8007108FA007008F9000A30F7000030F800E9
:1002D8000A168A11A6270A128A1177080A168A119D
:1002E800D6250A128A111C3E84000A128A150A2091
:1002F8000A128A11A7000A128A150A200A128A11FC
:10030800A8000A128A150A200A128A11A9000330C5
:10031800BB003B08A4003F08F900FA01F91BFA03E7
:100328006430F7000030F8000A168A11A6270A126E
:100338008A1177080A168A11D6250A128A11373EB9
:1003480084000A128A150A200A128A11AA000A12BF
:100358008A150A200A128A11AB000A128A150A2085
:100368000A128A11AC000A128A15D7230A128A11B6
:100378002708BC002808BD002908BE000330BA00C1
:100388003A08A4003F08F200F301F21BF3030A3015
:10039800F0000030F1000A168A110F270A128A119C
:1003A80070080A168A11D6250A128A11013E84009D
:1003B8000A128A150A200A128A11A7000A128A1537
:1003C8000A200A128A11A8000A128A150A200A129B
:1003D8008A11A9003C08AA003D08AB003E08AC0001
:1003E8000A128A15D7232708B7002808B800290851
:1003F800B90008003F08803A753E031C652A03309F
:10040800BA003A08A4003F08F200F301F21BF30314
:100418000A30F0000030F1000A168A110F270A127C
:100428008A1170080A168A11D6250A128A11013E05
:1004380084000A128A150A200A128A11A7000A12D1
:100448008A150A200A128A11A8000A128A150A2097
:100458000A128A11A9000330BB003B08A4003F0818
:10046800F900FA01F91BFA030A30F7000030F80026
:100478000A168A11A6270A128A1177080A168A11FB
:10048800D6250A128A111C3E84000A128A150A20EF
:100498000A128A11AA000A128A150A200A128A1157
:1004A800AB000A128A150A200A128A11AC000A1235
:1004B8008A15D7232708B7002808B8002908B900E3
:1004C80008000330BA003A08A4003F080A168A1147
:1004D800D6250A128A11013E84000A128A150A20BA
:1004E8000A128A11B7000A128A150A200A128A11FA
:1004F800B8000A128A150A20B90008008316AA0053
:1005080059308312DE005E088316A7000130831677
:10051800AA07FF302A0784000A128A150A200A123D
:100528008A118312DE005E088316BA003A0803199E
:10053800080025303A060319A32A3A08E92FA8012A
:10054800A9012A0884000A128A150A200A128A11A7
:100558002E3A031DF52A291701308312DE005E08A2
:100568008316AA07B801B9012A0884000A128A1555
:100578000A200A128A110A128A1104200A128A1100
:10058800031C832B0A30F0000030F1003908F30017
:100598003808F2000A168A1152260A128A117108BE
:1005A800B9007008B8002A0884000A128A150A20BF
:1005B8000A128A11D03E8312DE00FF300318003081
:1005C800DF005E088316B8070318B90A83125F08AC
:1005D8008316B90701308312DE005E088316AA0766
:1005E800B82AB801B9012916832B29159B2B27088E
:1005F800840083130008A5000030A6000130831290
:10060800DE005E088316A70725082604031D102BA5
:10061800B630A5008030A600A301A4012308250751
:10062800840026080318260A8312FF000A128A1576
:1006380000200A128A11003A03192A2B0130831666
:10064800A3070318A40A0030A407122B831638083E
:1006580039040319452B3908803A8312DE008316C2
:100668002408803A83125E02031D3D2B831623085B
:1006780038020318452B831603133908A4003808D9
:10068800A300013083160313A3020030031CA40344
:10069800A402230A0319240A03198A2A26088312A2
:1006A800FF0083162508840083120A128A15002089
:1006B8000A128A110A168A11AE250A128A11013005
:1006C8008316A5070318A60A0030A607452B270896
:1006D8008400831300088312DE005E088316BA00C4
:1006E80002308312DE005E088316A707BA30A50021
:1006F8000030A6000130A3000030A4002A2B0130EE
:10070800AA07FF302A0784000A128A150A200A124B
:100718008A11BA00003A0319EF2F633A03196B2BB9
:10072800053A0319F92A153A0319FB2A7A2B0030DE
:1007380028058312DE000730831629058312DF009F
:100748005E085F040319B92F8316291EAF2B0630E4
:10075800B8000030B9002708840083130008B500EA
:10076800840A0008B600840A0008B7000330831220
:10077800DE005E088316A7073508F0003608F1008A
:100788003708F2000030F3000030F4000030F500C4
:100798000A168A11E2260A128A110318E82B35086C
:1007A800F0003608F1003708F2000A168A11A6256B
:1007B8000A128A117008B5007108B6007208B700ED
:1007C8000330A8040030A904AF01B001370836048B
:1007D80035040319B42CB530840083130008831240
:1007E800DE00840A0008DF00840A0008E000840AAA
:1007F8000008E1000F300310E10CE00CDF0CDE0C08
:10080800FF3E031DFF2BFF305E05E20000305F0551
:10081800E3006208823E8316AF0083126308031860
:10082800013EFF3E8316B000FF30AF070318B00A41
:10083800FF30B0070330F0000030F1003008F3005B
:100848002F08F2000A168A1152260A128A11710814
:10085800B0007008AF000A30F7000030F800300828
:10086800FA002F08F9000A168A11A6270A128A1117
:1008780078088316B0007708AF00B01F492CFF3006
:10088800AF070318B00AFF30B0072F03FF3A0A1268
:100898008A1112200A128A1137088316B1008312AE
:1008A80038088316B200831239088316B300350856
:1008B8008312A700831636088312A8008316370808
:1008C8008312A900831631088312AA0083163208FE
:1008D8008312AB00831633088312AC000A128A1500
:1008E800D7230A128A1127088316B1008312280811
:1008F8008316B200831229088316B3003108F0006A
:100908003208F1003308F2000030F3008030F400C0
:100918003F30F5000A168A11E2260A128A110318D6
:100928009B2CFF30AF070318B00AFF30B32C3108F7
:10093800F0003208F1003308F2000030F3002030F4
:10094800F4004130F5000A168A11E2260A128A11CB
:10095800031CB42C0130AF070318B00A0030B007ED
:100968003908803AFF0080307F02031DBD2C0D300E
:1009780038020318E92C8316031338080A128A155B
:10098800A9260A128A113708C6003808C70039088C
:10099800C800831635088312C900831636088312E7
:1009A800CA00831637088312CB000A128A158B24D3
:1009B8000A128A1146088316B5008312470883165F
:1009C800B600831248088316B7008316031330084D
:1009D800803AFF0080307F02031DF42C0A302F027A
:1009E80003181F2D8316031337083604350403191B
:1009F8006E2D35088312C000831636088312C10095
:100A0800831637088312C2000A128A1599210A121E
:100A18008A114308420441044004031D6E2D8316C5
:100A28003008803AFF0080307F02031D1D2D023000
:100A38002F02031C6E2D831603133108F0003208B1
:100A4800F1003308F2007030F3008930F4004030D0
:100A5800F5000A168A11E2260A128A110318362DA1
:100A6800F730372DF830AF070318B00AFF30B0075A
:100A78002F080A128A1112200A128A1137088316BF
:100A8800B100831238088316B2008312390883161E
:100A9800B3003508F0003608F1003708F2003108D5
:100AA800F3003208F4003308F5000A128A152F23E0
:100AB8000A128A1173088316AE007208AD00710815
:100AC800AC007008AB000030B5000030B600003054
:100AD800B700C12D8316031335088312C00083168F
:100AE80036088312C100831637088312C2000A121F
:100AF8008A1599210A128A1143088316AE008312B7
:100B080042088316AD00831241088316AC00831295
:100B180040088316AB002E08FB002D08FA002C08AD
:100B2800F9002B08F8000A168A11B7260A128A114A
:100B380078088312D3007908D4007A08D500831680
:100B480035088312D600831636088312D700831619
:100B580037088312D8000A168A1115260A128A1134
:100B680053088316B500831254088316B6008312FF
:100B780055088316B700AF01B001BA01BA0A0A30A6
:100B88003A0603190D2E3A088312DE0001300310CD
:100B9800DE0DFF3E031DCB2D03105E0D4F3E84007E
:100BA8000A128A150A200A128A11DF000A128A1507
:100BB8000A200A128A11E0000A128A150A200A126B
:100BC8008A11E1000A128A150A200A128A11E20023
:100BD800620883162E02031D012E831261088316F4
:100BE8002D02031D012E8312600883162C02031D9B
:100BF800012E83125F0883162B02031C0D2E013071
:100C08008312DE005E088316BA070A303A06031D0F
:100C1800C72D280803390319172E2D300A168A11F3
:100C2800AE250A128A1101308316BA023A0A03194C
:100C3800852E3A088312DE0001300310DE0DFF3ED8
:100C4800031D212E03105E0D4F3E84000A128A15E3
:100C58000A200A128A11F0000A128A150A200A12BA
:100C68008A11F1000A128A150A200A128A11F20062
:100C78000A128A150A200A128A11F30083162E080E
:100C8800F7002D08F6002C08F5002B08F4000A12CE
:100C98008A15CF200A128A117308B4007208B300AB
:100CA8007108B2007008B1000030F3000030F200A3
:100CB8000030F1000A30F0003408F7003308F6007D
:100CC8003208F5003108F4000A168A115A270A1268
:100CD8008A117308B4007208B3007108B200700872
:100CE800B1003108303E122E30300A168A11AE2576
:100CF8000A128A11FF308316AF070318B00AFF30B3
:100D0800B0073008803AFF0080307F02031D8E2E26
:100D180001302F020318782E831603133908803AFE
:100D2800FF0080307F02031D9B2E09303802031C10
:100D3800A12E083083120313A52E83160313380837
:100D48008312DE005E088316BA003A088312DE00BA
:100D5800DF015E088316B80283125F088316031C3E
:100D6800B903B9023A080319BF2E2E300A168A11A0
:100D7800AE250A128A1183163A080A128A1112201D
:100D88000A128A1137088316A000831238088316BE
:100D9800A100831239088316A20020088312AA0032
:100DA800831621088312AB00831622088312AC0035
:100DB800831635088312A700831636088312A80005
:100DC800831637088312A9000A128A15D7230A1234
:100DD8008A112708C0002808C1002908C2000A1281
:100DE8008A1599210A128A1143088316AE008312C4
:100DF80042088316AD00831241088316AC008312A3
:100E080040088316AB000130BA023A0A0319B42F1E
:100E18003A088312DE0001300310DE0DFF3E031D89
:100E2800102F03105E0D4F3E84000A128A150A2007
:100E38000A128A11F0000A128A150A200A128A1167
:100E4800F1000A128A150A200A128A11F2000A12FF
:100E58008A150A200A128A11F30083162E08F70051
:100E68002D08F6002C08F5002B08F4000A128A1544
:100E7800CF200A128A117308B4007208B3007108EF
:100E8800B2007008B1000030F3000030F20000300A
:100E9800F1000A30F0003408F7003308F600320891
:100EA800F5003108F4000A168A115A270A128A1125
:100EB8007308B4007208B3007108B2007008B1007A
:100EC8003108303E0A168A11AE250A128A11831695
:100ED8003A088312DE0001300310DE0DFF3E031DC9
:100EE800702F03105E0D4F3E84000A128A150A20E7
:100EF8000A128A11F0000A128A150A200A128A11A7
:100F0800F1000A128A150A200A128A11F2000A123E
:100F18008A150A200A128A11F30083162E08F70090
:100F28002D08F6002C08F5002B08F4000A168A1183
:100F38005A270A128A117308AE007208AD007108A8
:100F4800AC007008062F30300A168A11AE250A1236
:100F58008A11FF308316B8070318B90AFF30B9079A
:100F68003808390403198A2AA72F83163808390440
:100F7800031DCA2F2E082D042C042B04031DCA2F71
:100F88000130B8070318B90A0030B9073908803AA0
:100F9800803C031DD12F38083A02031CE22F831628
:100FA80003133908803A8312DE0080305E02031D85
:100FB800E02F83163A083802031CE22F8316031326
:100FC8002808033903198A2A2D300A168A11AE25F2
:100FD8000A128A118A2A080083120313E401E50120
:100FE800E601E701E801E901EA01EB01EC01ED01A5
:100FF80083010A128A15142AFF1B0A2883137F18F3
:1010080083170008840A0319FF0A080008308A00B9
:101018000408840A82070034003480343F340034E2
:10102800203441340034C834423400347A344434EF
:1010380040341C3446345034C33447342434743474
:101048004934973418344B34BC34BE344C346B3484
:101058006E344E340334153450347934AD3460343E
:10106800F33449347134003480343F34CD34CC34D3
:101078003D34D73423343C34123483343A34B734CF
:10108800D1343834C6342734373438348634353498
:10109800C034D6343334CC342B34323470348934BD
:1010A8003034E734DB342E34E5343C341E344234F7
:1010B800A2340D3401340034003400340A340034CE
:1010C800003400346434003400340034E834033429
:1010D800003400341034273400340034A03486340B
:1010E80001340034403442340F34003480349634B0
:1010F800983400340034E134F53405340034CA340B
:101108009A343B34563461346C34653475347234F3
:101118007334203464346934733470346F346E3407
:10112800693462346C346534733420343A3420348E
:1011380031342C3432342C3433342C3434340D34AC
:101148000A34003449346C342034653473347434CC
:1011580020343A34203425342E3431343034733446
:101168000D340034543420343D34203425342E34A6
:101178003234663420342534633443340D340A342D
:10118800003428346E3475346C346C3429340034AB
:10119E000030FC000030FB000030FA000030F90097
:1011AE00730872047104700403192429FD01FD0AE9
:1011BE00F31BEF280130F8000310F00DF10DF20DC6
:1011CE00F30DF80BE3280130F8007808FD07DF284F
:1011DE000130F8000310F90DFA0DFB0DFC0DF80BA4
:1011EE00F12873087702031D062972087602031D83
:1011FE00062971087502031D062970087402031C66
:10120E0017297008F4027108031C710FF502720899
:10121E00031C720FF6027308031C730FF702791486
:10122E0001300310F30CF20CF10CF00CFF3E031D19
:10123E0018290130FD02031DEF287C08F3007B08FE
:10124E00F2007A08F1007908F0000800730803191B
:10125E003529720871047004031D48290030F0000E
:10126E000030F1000030F20008000130F500750882
:10127E00F30701300310F20CF10CF00CFF3E031DCE
:10128E004129FE307205031963293C290130F5000E
:10129E007508F3070130F007003003180130F1072D
:1012AE00003003180130F20701300310F20CF10C7C
:1012BE00F00CFF3E031D5C29FF30720503197629E1
:1012CE004D2902307302031C78290130F3020130DC
:1012DE000310F00DF10DF20DFF3E031D6F29F11FEE
:1012EE00682973188029FF30F0057F30F105FF3033
:1012FE00F2050310F30C7308F500F601F701103038
:10130E000310F50DF60DF70DFF3E031D8729750829
:10131E00F0047608F1047708F20474080319080043
:10132E00F21708004008C4004108C5004208C60074
:10133E000310450D460DC7004708CD004D08031D8F
:10134E00B1290030C3000030C2000030C1000030AF
:10135E00C00008004008C4004108C5004208C6008D
:10136E0017300310C60CC50CC40CFF3E031DB82964
:10137E004408C7004708C800C117FF30C005FF303A
:10138E00C1050030C2054008C9004108CA00420824
:10139E00CB00CC018E30CD02CD1FEA294D08803A0C
:1013AE008F3E031CA82901300310CC0CCB0CCA0CA9
:1013BE00C90CFF3E031DDB290130C4004408CD07D4
:1013CE000319FD29DA2918304D020318A8294D08F2
:1013DE000319FD290130C4000310C90DCA0DCB0D30
:1013EE00CC0DC40BF3290130CD02EE2948080319A8
:1013FE000B2AC909CA09CB09CC09C90A0319CA0A99
:10140E000319CB0A0319CC0A4C08C3004B08C200BF
:10141E004A08C1004908C00008000A168A11C525ED
:10142E000A128A150A168A11B7250A128A150A1681
:10143E008A119E250A128A1577300A128A11822283
:10144E000A128A1501300A168A1132260A128A15D4
:10145E007108F9007008F8000A168A11E7250A12B9
:10146E008A1578088312E7007908E8007A08E900FF
:10147E00F230F8000230F9004030FA006708FB0045
:10148E006808FC006908FD000A128A1597220A12E4
:10149E008A1578088312E7007908E8007A08E900CF
:1014AE000A168A119A250A128A150A168A11FB251E
:1014BE000A128A1578088312E4007908E5007A0882
:1014CE00E6004430650642300319660664040319CB
:1014DE000714483065064230031966066404031982
:1014EE0087144C30650642300319660664040319EE
:1014FE000715503065064230031966066404031D55
:10150E008B2A0710871007116708D9006808DA00C0
:10151E006908DB00F830DC000030DD00A730242A3B
:10152E007B08A0007C08A1007D08A2000310210DFD
:10153E00220DA3002308A8002808031DAD2A0030A1
:10154E00F8000030F9000030FA0008007808A0001A
:10155E007908A1007A08A2000310210D220DA30024
:10156E002308A9002908031DC32A0030F800003003
:10157E00F9000030FA0008000030A5000030A60087
:10158E000030A70089302907A0002008A8027D0896
:10159E00A0002008A9007A08A0002008A906803023
:1015AE00A0002008A905FC17FF30FB05FF30FC0545
:1015BE000030FD05F917FF30F805FF30F905003052
:1015CE00FA051830A0002008A40001300310A50D64
:1015DE00A60DA70DFF3E031DED2A7A087D02031D01
:1015EE00FE2A79087C02031DFE2A78087B02031C62
:1015FE000B2B7808FB027908031C790FFC027A0882
:10160E00031C7A0AFD02251401300310FB0DFC0D9C
:10161E00FD0DFF3E031D0C2B0130A402031DEC2A11
:10162E002508F0002608F1002708F2002808A0007F
:10163E002008F3002908A1002108F4000A128A15D7
:10164E002D217008F8007108F9007208FA000800E0
:10165E007008F6007108F7007208F8000310770D95
:10166E00780DF90079088312A5002508031D482B73
:10167E000030F3000030F2000030F1000030F000D6
:10168E0008007308F6007408F7007508F8000310D8
:10169E00770D780DF9007908A400240803193F2B63
:1016AE00F117FF30F005FF30F1050030F205F417A9
:1016BE00FF30F305FF30F4050030F5050030A300D0
:1016CE000030A2000030A1000030A0007F30A50243
:1016DE0098302407F6007608A5021830F600760832
:1016EE00A4000130F6000310A00DA10DA20DA30D54
:1016FE00F60B7A2B75087202031D8B2B7408710280
:10170E00031D8B2B73087002031C982B7308F002B9
:10171E007408031C740FF1027508031C750AF2029B
:10172E00201401300310F00DF10DF20DFF3E031DDC
:10173E00992B0130A402031D782BA51FBB2B250866
:10174E00803A973E031C3F2B01300310A30CA20CD2
:10175E00A10CA00CFF3E031DAC2B0130F600760849
:10176E00A5070319CE2BAB2B1830250203183F2BE0
:10177E0025080319CE2B0130F6000310A00DA10D84
:10178E00A20DA30DF60BC42B0130A502BF2B23080F
:10179E00F3002208F2002108F1002008F0000800F2
:1017AE002708AD002808AE002908AF0003102E0D43
:1017BE002F0DB0003008B1003108031DED2B0030A5
:1017CE00A7000030A8000030A90008002A08AD00CC
:1017DE002B08AE002C08AF0003102E0D2F0DB000FD
:1017EE003008B6003608031D032C0030A700003069
:1017FE00A8000030A900080036087B3EAD002D0879
:10180E00B1072908AD002D08B6002C08AD002D0833
:10181E00B6068030AD002D08B605A817AB17FF3001
:10182E00AA05FF30AB050030AC050030B200003029
:10183E00B3000030B4000730AD002D08B500271CF2
:10184E00362C2A08B2072B08031103182B0A031D86
:10185E00B3072C08031103182C0A031DB40701301B
:10186E000310A90CA80CA70CFF3E031D372C01304A
:10187E000310AA0DAB0DAC0DFF3E031D3F2C013026
:10188E00B502031D262C0930AD002D08B500271C0E
:10189E005E2C2A08B2072B08031103182B0A031D0E
:1018AE00B3072C08031103182C0A031DB4070130CB
:1018BE000310A90CA80CA70CFF3E031D5F2C0130D2
:1018CE000310B40CB30CB20CFF3E031D672C013099
:1018DE00B502031D4E2C3208F0003308F100340817
:1018EE00F2003108AD002D08F3003608AE002E08C8
:1018FE00F4000A128A152D2170088312A7007108B0
:10190E00A8007208A90008004608CC004708CD00C0
:10191E004808CE0003104D0D4E0DCF004F08D200DB
:10192E004908CC004A08CD004B08CE0003104D0DDF
:10193E004E0DCF004F08D10052080319B22C51089A
:10194E0052020318B92C5108CC005208CC0219309F
:10195E004C02031CB92C4908C6004A08C7004B08A4
:10196E00C800080051080319080052085102031854
:10197E00C82C5208CC005108CC0219304C02031866
:10198E0008000630CC004C08D000C81BD017CB1B6B
:10199E005017C717FF30C605FF30C7050030C80502
:1019AE00CA17FF30C905FF30CA050030CB055108F4
:1019BE0052020318082D01300310C90DCA0DCB0DAC
:1019CE00FF3E031DE32C0130D102510852060319CC
:1019DE00032D0130D002500807390319032DE22CD4
:1019EE0001300310C80CC70CC60CFF3E031DF82CAB
:1019FE000130CC004C08D207520851060319312D84
:101A0E00F72C520851020318312D01300310C60D68
:101A1E00C70DC80DFF3E031D0D2D0130D20251081A
:101A2E00520603192D2D0130D00250080739031923
:101A3E002D2D0C2D01300310CB0CCA0CC90CFF3E02
:101A4E00031D222D0130CC004C08D107520851063F
:101A5E00031D212DD01F432DFF30C606FF30C706B4
:101A6E00FF30C8060130C607003003180130C70723
:101A7E00003003180130C807501F552DFF30C9061E
:101A8E00FF30CA06FF30CB060130C90700300318FD
:101A9E000130CA07003003180130CB07D0014608C9
:101AAE00C907470803110318470A031DCA07480848
:101ABE0003110318480A031DCB07CB1F782DFF30E7
:101ACE00C906FF30CA06FF30CB060130C907003009
:101ADE0003180130CA07003003180130CB07D001BC
:101AEE00D00A4908F0004A08F1004B08F2005208EB
:101AFE00CC004C08F3005008CD004D08F4000A123B
:101B0E008A152D2170088312C6007108C70072084D
:101B1E00C8000800703084000008F600840A00082F
:101B2E00F700840A0008F800840A0008F900031080
:101B3E00780D790DFA007A0883120313A500250893
:101B4E00031DB22D0030F3000030F2000030F10022
:101B5E000030F0000800733084000008F600840A9C
:101B6E000008F700840A0008F800840A0008F9004B
:101B7E000310780D790DFA007A08A40024080319D1
:101B8E00A92D7030840000308004840A0030800457
:101B9E00840A80308004840A00308004703084000F
:101BAE00FF308005840AFF308005840AFF308005EF
:101BBE00840A003080057330840000308004840A6B
:101BCE0000308004840A80308004840A003080044F
:101BDE0073308400FF308005840AFF308005840A4C
:101BEE00FF308005840A003080050030A3000030ED
:101BFE00A2000030A1000030A0007F30A502A0306E
:101C0E002407F6007608A5022030F6007608A40018
:101C1E000130F6000310A00DA10DA20DA30DF60BC1
:101C2E00112E733084000008F600840A0008F700B5
:101C3E00840A0008F800840A0008F9007030840055
:101C4E000008FA00840A0008FB00840A0008FC0061
:101C5E00840A0008FD0079087D02031D402E7808D5
:101C6E007C02031D402E77087B02031D402E760852
:101C7E007A02031C652E733084000008F600840A75
:101C8E000008F700840A0008F800840A0008F9002A
:101C9E007030840076088002840A7708031C770F60
:101CAE008002840A7808031C780F8002840A79085F
:101CBE00031C790A800203308402201470308400E1
:101CCE000310800D840A800D840A800D840A800D15
:101CDE008403840384030130A402031D0F2EA51F69
:101CEE008D2E2508803A9F3E031CA92D013003102E
:101CFE00A30CA20CA10CA00CFF3E031D7E2E0130E6
:101D0E00F6007608A5070319A02E7D2E2030250299
:101D1E000318A92D25080319A02E0130F600031073
:101D2E00A00DA10DA20DA30DF60B962E0130A5024E
:101D3E00912E2308F3002208F2002108F10020085A
:101D4E00F00008008312C5006E304502031C5F2FA1
:101D5E000330BA003A08A4000A30BB003B08F70073
:101D6E006430BC003C08F00045080A168A1194261F
:101D7E000A128A150A168A1173260A128A150A166B
:101D8E008A11D6250A128A15433E84000A128A1534
:101D9E000A200A128A15A7000A128A150A200A12A8
:101DAE008A15A8000A128A150A200A128A15A90095
:101DBE000330BD003D08A4006430BE003E08F700AD
:101DCE0045080A168A1173260A128A150A168A11EE
:101DDE00D6250A128A155E3E84000A128A150A203A
:101DEE000A128A15AA000A128A150A200A128A15E0
:101DFE00AB000A128A150A200A128A15AC000A12C2
:101E0E008A15D7230A128A152708C2002808C3008C
:101E1E002908C4000330BA003A08A4000A30BB00F7
:101E2E003B08F00045080A168A1194260A128A15F4
:101E3E000A168A11D6250A128A15283E84000A121D
:101E4E008A150A200A128A15A7000A128A150A2074
:101E5E000A128A15A8000A128A150A200A128A1571
:101E6E00A9004208AA004308AB004408AC000A12BD
:101E7E008A15D7230A128A152708BF002808C00022
:101E8E002908C1000030A7000030A8003F30A9008B
:101E9E003F08AA004008AB004108AC000A128A15A0
:101EAE00D7232708B7002808B8002908B90008006A
:101EBE000B304502031CD22F0330BA003A08A4009F
:101ECE000A30BB003B08F00045080A168A1194261A
:101EDE000A128A150A168A11D6250A128A15283E62
:101EEE0084000A128A150A200A128A15A7000A12FD
:101EFE008A150A200A128A15A8000A128A150A20C3
:101F0E000A128A15A9000330BC003C08A4000A304E
:101F1E00BD003D08F70045080A168A1173260A12FD
:101F2E008A150A168A11D6250A128A15433E84008E
:101F3E000A128A150A200A128A15AA000A128A158E
:101F4E000A200A128A15AB000A128A150A200A12F2
:101F5E008A15AC000A128A15D7230A128A15270889
:101F6E00C2002808C3002908C4000030A7000030B2
:101F7E00A8003F30A9004208AA004308AB0044085D
:101F8E00AC000A128A15D7232708B7002808B80014
:101F9E002908B90008000030A7000030A8003F3023
:101FAE00A9000330BA003A08A40045080A168A119F
:101FBE00D6250A128A15283E84000A128A150A208E
:101FCE000A128A15AA000A128A150A200A128A15FE
:101FDE00AB000A128A150A200A128A15AC000A12E0
:101FEE008A15D7232708B7002808B8002908B90092
:021FFE000800D9
:102B34008C1E9A2D1A080800C0309F00803083161E
:102B44009F0083121F140800720871047004031993
:102B540008008030F2060800F00083160313981C66
:102B6400AF2D7008831299000800193099002430A1
:102B740098008030831298008316981618158312D3
:102B840098171816080087018316880185140317FF
:102B94008814831203138701831687010710871093
:102BA4000711071387170800A600A501261CDE2DB0
:102BB4002408FC007C08A5070310A40D0310A60C30
:102BC4002608031DD82D250808007808F000790888
:102BD400F100F2018E30FB007B08F300F4010A12CD
:102BE4008A152D217008F8007108F9007208FA009E
:102BF4000800FB007B08A000A101A2012008F0004E
:102C04002108F1002208F2008E30A3002308F3000B
:102C1400F4010A128A152D217008F8007108F900D0
:102C24007208FA00080055085404530403191C2EB2
:102C34008030D5065608C6005708C7005808C80093
:102C44005308C9005408CA005508CB000A128A1553
:102C54008B244608D3004708D4004808D500080050
:102C6400F4000F30F2007208F405C330F200720869
:102C740083129F057408F20001300310F20DFF3E29
:102C8400031D3F2E0310720DF30073089F049F145D
:102C94009F184A2E1E08F10083161E08F000080033
:102CA400F401F501701C5C2E7208F4070318F50A90
:102CB4007308F50701300310F20DF30DFF3E031DF9
:102CC4005D2E01300310F10CF00CFF3E031D642E49
:102CD40070087104031D542E7508F1007408F00087
:102CE4000800F900FB0177080319922EFA01FA0A89
:102CF400F71B832E0310F70D0130F8007808FA074C
:102D04007A2E0310FB0D77087902031C8D2E7708A9
:102D1400F9027B140310F70C0130FA02031D832E11
:102D24007B080800F4000830F1007108F500F60192
:102D34007408F10007300310F10CFF3E031D9D2EB3
:102D44007608F20072077104F3007308F6000310AA
:102D5400F40D70087602031CB12E7008F6020130DF
:102D6400F502031D9A2E760808008E30FC007C08BC
:102D7400FD00FF307B050319CD2E01300310FB0C41
:102D8400FA0CF90CF80CFF3E031DC02E0130FC00B8
:102D94007C08FD07BB2E7808F0007908F1007A085A
:102DA400F2007D08FC007C08F300F4010A128A1585
:102DB4002D217008F8007108F9007208FA00080063
:102DC400F21FF12E7008003CF0007108031C710F13
:102DD400003CF1007208031C720F803CF200F51FE6
:102DE400002F7308003CF3007408031C740F003CAC
:102DF400F4007508031C750F803CF5008030F20662
:102E04008030F50675087202031D0800740871020B
:102E1400031D0800730870020800F601F31F192F40
:102E2400F209F309F20A0319F30AF601F60AF11F8B
:102E3400202FF009F109F00A0319F10A700871044E
:102E440003194D2FF501F50AF11B342F013003103E
:102E5400F00DF10DFF3E031D292F0130F40074081D
:102E6400F507262F71087302031D3A2F70087202AA
:102E7400031C422F7008F2027108031CF303F302CF
:102E840001300310F10CF00CFF3E031D432F013001
:102E9400F502031D342F76080319552FF209F3099F
:102EA400F20A0319F30A7308F1007208F00008002B
:102EB400730872047104700403199D2FF901F90A4F
:102EC400F31B722F0130F8000310F00DF10DF20D19
:102ED400F30DF80B662F0130F8007808F907622F1C
:102EE40073087702031D802F72087602031D802F5A
:102EF40071087502031D802F70087402031C902F43
:102F04007008F4027108031C710FF5027208031CA7
:102F1400720FF6027308031C730FF70201300310DB
:102F2400F30CF20CF10CF00CFF3E031D912F013059
:102F3400F902031D722F7708F3007608F200750872
:102F4400F1007408F00008008312A101F81FB12FEA
:102F5400F709F809F70A0319F80AA101A10AFA1FE7
:102F6400BC2FF909FA09F90A0319FA0A0130FB001E
:102F74007B08A106A201A301770878040319F32FA3
:102F8400A001A00AF81BD22F01300310F70DF80D91
:102F9400FF3E031DC72F0130FB007B08A007C42F91
:102FA40001300310A20DA30DFF3E031DD32F78089B
:102FB4007A02031DDF2F77087902031CE82F7708B4
:102FC400F9027808031CFA03FA02221401300310F0
:102FD400F80CF70CFF3E031DE92F0130A002031D7E
:102FE400D22F21080319FB2FA209A309A20A03194E
:0C2FF400A30A2308F8002208F7000800D8
:04400E00E2EFFFFFDF
:00000001FF
