:060000000A128A11F82F1C
:100008007008F6007108F7007208F8000310770D01
:10001800780DF90079088312A5002508031D1D280D
:100028000030F3000030F2000030F1000030F00042
:1000380008007308F6007408F7007508F800031044
:10004800770D780DF9007908A400240803191428FD
:10005800F117FF30F005FF30F1050030F205F41715
:10006800FF30F305FF30F4050030F5050030A3003C
:100078000030A2000030A1000030A0007F30A502AF
:1000880098302407F6007608A5021830F60076089E
:10009800A4000130F6000310A00DA10DA20DA30DC0
:1000A800F60B4F2875087202031D60287408710248
:1000B800031D602873087002031C6D287308F00282
:1000C8007408031C740FF1027508031C750AF20208
:1000D800201401300310F00DF10DF20DFF3E031D49
:1000E8006E280130A402031D4D28A51F902825085D
:1000F800803A973E031C142801300310A30CA20C6D
:10010800A10CA00CFF3E031D81280130F6007608E3
:10011800A5070319A32880281830250203181428D6
:1001280025080319A3280130F6000310A00DA10D1E
:10013800A20DA30DF60B99280130A50294282308D7
:10014800F3002208F2002108F1002008F00008005E
:100158008312BF00BF1FE729BF09BF0A3F08803AC3
:10016800123E031C63290330BA003A08A4003F0872
:10017800F200F301F21BF3036430F0000030F100E9
:100188000A128A1543210A128A117108FA007008A6
:10019800F9000A30F7000030F8000A128A15DA214F
:1001A8000A128A1177080A168A1193270A128A11E5
:1001B800433E84000A128A1500200A128A11A700F9
:1001C8000A128A1500200A128A11A8000A128A1532
:1001D80000200A128A11A9000330BB003B08A400C2
:1001E8003F08F900FA01F91BFA036430F700003000
:1001F800F8000A128A15DA210A128A1177080A16F3
:100208008A1193270A128A115E3E84000A128A15FF
:1002180000200A128A11AA000A128A1500200A125E
:100228008A11AB000A128A1500200A128A11AC0042
:100238000A128A15D7230A128A112708BC0028082F
:10024800BD002908BE000330BA003A08A4003F08E0
:10025800F200F301F21BF3030A30F0000030F10062
:100268000A128A1543210A128A1170080A168A117D
:1002780093270A128A11283E84000A128A15002040
:100288000A128A11A7000A128A1500200A128A1176
:10029800A8000A128A1500200A128A11A9003C082F
:1002A800AA003D08AB003E08AC000A128A15D72305
:1002B8002708B7002808B8002908B90008003F082F
:1002C800803A753E031CCA290330BA003A08A400D4
:1002D8003F08F200F301F21BF3030A30F00000308C
:1002E800F1000A128A1543210A128A1170080A16A7
:1002F8008A1193270A128A11283E84000A128A1545
:1003080000200A128A11A7000A128A1500200A1270
:100318008A11A8000A128A1500200A128A11A90057
:100328000330BB003B08A4003F08F900FA01F91BA1
:10033800FA030A30F7000030F8000A128A15DA21A9
:100348000A128A1177080A168A1193270A128A1143
:10035800433E84000A128A1500200A128A11AA0054
:100368000A128A1500200A128A11AB000A128A158D
:1003780000200A128A11AC000A128A15D72327080E
:10038800B7002808B8002908B90008000330BA00E7
:100398003A08A4003F080A168A1193270A128A11FC
:1003A800283E84000A128A1500200A128A11B70012
:1003B8000A128A1500200A128A11B8000A128A1530
:1003C8000020B90008003F08803A123E031C982A12
:1003D8000330BA003A08A4003F08F200F301F21B08
:1003E800F3036430F0000030F1000A128A1543214B
:1003F8000A128A117108FA007008F9000A30F70029
:100408000030F8000A128A15DA210A128A117708D0
:100418000A168A1193270A128A111C3E84000A12AE
:100428008A1500200A128A11A7000A128A150020CC
:100438000A128A11A8000A128A1500200A128A11C3
:10044800A9000330BB003B08A4003F08F900FA01EB
:10045800F91BFA036430F7000030F8000A128A1515
:10046800DA210A128A1177080A168A1193270A12C2
:100478008A11373E84000A128A1500200A128A114E
:10048800AA000A128A1500200A128A11AB000A1261
:100498008A1500200A128A11AC000A128A15D7237D
:1004A8000A128A112708BC002808BD002908BE00C6
:1004B8000330BA003A08A4003F08F200F301F21B27
:1004C800F3030A30F0000030F1000A128A154321C4
:1004D8000A128A1170080A168A1193270A128A11B9
:1004E800013E84000A128A1500200A128A11A70008
:1004F8000A128A1500200A128A11A8000A128A15FF
:1005080000200A128A11A9003C08AA003D08AB0085
:100518003E08AC000A128A15D7232708B700280816
:10052800B8002908B90008003F08803A753E031C46
:10053800FF2A0330BA003A08A4003F08F200F3018A
:10054800F21BF3030A30F0000030F1000A128A159A
:1005580043210A128A1170080A168A1193270A126F
:100568008A11013E84000A128A1500200A128A1193
:10057800A7000A128A1500200A128A11A8000A1276
:100588008A1500200A128A11A9000330BB003B0813
:10059800A4003F08F900FA01F91BFA030A30F70032
:1005A8000030F8000A128A15DA210A128A1177082F
:1005B8000A168A1193270A128A111C3E84000A120D
:1005C8008A1500200A128A11AA000A128A15002028
:1005D8000A128A11AB000A128A1500200A128A111F
:1005E800AC000A128A15D7232708B7002808B800D4
:1005F8002908B90008000330BA003A08A4003F08E7
:100608000A168A1193270A128A11013E84000A12D7
:100618008A1500200A128A11B7000A128A150020CA
:100628000A128A11B8000A128A150020B9000800B7
:100638008316A60059308312DC005C088316A300D9
:1006480001308316A607FF30260784000A128A1590
:1006580000200A128A118312DC005C088316B60097
:100668003608031908002530360603193D2B3608CD
:10067800F12FA401A501260884000A128A1500207A
:100688000A128A112E3A031D8F2B25170130831267
:10069800DC005C088316A607B101B20126088400B5
:1006A8000A128A1500200A128A110A168A11852749
:1006B8000A128A11031C952B0A30F0000030F10051
:1006C8003208F3003108F2000A128A1586200A124D
:1006D8008A117108B2007008B100260884000A1255
:1006E8008A1500200A128A11D03E8312DC00FF30DE
:1006F80003180030DD005C088316B1070318B20A3E
:1007080083125D088316B20701308312DC005C088F
:100718008316A607522BB101B2012516952B251574
:10072800A72B0130A607FF30260784000A128A1576
:1007380000200A128A11B600003A0319F72F663A08
:100748000319932B242B003024058312DC00073077
:10075800831625058312DD005C085D040319C12F8B
:100768008316251EBB2B0630B1000030B2002308CB
:10077800840083130008B300840A0008B400840AC4
:100788000008B50003308312DC005C088316A30759
:100798003308F0003408F1003508F2000030F300A7
:1007A8000030F4000030F5000A128A1516210A12EA
:1007B8008A110318F42B3308F0003408F1003508C7
:1007C800F2000A168A1159270A128A117008B30012
:1007D8007108B4007208B5000330A4040030A50401
:1007E800AB01AC013508340433040319C02CB33011
:1007F8008400831300088312DC00840A0008DD00EB
:10080800840A0008DE00840A0008DF000F300310A5
:10081800DF0CDE0CDD0CDC0CFF3E031D0B2CFF3067
:100828005C05E00000305D05E1006008823E83164B
:10083800AB00831261080318013EFF3E8316AC002B
:10084800FF30AB070318AC0AFF30AC070330F000E9
:100858000030F1002C08F3002B08F2000A128A1568
:1008680086200A128A117108AC007008AB000A30A1
:10087800F7000030F8002C08FA002B08F9000A12DB
:100888008A15DA210A128A1178088316AC007708CB
:10089800AB00AC1F552CFF30AB070318AC0AFF3078
:1008A800AC072B03FF3A0A128A11AC200A128A11EC
:1008B80037088316AD00831238088316AE008312FA
:1008C80039088316AF0033088312A700831634084B
:1008D8008312A800831635088312A90083162D08F1
:1008E8008312AA0083162E088312AB0083162F08E2
:1008F8008312AC000A128A15D7230A128A11270814
:100908008316AD00831228088316AE0083122908C7
:100918008316AF002D08F0002E08F1002F08F20012
:100928000030F3008030F4003F30F5000A128A15D9
:1009380016210A128A110318A72CFF30AB070318D7
:10094800AC0AFF30BF2C2D08F0002E08F1002F084C
:10095800F2000030F3002030F4004130F5000A12B4
:100968008A1516210A128A11031CC02C0130AB0704
:100978000318AC0A0030AC073208803AFF00803018
:100988007F02031DC92C0D3031020318F52C831684
:10099800031331080A128A15A9260A128A11370880
:1009A800C6003808C7003908C80083163308831200
:1009B800C900831634088312CA00831635088312C7
:1009C800CB000A128A158B240A128A11460883164C
:1009D800B300831247088316B400831248088316AD
:1009E800B500831603132C08803AFF0080307F027D
:1009F800031D002D0A302B0203182B2D8316031319
:100A080035083404330403197A2D33088312C000DF
:100A1800831634088312C100831635088312C20076
:100A28000A128A155C230A128A11430842044104F7
:100A38004004031D7A2D83162C08803AFF0080306D
:100A48007F02031D292D02302B02031C7A2D8316E9
:100A580003132D08F0002E08F1002F08F200703063
:100A6800F3008930F4004030F5000A128A15162187
:100A78000A128A110318422DF730432DF830AB07BC
:100A88000318AC0AFF30AC072B080A128A11AC20F5
:100A98000A128A1137088316AD00831238088316A4
:100AA800AE00831239088316AF003308F00034080B
:100AB800F1003508F2002D08F3002E08F4002F0885
:100AC800F5000A128A1104200A128A117308831683
:100AD800AA007208A9007108A8007008A7000030D1
:100AE800B3000030B4000030B500CD2D83160313D9
:100AF80033088312C000831634088312C10083169A
:100B080035088312C2000A128A155C230A128A1158
:100B180043088316AA00831242088316A900831289
:100B280041088316A800831240088316A7002A08E4
:100B3800FB002908FA002808F9002708F8000A121B
:100B48008A15EB200A128A1178088312D3007908D3
:100B5800D4007A08D500831633088312D60083168A
:100B680034088312D700831635088312D8000A1672
:100B78008A11A4270A128A1153088316B300831214
:100B880054088316B400831255088316B500AB01C8
:100B9800AC01B601B60A36088312DC000130031036
:100BA800DC0DFF3E031DD32D03105C0D4F3E84006A
:100BB8000A128A1500200A128A11DD000A128A1503
:100BC80000200A128A11DE000A128A1500200A1271
:100BD8008A11DF000A128A1500200A128A11E00021
:100BE800600883162A02031D092E83125F088316E4
:100BF8002902031D092E83125E0883162802031D8D
:100C0800092E83125D0883162702031C152E013056
:100C18008312DC005C088316B6070A303606031D0B
:100C2800CF2D2408033903191F2E2D300A168A11D7
:100C380061270A128A1101308316B602360A03198F
:100C48008D2E36088312DC0001300310DC0DFF3EC8
:100C5800031D292E03105C0D4F3E84000A128A15CD
:100C680000200A128A11F0000A128A1500200A12BE
:100C78008A11F1000A128A1500200A128A11F2005C
:100C88000A128A1500200A128A11F30083162A080C
:100C9800F7002908F6002808F5002708F4000A12CA
:100CA8008A1534220A128A117308B0007208AF003C
:100CB8007108AE007008AD000030F3000030F2009B
:100CC8000030F1000A30F0003008F7002F08F60075
:100CD8002E08F5002D08F4000A128A158E210A1232
:100CE8008A117308B0007208AF007108AE0070086E
:100CF800AD002D08303E1A2E30300A168A116127B1
:100D08000A128A11FF308316AB070318AC0AFF30AA
:100D1800AC072C08803AFF0080307F02031D962E16
:100D280001302B020318802E831603133208803AF1
:100D3800FF0080307F02031DA32E09303102031CFF
:100D4800A92E083083120313AD2E8316031331081E
:100D58008312DC005C088316B60036088312DC00B8
:100D6800DD015C088316B10283125D088316031C3B
:100D7800B203B20236080319C72E2E300A168A119A
:100D880061270A128A11831636080A128A11AC20C2
:100D98000A128A1137088316A000831238088316AE
:100DA800A100831239088316A20020088312AA0022
:100DB800831621088312AB00831622088312AC0025
:100DC800831633088312A700831634088312A800F9
:100DD800831635088312A9000A128A15D7230A1226
:100DE8008A112708C0002808C1002908C2000A1271
:100DF8008A155C230A128A1143088316AA008312F3
:100E080042088316A900831241088316A80083129A
:100E180040088316A7000130B602360A0319BC2F12
:100E280036088312DC0001300310DC0DFF3E031D81
:100E3800182F03105C0D4F3E84000A128A150020FB
:100E48000A128A11F0000A128A1500200A128A1161
:100E5800F1000A128A1500200A128A11F2000A12F9
:100E68008A1500200A128A11F30083162A08F7004F
:100E78002908F6002808F5002708F4000A128A1540
:100E880034220A128A117308B0007208AF00710880
:100E9800AE007008AD000030F3000030F200003002
:100EA800F1000A30F0003008F7002F08F6002E088D
:100EB800F5002D08F4000A128A158E210A128A11EB
:100EC8007308B0007208AF007108AE007008AD007A
:100ED8002D08303E0A168A1161270A128A118316D4
:100EE80036088312DC0001300310DC0DFF3E031DC1
:100EF800782F03105C0D4F3E84000A128A150020DB
:100F08000A128A11F0000A128A1500200A128A11A0
:100F1800F1000A128A1500200A128A11F2000A1238
:100F28008A1500200A128A11F30083162A08F7008E
:100F38002908F6002808F5002708F4000A128A157F
:100F48008E210A128A117308AA007208A900710872
:100F5800A80070080E2F30300A168A1161270A126D
:100F68008A11FF308316B1070318B20AFF30B2079F
:100F7800310832040319242BAF2F831631083204A9
:100F8800031DD22F2A08290428042704031DD22F61
:100F98000130B1070318B20A0030B2073208803AAC
:100FA800803C031DD92F31083602031CEA2F831613
:100FB80003133208803A8312DC0080305C02031D80
:100FC800E82F831636083102031CEA2F8316031311
:100FD800240803390319242B2D300A168A11612796
:100FE8000A128A11242B080083120313E801E9016D
:100FF80083010A128A15922A08308A000408840A92
:1010080082070034003480343F34003420344134C3
:101018000034C834423400347A34443440341C3404
:1010280046345034C3344734243474344934973400
:1010380018344B34BC34BE344C346B346E344E34B8
:101048000334153450347934AD346034F3344934CE
:101058007134003480343F34CD34CC343D34D7340B
:1010680023343C34123483343A34B734D1343834EA
:10107800C63427343734383486343534C034D6341B
:101088003334CC342B343234703489343034E7344C
:10109800DB342E34E5343C341E344234A2340D346F
:1010A80001340034003400340A340034003400348D
:1010B8006434003400340034E83403340034003439
:1010C8001034273400340034A0348634013400341A
:1010D800403442340F340034803496349834003429
:1010E8000034E134F53405340034CA349A343B34DE
:1010F80054343D3425342E34323466340D340A34B5
:021108000034B1
:10110C00F401F501701C90287208F4070318F50A15
:10111C007308F50701300310F20DF30DFF3E031DAC
:10112C00912801300310F10CF00CFF3E031D9828A0
:10113C0070087104031D88287508F1007408F0000C
:10114C000800F900FB0177080319C628FA01FA0A0E
:10115C00F71BB7280310F70D0130F8007808FA07D1
:10116C00AE280310FB0D77087902031CC128770801
:10117C00F9027B140310F70C0130FA02031DB72897
:10118C007B080800F4000830F1007108F500F60146
:10119C007408F10007300310F10CFF3E031DD12839
:1011AC007608F20072077104F3007308F60003105E
:1011BC00F40D70087602031CE5287008F602013065
:1011CC00F502031DCE28760808008E30FC007C0842
:1011DC00FD00FF307B050319012901300310FB0CC6
:1011EC00FA0CF90CF80CFF3E031DF4280130FC003E
:1011FC007C08FD07EF287808F0007908F1007A08E0
:10120C00F2007D08FC007C08F300F4010A128A1538
:10121C00F0227008F8007108F9007208FA00080052
:10122C00F21F25297008003CF0007108031C710F97
:10123C00003CF1007208031C720F803CF200F51F99
:10124C0034297308003CF3007408031C740F003C31
:10125C00F4007508031C750F803CF5008030F20615
:10126C008030F50675087202031D080074087102BF
:10127C00031D0800730870020800F601F31F4D29C6
:10128C00F209F309F20A0319F30AF601F60AF11F3F
:10129C005429F009F109F00A0319F10A70087104D4
:1012AC0003198129F501F50AF11B68290130031096
:1012BC00F00DF10DFF3E031D5D290130F4007408A3
:1012CC00F5075A2971087302031D6E297008720202
:1012DC00031C76297008F2027108031CF303F30255
:1012EC0001300310F10CF00CFF3E031D7729013087
:1012FC00F502031D6829760803198929F209F309F7
:10130C00F20A0319F30A7308F1007208F0000800DE
:10131C0073087204710470040319D129F901F90AD4
:10132C00F31BA6290130F8000310F00DF10DF20D9E
:10133C00F30DF80B9A290130F8007808F907962973
:10134C0073087702031DB42972087602031DB429B1
:10135C0071087502031DB42970087402031CC4299A
:10136C007008F4027108031C710FF5027208031C5B
:10137C00720FF6027308031C730FF702013003108F
:10138C00F30CF20CF10CF00CFF3E031DC5290130DF
:10139C00F902031DA6297708F3007608F2007508F8
:1013AC00F1007408F00008008312A101F81FE52970
:1013BC00F709F809F70A0319F80AA101A10AFA1F9B
:1013CC00F029F909FA09F90A0319FA0A0130FB00A4
:1013DC007B08A106A201A301770878040319272A28
:1013EC00A001A00AF81B062A01300310F70DF80D16
:1013FC00FF3E031DFB290130FB007B08A007F829E9
:10140C0001300310A20DA30DFF3E031D072A78081F
:10141C007A02031D132A77087902031C1C2A770809
:10142C00F9027808031CFA03FA02221401300310A3
:10143C00F80CF70CFF3E031D1D2A0130A002031D02
:10144C00062A210803192F2AA209A309A20A0319A3
:10145C00A30A2308F8002208F70008000030FC005B
:10146C000030FB000030FA000030F9007308720401
:10147C00710470040319892AFD01FD0AF31B542A17
:10148C000130F8000310F00DF10DF20DF30DF80B17
:10149C00482A0130F8007808FD07442A0130F8008A
:1014AC000310F90DFA0DFB0DFC0DF80B562A730801
:1014BC007702031D6B2A72087602031D6B2A7108D2
:1014CC007502031D6B2A70087402031C7C2A7008B9
:1014DC00F4027108031C710FF5027208031C720FE1
:1014EC00F6027308031C730FF70279140130031012
:1014FC00F30CF20CF10CF00CFF3E031D7D2A0130B5
:10150C00FD02031D542A7C08F3007B08F2007A08C4
:10151C00F1007908F00008000A168A116A270A12ED
:10152C008A150A168A1177270A128A150A168A1141
:10153C0052270A128A15AA300A168A11C1270A12D2
:10154C008A150030A7008030A8003D30A90068083B
:10155C00E3006908E200630DE30CE20C630DE30C9D
:10156C00E20C630DE30CE20C6208F8006308F9006E
:10157C000A168A11DF270A128A1578088312AA0024
:10158C007908AB007A08AC000A128A15D7230A1224
:10159C008A152708E5002808E6002908E7006508F1
:1015AC00D9006608DA006708DB0077300A128A1166
:1015BC001C230A128A15063083120313E40013301D
:1015CC00E300AD30E200E20BE92AE30BE92AE40B7D
:1015DC00E92AA12A73080319F82A72087104700405
:1015EC00031D0B2B0030F0000030F1000030F20036
:1015FC0008000130F5007508F30701300310F20CF8
:10160C00F10CF00CFF3E031D042BFE307205031988
:10161C00262BFF2A0130F5007508F3070130F0077F
:10162C00003003180130F107003003180130F207C5
:10163C0001300310F20CF10CF00CFF3E031D1F2BBC
:10164C00FF3072050319392B102B02307302031C67
:10165C003B2B0130F30201300310F00DF10DF20DB4
:10166C00FF3E031D322BF11F2B2B7318432BFF3026
:10167C00F0057F30F105FF30F2050310F30C730811
:10168C00F500F601F70110300310F50DF60DF70D0E
:10169C00FF3E031D4A2B7508F0047608F104770809
:1016AC00F204740803190800F21708004008C4007B
:1016BC004108C5004208C6000310450D460DC70081
:1016CC004708CD004D08031D742B0030C3000030BB
:1016DC00C2000030C1000030C00008004008C40047
:1016EC004108C5004208C60017300310C60CC50CD3
:1016FC00C40CFF3E031D7B2B4408C7004708C800E1
:10170C00C117FF30C005FF30C1050030C2054008CD
:10171C00C9004108CA004208CB00CC018E30CD0272
:10172C00CD1FAD2B4D08803A8F3E031C6B2B013027
:10173C000310CC0CCB0CCA0CC90CFF3E031D9E2B0A
:10174C000130C4004408CD070319C02B9D2B183061
:10175C004D0203186B2B4D080319C02B0130C4002C
:10176C000310C90DCA0DCB0DCC0DC40BB62B01301B
:10177C00CD02B12B48080319CE2BC909CA09CB09D4
:10178C00CC09C90A0319CA0A0319CB0A0319CC0AD2
:10179C004C08C3004B08C2004A08C1004908C000ED
:1017AC0008002708AD002808AE002908AF00031078
:1017BC002E0D2F0DB0003008B1003108031DED2B9C
:1017CC000030A7000030A8000030A90008002A084B
:1017DC00AD002B08AE002C08AF0003102E0D2F0D02
:1017EC00B0003008B6003608031D032C0030A700EB
:1017FC000030A8000030A900080036087B3EAD0080
:10180C002D08B1072908AD002D08B6002C08AD0035
:10181C002D08B6068030AD002D08B605A817AB17FD
:10182C00FF30AA05FF30AB050030AC050030B2002C
:10183C000030B3000030B4000730AD002D08B50007
:10184C00271C362C2A08B2072B08031103182B0A65
:10185C00031DB3072C08031103182C0A031DB4072E
:10186C0001300310A90CA80CA70CFF3E031D372C4C
:10187C0001300310AA0DAB0DAC0DFF3E031D3F2C28
:10188C000130B502031D262C0930AD002D08B50022
:10189C00271C5E2C2A08B2072B08031103182B0AED
:1018AC00031DB3072C08031103182C0A031DB407DE
:1018BC0001300310A90CA80CA70CFF3E031D5F2CD4
:1018CC0001300310B40CB30CB20CFF3E031D672C9B
:1018DC000130B502031D4E2C3208F0003308F10024
:1018EC003408F2003108AD002D08F3003608AE00C4
:1018FC002E08F4000A128A15F02270088312A70031
:10190C007108A8007208A90008004608CC00470816
:10191C00CD004808CE0003104D0D4E0DCF004F08E2
:10192C00D2004908CC004A08CD004B08CE00031069
:10193C004D0D4E0DCF004F08D10052080319B22C9B
:10194C00510852020318B92C5108CC005208CC0291
:10195C0019304C02031CB92C4908C6004A08C700B0
:10196C004B08C8000800510803190800520851021E
:10197C000318C82C5208CC005108CC0219304C0268
:10198C00031808000630CC004C08D000C81BD01738
:10199C00CB1B5017C717FF30C605FF30C7050030EB
:1019AC00C805CA17FF30C905FF30CA050030CB0582
:1019BC00510852020318082D01300310C90DCA0D2D
:1019CC00CB0DFF3E031DE32C0130D1025108520612
:1019DC000319032D0130D002500807390319032DC8
:1019EC00E22C01300310C80CC70CC60CFF3E031DC3
:1019FC00F82C0130CC004C08D207520851060319C0
:101A0C00312DF72C520851020318312D01300310DF
:101A1C00C60DC70DC80DFF3E031D0D2D0130D202A2
:101A2C005108520603192D2D0130D00250080739E8
:101A3C0003192D2D0C2D01300310CB0CCA0CC90C25
:101A4C00FF3E031D222D0130CC004C08D10752085B
:101A5C005106031D212DD01F432DFF30C606FF302C
:101A6C00C706FF30C8060130C60700300318013026
:101A7C00C707003003180130C807501F552DFF3021
:101A8C00C906FF30CA06FF30CB060130C90700304B
:101A9C0003180130CA07003003180130CB07D001FE
:101AAC004608C907470803110318470A031DCA074C
:101ABC00480803110318480A031DCB07CB1F782DC8
:101ACC00FF30C906FF30CA06FF30CB060130C9070C
:101ADC00003003180130CA07003003180130CB075F
:101AEC00D001D00A4908F0004A08F1004B08F20076
:101AFC005208CC004C08F3005008CD004D08F400FF
:101B0C000A128A15F02270088312C6007108C700E9
:101B1C007208C8000800703084000008F600840ABF
:101B2C000008F700840A0008F800840A0008F9008D
:101B3C000310780D790DFA007A0883120313A500AF
:101B4C002508031DB22D0030F3000030F2000030E8
:101B5C00F1000030F0000800733084000008F6003B
:101B6C00840A0008F700840A0008F800840A0008B8
:101B7C00F9000310780D790DFA007A08A4002408F6
:101B8C000319A92D7030840000308004840A0030C1
:101B9C008004840A80308004840A00308004703011
:101BAC008400FF308005840AFF308005840AFF30F2
:101BBC008005840A00308005733084000030800476
:101BCC00840A00308004840A80308004840A003047
:101BDC00800473308400FF308005840AFF30800558
:101BEC00840AFF308005840A003080050030A30091
:101BFC000030A2000030A1000030A0007F30A50210
:101C0C00A0302407F6007608A5022030F6007608EE
:101C1C00A4000130F6000310A00DA10DA20DA30D20
:101C2C00F60B112E733084000008F600840A0008AD
:101C3C00F700840A0008F800840A0008F9007030E4
:101C4C0084000008FA00840A0008FB00840A0008DB
:101C5C00FC00840A0008FD0079087D02031D402E5B
:101C6C0078087C02031D402E77087B02031D402E52
:101C7C0076087A02031C652E733084000008F60087
:101C8C00840A0008F700840A0008F800840A000897
:101C9C00F9007030840076088002840A7708031CEF
:101CAC00770F8002840A7808031C780F8002840A5C
:101CBC007908031C790A80020330840220147030E6
:101CCC0084000310800D840A800D840A800D840A20
:101CDC00800D8403840384030130A402031D0F2EA2
:101CEC00A51F8D2E2508803A9F3E031CA92D01307F
:101CFC000310A30CA20CA10CA00CFF3E031D7E2E06
:101D0C000130F6007608A5070319A02E7D2E203091
:101D1C0025020318A92D25080319A02E0130F60061
:101D2C000310A00DA10DA20DA30DF60B962E0130E4
:101D3C00A502912E2308F3002208F2002108F100DD
:101D4C002008F00008008312C5006E304502031C09
:101D5C005F2F0330BA003A08A4000A30BB003B08DE
:101D6C00F7006430BC003C08F00045080A128A15E4
:101D7C00C8200A128A150A128A15A7200A128A1577
:101D8C000A168A1193270A128A15433E84000A12F6
:101D9C008A1500200A128A15A7000A128A1500203B
:101DAC000A128A15A8000A128A1500200A128A152E
:101DBC00A9000330BD003D08A4006430BE003E08FD
:101DCC00F70045080A128A15A7200A128A150A1666
:101DDC008A1193270A128A155E3E84000A128A150C
:101DEC0000200A128A15AA000A128A1500200A126B
:101DFC008A15AB000A128A1500200A128A15AC004B
:101E0C000A128A15D7230A128A152708C200280835
:101E1C00C3002908C4000330BA003A08A4000A30F1
:101E2C00BB003B08F00045080A128A15C8200A12AC
:101E3C008A150A168A1193270A128A15283E8400DD
:101E4C000A128A1500200A128A15A7000A128A158E
:101E5C0000200A128A15A8000A128A1500200A12FC
:101E6C008A15A9004208AA004308AB004408AC003C
:101E7C000A128A15D7230A128A152708BF002808C8
:101E8C00C0002908C1000030A7000030A8003F3076
:101E9C00A9003F08AA004008AB004108AC000A1298
:101EAC008A15D7232708B7002808B8002908B900D5
:101EBC0008000B304502031CD22F0330BA003A083D
:101ECC00A4000A30BB003B08F00045080A128A1532
:101EDC00C8200A128A150A168A1193270A128A1523
:101EEC00283E84000A128A1500200A128A15A700BF
:101EFC000A128A1500200A128A15A8000A128A15DD
:101F0C0000200A128A15A9000330BC003C08A4006A
:101F1C000A30BD003D08F70045080A128A15A720B3
:101F2C000A128A150A168A1193270A128A15433E39
:101F3C0084000A128A1500200A128A15AA000A12B5
:101F4C008A1500200A128A15AB000A128A15002085
:101F5C000A128A15AC000A128A15D7230A128A159E
:101F6C002708C2002808C3002908C4000030A700B5
:101F7C000030A8003F30A9004208AA004308AB007B
:101F8C004408AC000A128A15D7232708B700280882
:101F9C00B8002908B90008000030A7000030A800DC
:101FAC003F30A9000330BA003A08A40045080A16CD
:101FBC008A1193270A128A15283E84000A128A1560
:101FCC0000200A128A15AA000A128A1500200A1289
:101FDC008A15AB000A128A1500200A128A15AC0069
:101FEC000A128A15D7232708B7002808B800290831
:041FFC00B900080020
:102EA4004030831694002030831294000800720886
:102EB40071047004031908008030F2060800F00061
:102EC40083160313981C622F70088312990008005C
:102ED40083160317880189010313051403170814C3
:102EE40010300313870008100800193099002430AB
:102EF4009800803083129800831698161815831250
:102F0400981718160800F100F0013A3071020318FE
:102F1400912F30307102031C912FF001F00A700CD4
:102F24000800A600A501261C9B2F2408FC007C0891
:102F3400A5070310A40D0310A60C2608031D952F46
:102F4400250808005508540453040319AB2F803096
:102F5400D5065608C6005708C7005808C8005308C5
:102F6400C9005408CA005508CB000A128A158B24DC
:102F74004608D3004708D4004808D5000800F100EB
:102F84008312031308102130F000F00BC72F7108CF
:102F94008312031393008C1DCD2F8C111308F000A2
:102FA4007008E800710893008C1DD62F8C1113084B
:102FB400F0007008E90008140800FD01F91FE92F6A
:102FC400F809F909F80A0319F90AFD01FD0A780854
:102FD400F0007908F100F2018E30FB007B08F30069
:102FE4007D08FC007C08F4000A128A15F02270089F
:0C2FF400F8007108F9007208FA000800EB
:04400E00C1FCFFFFF3
:00000001FF
