:060000000A128A11EE2F26
:10000C00F00083160313981C0728700883129900BC
:10001C0008008312BF00BF1F4A29BF09BF0A3F084F
:10002C00803A123E031CC6280330BA003A08A400DA
:10003C003F08F200F301F21BF3036430F0000030D0
:10004C00F1000A168A1191260A128A117108FA0017
:10005C007008F9000A30F7000030F8000A168A110F
:10006C00DC260A128A1177080A168A1135250A121B
:10007C008A11433E84000A128A150A200A128A1138
:10008C00A7000A128A150A200A128A11A8000A125D
:10009C008A150A200A128A11A9000330BB003B08FA
:1000AC00A4003F08F900FA01F91BFA036430F700C9
:1000BC000030F8000A168A11DC260A128A11770819
:1000CC000A168A1135250A128A115E3E84000A121C
:1000DC008A150A200A128A11AA000A128A150A2005
:1000EC000A128A11AB000A128A150A200A128A1106
:1000FC00AC000A128A15F8220A128A112708BC00D1
:10010C002808BD002908BE000330BA003A08A40034
:10011C003F08F200F301F21BF3030A30F000003049
:10012C00F1000A168A1191260A128A1170080A1611
:10013C008A1135250A128A11283E84000A128A1562
:10014C000A200A128A11A7000A128A150A200A121A
:10015C008A11A8000A128A150A200A128A11A9000B
:10016C003C08AA003D08AB003E08AC000A128A15F8
:10017C00F8222708B7002808B8002908B900080099
:10018C003F08803A753E031C2D290330BA003A080B
:10019C00A4003F08F200F301F21BF3030A30F00055
:1001AC000030F1000A168A1191260A128A11700881
:1001BC000A168A1135250A128A11283E84000A1261
:1001CC008A150A200A128A11A7000A128A150A2017
:1001DC000A128A11A8000A128A150A200A128A1118
:1001EC00A9000330BB003B08A4003F08F900FA014A
:1001FC00F91BFA030A30F7000030F8000A168A11CE
:10020C00DC260A128A1177080A168A1135250A1279
:10021C008A11433E84000A128A150A200A128A1196
:10022C00AA000A128A150A200A128A11AB000A12B5
:10023C008A150A200A128A11AC000A128A15F822B1
:10024C002708B7002808B8002908B90008000330AF
:10025C00BA003A08A4003F080A168A1135250A127A
:10026C008A11283E84000A128A150A200A128A1161
:10027C00B7000A128A150A200A128A11B8000A124B
:10028C008A150A20B90008003F08803A123E031C68
:10029C00FB290330BA003A08A4003F08F200F3012E
:1002AC00F21BF3036430F0000030F1000A168A11DF
:1002BC0091260A128A117108FA007008F9000A30A6
:1002CC00F7000030F8000A168A11DC260A128A118F
:1002DC0077080A168A1135250A128A111C3E8400E9
:1002EC000A128A150A200A128A11A7000A128A1504
:1002FC000A200A128A11A8000A128A150A200A1268
:10030C008A11A9000330BB003B08A4003F08F90088
:10031C00FA01F91BFA036430F7000030F8000A16F2
:10032C008A11DC260A128A1177080A168A113525D9
:10033C000A128A11373E84000A128A150A200A1200
:10034C008A11AA000A128A150A200A128A11AB0015
:10035C000A128A150A200A128A11AC000A128A158E
:10036C00F8220A128A112708BC002808BD002908A7
:10037C00BE000330BA003A08A4003F08F200F301B3
:10038C00F21BF3030A30F0000030F1000A168A1158
:10039C0091260A128A1170080A168A1135250A123A
:1003AC008A11013E84000A128A150A200A128A1147
:1003BC00A7000A128A150A200A128A11A8000A122A
:1003CC008A150A200A128A11A9003C08AA003D08C5
:1003DC00AB003E08AC000A128A15F8222708B700B9
:1003EC002808B8002908B90008003F08803A753E73
:1003FC00031C622A0330BA003A08A4003F08F2003A
:10040C00F301F21BF3030A30F0000030F1000A167E
:10041C008A1191260A128A1170080A168A1135253A
:10042C000A128A11013E84000A128A150A200A1245
:10043C008A11A7000A128A150A200A128A11A8002A
:10044C000A128A150A200A128A11A9000330BB006D
:10045C003B08A4003F08F900FA01F91BFA030A3023
:10046C00F7000030F8000A168A11DC260A128A11ED
:10047C0077080A168A1135250A128A111C3E840047
:10048C000A128A150A200A128A11AA000A128A155F
:10049C000A200A128A11AB000A128A150A200A12C3
:1004AC008A11AC000A128A15F8222708B70028080E
:1004BC00B8002908B90008000330BA003A08A400B3
:1004CC003F080A168A1135250A128A11013E84004A
:1004DC000A128A150A200A128A11B7000A128A1502
:1004EC000A200A128A11B8000A128A150A20B900C9
:1004FC00080083160313AE0059308312DE005E0829
:10050C008316A70001308316AE07FF302E07840038
:10051C000A128A150A200A128A118312DE005E085A
:10052C008316BA003A080319080025303A06031955
:10053C00A12A3A08E72FA801A9012E0884000A1263
:10054C008A150A200A128A112E3A031DF32A29173A
:10055C0001308312DE005E088316AE07B801B901C4
:10056C002E0884000A128A150A200A128A110A1609
:10057C008A1117250A128A11031C812B0A30F000EC
:10058C000030F1003908F3003808F2000A168A111D
:10059C00D4250A128A117108B9007008B8002E0807
:1005AC0084000A128A150A200A128A11D03E83127C
:1005BC00DE00FF3003180030DF005E088316B8073A
:1005CC000318B90A83125F088316B9070130831226
:1005DC00DE005E088316AE07B62AB801B9012916EB
:1005EC00812B2915992B2708840083130008A5005B
:1005FC000030A60001308312DE005E088316A707C8
:10060C0025082604031D0E2BC330A5008030A60040
:10061C00A301A40123082507840026080318260A31
:10062C008312FF000A128A1500200A128A11003A5E
:10063C000319282B01308316A3070318A40A0030D2
:10064C00A407102B8316380839040319432B3908D7
:10065C00803A8312DE0083162408803A83125E02ED
:10066C00031D3B2B8316230838020318432B8316D8
:10067C0003133908A4003808A300013083160313B0
:10068C00A3020030031CA403A402230A0319240AA6
:10069C000319882A26088312FF0083162508840074
:1006AC0083120A128A1500200A128A110A128A1160
:1006BC0006200A128A1101308316A5070318A60A10
:1006CC000030A607432B27088400831300088312ED
:1006DC00DE005E088316BA0002308312DE005E086C
:1006EC008316A707BA30A5000030A6000130A3007E
:1006FC000030A400282B0130AE07FF302E078400F9
:10070C000A128A150A200A128A11BA00003A031931
:10071C00ED2F633A0319692B053A0319F72A153A99
:10072C000319F92A782B003028058312DE000730D4
:10073C00831629058312DF005E085F040319B72FA7
:10074C008316291EAD2B0630B8000030B9002708DF
:10075C00840083130008B500840A0008B600840ADC
:10076C000008B70003308312DE005E088316A7076B
:10077C003508F0003608F1003708F2000030F300BD
:10078C000030F4000030F5000A168A1164260A12B3
:10079C008A110318E62B3508F0003608F1003708EB
:1007AC00F2000A128A15E8200A128A117008B500A4
:1007BC007108B6007208B7000330A8040030A90411
:1007CC00AF01B0013708360435040319B22CB5302B
:1007DC008400831300088312DE00840A0008DF0003
:1007EC00840A0008E000840A0008E1000F300310BE
:1007FC00E10CE00CDF0CDE0CFF3E031DFD2BFF308B
:10080C005E05E20000305F05E3006208823E83165D
:10081C00AF00831263080318013EFF3E8316B0003D
:10082C00FF30AF070318B00AFF30B0070330F000F9
:10083C000030F1003008F3002F08F2000A168A117C
:10084C00D4250A128A117108B0007008AF000A3062
:10085C00F7000030F8003008FA002F08F9000A16EB
:10086C008A11DC260A128A1178088316B0007708E0
:10087C00AF00B01F472CFF30AF070318B00AFF3092
:10088C00B0072F03FF3A0A128A110F200A128A119D
:10089C0037088316B100831238088316B20083120E
:1008AC0039088316B30035088312A700831636085F
:1008BC008312A800831637088312A9008316310807
:1008CC008312AA00831632088312AB0083163308F6
:1008DC008312AC000A128A15F8220A128A11270810
:1008EC008316B100831228088316B20083122908DC
:1008FC008316B3003108F0003208F1003308F2001F
:10090C000030F3008030F4003F30F5000A168A11F5
:10091C0064260A128A110318992CFF30AF070318AA
:10092C00B00AFF30B12C3108F0003208F100330866
:10093C00F2000030F3002030F4004130F5000A16CC
:10094C008A1164260A128A11031CB22C0130AF07DB
:10095C000318B00A0030B0073908803AFF00803025
:10096C007F02031DBB2C0D3038020318E72C8316B5
:10097C00031338080A128A15A9260A128A11370895
:10098C00C6003808C7003908C8008316350883121A
:10099C00C900831636088312CA00831637088312DF
:1009AC00CB000A128A158B240A128A114608831668
:1009BC00B500831247088316B600831248088316C5
:1009CC00B700831603133008803AFF0080307F0293
:1009DC00031DF22C0A302F0203181D2D831603134E
:1009EC0037083604350403196C2D35088312C00002
:1009FC00831636088312C100831637088312C2008F
:100A0C000A128A153C210A128A1143084204410435
:100A1C004004031D6C2D83163008803AFF00803093
:100A2C007F02031D1B2D02302F02031C6C2D83161D
:100A3C0003133108F0003208F1003308F200703073
:100A4C00F3008930F4004030F5000A168A11642650
:100A5C000A128A110318342DF730352DF830AF07F0
:100A6C000318B00AFF30B0072F080A128A110F20A2
:100A7C000A128A1137088316B100831238088316BC
:100A8C00B200831239088316B3003508F00036081B
:100A9C00F1003708F2003108F3003208F400330893
:100AAC00F5000A128A1550220A128A11730883164D
:100ABC00AD007208AC007108AB007008AA000030E1
:100ACC00B5000030B6000030B700BF2D83160313FD
:100ADC0035088312C000831636088312C1008316B2
:100AEC0037088312C2000A128A153C210A128A1195
:100AFC0043088316AD00831242088316AC008312A0
:100B0C0041088316AB00831240088316AA002D08F7
:100B1C00FB002C08FA002B08F9002A08F8000A162A
:100B2C008A1139260A128A1178088312D30079089F
:100B3C00D4007A08D500831635088312D6008316A4
:100B4C0036088312D700831637088312D8000A168A
:100B5C008A1177250A128A1153088316B50083125D
:100B6C0054088316B600831255088316B700AF01DC
:100B7C00B001BA01BA0A0A303A0603190B2E3A0828
:100B8C008312DE0001300310DE0DFF3E031DC92D64
:100B9C0003105E0D4F3E84000A128A150A200A12B9
:100BAC008A11DF000A128A150A200A128A11E00043
:100BBC000A128A150A200A128A11E1000A128A15F1
:100BCC000A200A128A11E200620883162D02031D04
:100BDC00FF2D8312610883162C02031DFF2D831237
:100BEC00600883162B02031DFF2D83125F088316EA
:100BFC002A02031C0B2E01308312DE005E088316C2
:100C0C00BA070A303A06031DC52D28080339031903
:100C1C00152E2D300A128A1106200A128A11013063
:100C2C008316BA023A0A0319832E3A088312DE009D
:100C3C0001300310DE0DFF3E031D1F2E03105E0D51
:100C4C004F3E84000A128A150A200A128A11F000FB
:100C5C000A128A150A200A128A11F1000A128A1540
:100C6C000A200A128A11F2000A128A150A200A12A4
:100C7C008A11F30083162D08F7002C08F6002B08B8
:100C8C00F5002A08F4000A168A1136270A128A116E
:100C9C007308B4007208B3007108B2007008B10098
:100CAC000030F3000030F2000030F1000A30F000A8
:100CBC003408F7003308F6003208F5003108F40068
:100CCC000A128A15F0200A128A117308B4007208ED
:100CDC00B3007108B2007008B1003108303E102E1C
:100CEC0030300A128A1106200A128A11FF3083163C
:100CFC00AF070318B00AFF30B0073008803AFF0086
:100D0C0080307F02031D8C2E01302F020318762EAB
:100D1C00831603133908803AFF0080307F02031DCD
:100D2C00992E09303802031C9F2E083083120313AE
:100D3C00A32E8316031338088312DE005E08831675
:100D4C00BA003A088312DE00DF015E088316B8028F
:100D5C0083125F088316031CB903B9023A080319FE
:100D6C00BD2E2E300A128A1106200A128A11831601
:100D7C003A080A128A110F200A128A1137088316B0
:100D8C00A000831238088316A10083123908831639
:100D9C00A20020088312AA00831621088312AB003C
:100DAC00831622088312AC00831635088312A70021
:100DBC00831636088312A800831637088312A900FD
:100DCC000A128A15F8220A128A112708C00028086C
:100DDC00C1002908C2000A128A153C210A128A1184
:100DEC0043088316AD00831242088316AC008312AD
:100DFC0041088316AB00831240088316AA00013009
:100E0C00BA023A0A0319B22F3A088312DE000130F3
:100E1C000310DE0DFF3E031D0E2F03105E0D4F3E23
:100E2C0084000A128A150A200A128A11F0000A128A
:100E3C008A150A200A128A11F1000A128A150A2050
:100E4C000A128A11F2000A128A150A200A128A1151
:100E5C00F30083162D08F7002C08F6002B08F5007C
:100E6C002A08F4000A168A1136270A128A11730806
:100E7C00B4007208B3007108B2007008B100003001
:100E8C00F3000030F2000030F1000A30F0003408BA
:100E9C00F7003308F6003208F5003108F4000A12A6
:100EAC008A15F0200A128A117308B4007208B30074
:100EBC007108B2007008B1003108303E0A128A1174
:100ECC0006200A128A1183163A088312DE000130BA
:100EDC000310DE0DFF3E031D6E2F03105E0D4F3E03
:100EEC0084000A128A150A200A128A11F0000A12CA
:100EFC008A150A200A128A11F1000A128A150A2090
:100F0C000A128A11F2000A128A150A200A128A1190
:100F1C00F30083162D08F7002C08F6002B08F500BB
:100F2C002A08F4000A128A15F0200A128A11730892
:100F3C00AD007208AC007108AB007008042F3030A3
:100F4C000A128A1106200A128A11FF308316B8077A
:100F5C000318B90AFF30B907380839040319882A6D
:100F6C00A52F831638083904031DC82F2D082C040F
:100F7C002B042A04031DC82F0130B8070318B90A23
:100F8C000030B9073908803A803C031DCF2F380850
:100F9C003A02031CE02F831603133908803A83129C
:100FAC00DE0080305E02031DDE2F83163A08380205
:100FBC00031CE02F83160313280803390319882A0E
:100FCC002D300A128A1106200A128A11882A08006A
:100FDC0083120313E901EA01EB01EC01ED01831625
:100FEC00BB01BC01BD01BE01BF01C00183010A12DE
:100FFC008A15AC2BFF1B0A2883137F188317000854
:10100C00840A0319FF0A080008308A000408840ABD
:10101C0082070034003480343F34003420344134AF
:10102C000034C834423400347A34443440341C34F0
:10103C0046345034C33447342434743449349734EC
:10104C0018344B34BC34BE344C346B346E344E34A4
:10105C000334153450347934AD346034F3344934BA
:10106C007134003480343F34CD34CC343D34D734F7
:10107C0023343C34123483343A34B734D1343834D6
:10108C00C63427343734383486343534C034D63407
:10109C003334CC342B343234703489343034E73438
:1010AC00DB342E34E5343C341E344234A2340D345B
:1010BC0001340034003400340A3400340034003479
:1010CC006434003400340034E83403340034003425
:1010DC001034273400340034A03486340134003406
:1010EC00403442340F340034803496349834003415
:1010FC000034E134F53405340034CA349A343B34CA
:10110C004C3465346334743475347234653420343F
:10111C00743465346D3470346534723461347434C1
:10112C0075347234653420345434433437343734A2
:10113C0020346534743420344C344D3433343534E9
:10114C000D340A342034003449346C342034653482
:10115C007334743420343A34203425342E343134FE
:10116C00303473340D340034543420343D34203452
:10117C0025342E34323466342034253463344334ED
:10118C000D340A34003454343D3425342E34323486
:10119C0066340D340A34003428346E3475346C34AF
:1011AC006C342934003461347034723465347334E3
:1011BC000034613476347434003483128C1EE3288A
:1011CC001A080800720871047004031908008030B2
:1011DC00F2060800730872047104700403193329B1
:1011EC00F901F90AF31B08290130F8000310F00D7E
:1011FC00F10DF20DF30DF80BFC280130F800780816
:10120C00F907F82873087702031D1629720876026D
:10121C00031D162971087502031D16297008740226
:10122C00031C26297008F4027108031C710FF502C7
:10123C007208031C720FF6027308031C730FF7027B
:10124C0001300310F30CF20CF10CF00CFF3E031DFB
:10125C0027290130F902031D08297708F3007608C5
:10126C00F2007508F1007408F00008004008C40092
:10127C004108C5004208C6000310450D460DC700C5
:10128C004708CD004D08031D54290030C300003021
:10129C00C2000030C1000030C00008004008C4008B
:1012AC004108C5004208C60017300310C60CC50C17
:1012BC00C40CFF3E031D5B294408C7004708C80047
:1012CC00C117FF30C005FF30C1050030C205400812
:1012DC00C9004108CA004208CB00CC018E30CD02B7
:1012EC00CD1F8D294D08803A8F3E031C4B290130B0
:1012FC000310CC0CCB0CCA0CC90CFF3E031D7E2971
:10130C000130C4004408CD070319A0297D291830E9
:10131C004D0203184B294D080319A0290130C400B4
:10132C000310C90DCA0DCB0DCC0DC40B9629013081
:10133C00CD02912948080319AE29C909CA09CB095C
:10134C00CC09C90A0319CA0A0319CB0A0319CC0A16
:10135C004C08C3004B08C2004A08C1004908C00031
:10136C0008007B088312A0007C08A1007D08A20065
:10137C000310210D220DA3002308A8002808031D2B
:10138C00CE290030F8000030F9000030FA000800D7
:10139C007808A0007908A1007A08A2000310210D9A
:1013AC00220DA3002308A9002908031DE4290030FD
:1013BC00F8000030F9000030FA0008000030A500F9
:1013CC000030A6000030A70089302907A0002008B3
:1013DC00A8027D08A0002008A9007A08A000200817
:1013EC00A9068030A0002008A905FC17FF30FB05DA
:1013FC00FF30FC050030FD05F917FF30F805FF3014
:10140C00F9050030FA051830A0002008A4000130BE
:10141C000310A50DA60DA70DFF3E031D0E2A7A087D
:10142C007D02031D1F2A79087C02031D1F2A7808E0
:10143C007B02031C2C2A7808FB027908031C790F09
:10144C00FC027A08031C7A0AFD02251401300310F1
:10145C00FB0DFC0DFD0DFF3E031D2D2A0130A402DA
:10146C00031D0D2A2508F0002608F1002708F200BC
:10147C002808A0002008F3002908A1002108F40086
:10148C000A168A1194277008F8007108F90072087E
:10149C00FA0008007008F6007108F7007208F800EE
:1014AC000310770D780DF90079088312A500250833
:1014BC00031D692A0030F3000030F2000030F10007
:1014CC000030F00008007308F6007408F700750887
:1014DC00F8000310770D780DF9007908A4002408A2
:1014EC000319602AF117FF30F005FF30F1050030C9
:1014FC00F205F417FF30F305FF30F4050030F50565
:10150C000030A3000030A2000030A1000030A00089
:10151C007F30A50298302407F6007608A502183013
:10152C00F6007608A4000130F6000310A00DA10D02
:10153C00A20DA30DF60B9B2A75087202031DAC2A93
:10154C0074087102031DAC2A73087002031CB92ABB
:10155C007308F0027408031C740FF1027508031C65
:10156C00750AF202201401300310F00DF10DF20D8A
:10157C00FF3E031DBA2A0130A402031D992AA51FA0
:10158C00DC2A2508803A973E031C602A01300310A0
:10159C00A30CA20CA10CA00CFF3E031DCD2A013004
:1015AC00F6007608A5070319EF2ACC2A1830250275
:1015BC000318602A25080319EF2A0130F6000310DE
:1015CC00A00DA10DA20DA30DF60BE52A0130A5026D
:1015DC00E02A2308F3002208F2002108F100200879
:1015EC00F00008002708AD002808AE002908AF005D
:1015FC0003102E0D2F0DB0003008B1003108031D63
:10160C000E2B0030A7000030A8000030A900080005
:10161C002A08AD002B08AE002C08AF0003102E0DCD
:10162C002F0DB0003008B6003608031D242B0030F7
:10163C00A7000030A8000030A900080036087B3E47
:10164C00AD002D08B1072908AD002D08B6002C08F7
:10165C00AD002D08B6068030AD002D08B605A817D4
:10166C00AB17FF30AA05FF30AB050030AC050030DE
:10167C00B2000030B3000030B4000730AD002D08CC
:10168C00B500271C572B2A08B2072B080311031887
:10169C002B0A031DB3072C08031103182C0A031D76
:1016AC00B40701300310A90CA80CA70CFF3E031DB6
:1016BC00582B01300310AA0DAB0DAC0DFF3E031DD2
:1016CC00602B0130B502031D472B0930AD002D08EE
:1016DC00B500271C7F2B2A08B2072B08031103180F
:1016EC002B0A031DB3072C08031103182C0A031D26
:1016FC00B40701300310A90CA80CA70CFF3E031D66
:10170C00802B01300310B40CB30CB20CFF3E031D44
:10171C00882B0130B502031D6F2B3208F000330803
:10172C00F1003408F2003108AD002D08F300360842
:10173C00AE002E08F4000A168A1194277008831242
:10174C00A7007108A8007208A90008000A168A11DF
:10175C0025250A128A150A168A1109250A128A15D4
:10176C000A168A1101250A128A150D2C4D306B06AA
:10177C00031D272C01300A168A1194250A128A158A
:10178C007108F9007008F8000A168A1146250A1229
:10179C008A1578088316BB007908BC007A08BD004E
:1017AC00F230F8000230F9004030FA003B08FB0040
:1017BC003C08FC003D08FD000A128A15B7210A12EC
:1017CC008A1578088316BE007908BF007A08C00015
:1017DC003E088312D90083163F088312DA00831661
:1017EC0040088312DB00F830DC000030DD00AB3049
:1017FC000A128A117F220A128A158230831203136D
:10180C00E500DD30E400E40B092CE50B092C773006
:10181C000A128A117F220A128A150A128A15E320EB
:10182C000A128A15E4006408EC000A128A15E320F7
:10183C000A128A15E4006408EB004C306C0603199C
:10184C00BC2B54306C0603192F2C43306B06031D34
:10185C00782CD0300A128A117F220A128A15AA30EB
:10186C000A168A115A250A128A15CA300A128A11C6
:10187C007F220A128A1500308312A7008030A8003C
:10188C003D30A9006908E5006A08E400650DE50C27
:10189C00E40C650DE50CE40C650DE50CE40C64083A
:1018AC00F8006508F9000A168A11B3250A128A1580
:1018BC0078088312AA007908AB007A08AC000A12E7
:1018CC008A15F8220A128A152708E6002808E7006C
:1018DC002908E8006608D9006708DA006808DB0008
:1018EC00BA30FE2B71306C060319882C51306C0603
:1018FC000319882C71306B060319882C51306B0638
:10190C00031D0D2C0A128A1100284608CC0047082A
:10191C00CD004808CE0003104D0D4E0DCF004F08E2
:10192C00D2004908CC004A08CD004B08CE00031069
:10193C004D0D4E0DCF004F08D10052080319B22C9B
:10194C00510852020318B92C5108CC005208CC0291
:10195C0019304C02031CB92C4908C6004A08C700B0
:10196C004B08C8000800510803190800520851021E
:10197C000318C82C5208CC005108CC0219304C0268
:10198C00031808000630CC004C08D000C81BD01738
:10199C00CB1B5017C717FF30C605FF30C7050030EB
:1019AC00C805CA17FF30C905FF30CA050030CB0582
:1019BC00510852020318082D01300310C90DCA0D2D
:1019CC00CB0DFF3E031DE32C0130D1025108520612
:1019DC000319032D0130D002500807390319032DC8
:1019EC00E22C01300310C80CC70CC60CFF3E031DC3
:1019FC00F82C0130CC004C08D207520851060319C0
:101A0C00312DF72C520851020318312D01300310DF
:101A1C00C60DC70DC80DFF3E031D0D2D0130D202A2
:101A2C005108520603192D2D0130D00250080739E8
:101A3C0003192D2D0C2D01300310CB0CCA0CC90C25
:101A4C00FF3E031D222D0130CC004C08D10752085B
:101A5C005106031D212DD01F432DFF30C606FF302C
:101A6C00C706FF30C8060130C60700300318013026
:101A7C00C707003003180130C807501F552DFF3021
:101A8C00C906FF30CA06FF30CB060130C90700304B
:101A9C0003180130CA07003003180130CB07D001FE
:101AAC004608C907470803110318470A031DCA074C
:101ABC00480803110318480A031DCB07CB1F782DC8
:101ACC00FF30C906FF30CA06FF30CB060130C9070C
:101ADC00003003180130CA07003003180130CB075F
:101AEC00D001D00A4908F0004A08F1004B08F20076
:101AFC005208CC004C08F3005008CD004D08F400FF
:101B0C000A168A11942770088312C6007108C70040
:101B1C007208C8000800703084000008F600840ABF
:101B2C000008F700840A0008F800840A0008F9008D
:101B3C000310780D790DFA007A0883120313A500AF
:101B4C002508031DB22D0030F3000030F2000030E8
:101B5C00F1000030F0000800733084000008F6003B
:101B6C00840A0008F700840A0008F800840A0008B8
:101B7C00F9000310780D790DFA007A08A4002408F6
:101B8C000319A92D7030840000308004840A0030C1
:101B9C008004840A80308004840A00308004703011
:101BAC008400FF308005840AFF308005840AFF30F2
:101BBC008005840A00308005733084000030800476
:101BCC00840A00308004840A80308004840A003047
:101BDC00800473308400FF308005840AFF30800558
:101BEC00840AFF308005840A003080050030A30091
:101BFC000030A2000030A1000030A0007F30A50210
:101C0C00A0302407F6007608A5022030F6007608EE
:101C1C00A4000130F6000310A00DA10DA20DA30D20
:101C2C00F60B112E733084000008F600840A0008AD
:101C3C00F700840A0008F800840A0008F9007030E4
:101C4C0084000008FA00840A0008FB00840A0008DB
:101C5C00FC00840A0008FD0079087D02031D402E5B
:101C6C0078087C02031D402E77087B02031D402E52
:101C7C0076087A02031C652E733084000008F60087
:101C8C00840A0008F700840A0008F800840A000897
:101C9C00F9007030840076088002840A7708031CEF
:101CAC00770F8002840A7808031C780F8002840A5C
:101CBC007908031C790A80020330840220147030E6
:101CCC0084000310800D840A800D840A800D840A20
:101CDC00800D8403840384030130A402031D0F2EA2
:101CEC00A51F8D2E2508803A9F3E031CA92D01307F
:101CFC000310A30CA20CA10CA00CFF3E031D7E2E06
:101D0C000130F6007608A5070319A02E7D2E203091
:101D1C0025020318A92D25080319A02E0130F60061
:101D2C000310A00DA10DA20DA30DF60B962E0130E4
:101D3C00A502912E2308F3002208F2002108F100DD
:101D4C002008F00008008312C5006E304502031C09
:101D5C005F2F0330BA003A08A4000A30BB003B08DE
:101D6C00F7006430BC003C08F00045080A168A11E4
:101D7C0016260A128A150A168A11F5250A128A15D0
:101D8C000A168A1135250A128A15433E84000A1256
:101D9C008A150A200A128A15A7000A128A150A2027
:101DAC000A128A15A8000A128A150A200A128A1524
:101DBC00A9000330BD003D08A4006430BE003E08FD
:101DCC00F70045080A168A11F5250A128A150A1613
:101DDC008A1135250A128A155E3E84000A128A156C
:101DEC000A200A128A15AA000A128A150A200A1257
:101DFC008A15AB000A128A150A200A128A15AC0041
:101E0C000A128A15F8220A128A152708C200280815
:101E1C00C3002908C4000330BA003A08A4000A30F1
:101E2C00BB003B08F00045080A168A1116260A1258
:101E3C008A150A168A1135250A128A15283E84003D
:101E4C000A128A150A200A128A15A7000A128A1584
:101E5C000A200A128A15A8000A128A150A200A12E8
:101E6C008A15A9004208AA004308AB004408AC003C
:101E7C000A128A15F8220A128A152708BF002808A8
:101E8C00C0002908C1000030A7000030A8003F3076
:101E9C00A9003F08AA004008AB004108AC000A1298
:101EAC008A15F8222708B7002808B8002908B900B5
:101EBC0008000B304502031CD22F0330BA003A083D
:101ECC00A4000A30BB003B08F00045080A168A1132
:101EDC0016260A128A150A168A1135250A128A152F
:101EEC00283E84000A128A150A200A128A15A700B5
:101EFC000A128A150A200A128A15A8000A128A15D3
:101F0C000A200A128A15A9000330BC003C08A40060
:101F1C000A30BD003D08F70045080A168A11F52560
:101F2C000A128A150A168A1135250A128A15433E99
:101F3C0084000A128A150A200A128A15AA000A12AB
:101F4C008A150A200A128A15AB000A128A150A2071
:101F5C000A128A15AC000A128A15F8220A128A157E
:101F6C002708C2002808C3002908C4000030A700B5
:101F7C000030A8003F30A9004208AA004308AB007B
:101F8C004408AC000A128A15F8222708B700280862
:101F9C00B8002908B90008000030A7000030A800DC
:101FAC003F30A9000330BA003A08A40045080A16CD
:101FBC008A1135250A128A15283E84000A128A15C0
:101FCC000A200A128A15AA000A128A150A200A1275
:101FDC008A15AB000A128A150A200A128A15AC005F
:101FEC000A128A15F8222708B7002808B800290811
:041FFC00B900080020
:102A0200C0309F00803083169F0083121F1408007D
:102A12001930990024309800803083129800831670
:102A2200981618158312981718160800F100F0016D
:102A32003A3071020318232D30307102031C232D0A
:102A4200F001F00A700C08008316880105140317C0
:102A5200081403130713031788018901031387114D
:102A62000712071408100800A600A501261C3D2D18
:102A72002408FC007C08A5070310A40D0310A60C73
:102A82002608031D372D250808007808F00079086C
:102A9200F100F2018E30FB007B08F300F4010A160C
:102AA2008A1194277008F8007108F9007208FA0078
:102AB2000800F100831207102130F000F00B5F2DA7
:102AC20071088312031393008C1D652D8C1113085A
:102AD200F0007008E900710893008C1D6E2D8C11B6
:102AE2001308F0007008EA0007140800550854049F
:102AF200530403197E2D8030D5065608C6005708A8
:102B0200C7005808C8005308C9005408CA0055082D
:102B1200CB000A128A158B244608D3004708D4003A
:102B22004808D5000800F4000F30F2007208F405DE
:102B3200C330F20072089F057408F20001300310DE
:102B4200F20DFF3E031DA02D0310720DF30073085A
:102B52009F049F149F18AB2D1E08F10083161E08B8
:102B6200F0000800FD01F91FBD2DF809F909F80A66
:102B72000319F90AFD01FD0A7808F0007908F1004D
:102B8200F2018E30FB007B08F3007D08FC007C081C
:102B9200F4000A168A1194277008F8007108F900E7
:102BA2007208FA000800F401F501701CDE2D7208AB
:102BB200F4070318F50A7308F50701300310F20D44
:102BC200F30DFF3E031DDF2D01300310F10CF00C5D
:102BD200FF3E031DE62D70087104031DD62D7508F6
:102BE200F1007408F0000800F900FB0177080319EE
:102BF200142EFA01FA0AF71B052E0310F70D013005
:102C0200F8007808FA07FC2D0310FB0D770879020B
:102C1200031C0F2E7708F9027B140310F70C013006
:102C2200FA02031D052E7B080800F4000830F100AB
:102C32007108F500F6017408F10007300310F10C79
:102C4200FF3E031D1F2E7608F20072077104F30087
:102C52007308F6000310F40D70087602031C332E7D
:102C62007008F6020130F502031D1C2E76080800DA
:102C72008E30FC007C08FD00FF307B0503194F2ECF
:102C820001300310FB0CFA0CF90CF80CFF3E031D8B
:102C9200422E0130FC007C08FD073D2E7808F00032
:102CA2007908F1007A08F2007D08FC007C08F30044
:102CB200F4010A168A1194277008F8007108F900C5
:102CC2007208FA000800F21F732E7008003CF00030
:102CD2007108031C710F003CF1007208031C720F93
:102CE200803CF200F51F822E7308003CF30074084A
:102CF200031C740F003CF4007508031C750F803C24
:102D0200F5008030F2068030F50675087202031D68
:102D1200080074087102031D08007308700208009D
:102D2200F601F31F9B2EF209F309F20A0319F30AC3
:102D3200F601F60AF11FA22EF009F109F00A0319B1
:102D4200F10A700871040319CF2EF501F50AF11B7F
:102D5200B62E01300310F00DF10DFF3E031DAB2E18
:102D62000130F4007408F507A82E71087302031DE0
:102D7200BC2E70087202031CC42E7008F202710885
:102D8200031CF303F30201300310F10CF00CFF3EBD
:102D9200031DC52E0130F502031DB62E7608031958
:102DA200D72EF209F309F20A0319F30A7308F100A4
:102DB2007208F00008008312A101F81FE72EF7093C
:102DC200F809F70A0319F80AA101A10AFA1FF22E5B
:102DD200F909FA09F90A0319FA0A0130FB007B081A
:102DE200A106A201A301770878040319292FA001E3
:102DF200A00AF81B082F01300310F70DF80DFF3E53
:102E0200031DFD2E0130FB007B08A007FA2E0130C6
:102E12000310A20DA30DFF3E031D092F78087A02AD
:102E2200031D152F77087902031C1E2F7708F9025C
:102E32007808031CFA03FA02221401300310F80C7A
:102E4200F70CFF3E031D1F2F0130A002031D082FA8
:102E520021080319312FA209A309A20A0319A30AFF
:102E62002308F8002208F70008000030FC000030B8
:102E7200FB000030FA000030F9007308720471049C
:102E8200700403198B2FFD01FD0AF31B562F01302D
:102E9200F8000310F00DF10DF20DF30DF80B4A2FAF
:102EA2000130F8007808FD07462F0130F8000310C2
:102EB200F90DFA0DFB0DFC0DF80B582F7308770274
:102EC200031D6D2F72087602031D6D2F71087502A6
:102ED200031D6D2F70087402031C7E2F7008F4020C
:102EE2007108031C710FF5027208031C720FF602BF
:102EF2007308031C730FF702791401300310F30CEB
:102F0200F20CF10CF00CFF3E031D7F2F0130FD028D
:102F1200031D562F7C08F3007B08F2007A08F100AB
:102F22007908F0000800730803199C2F72087104D5
:102F32007004031DAF2F0030F0000030F1000030AC
:102F4200F20008000130F5007508F30701300310A4
:102F5200F20CF10CF00CFF3E031DA82FFE3072059F
:102F62000319CA2FA32F0130F5007508F3070130AA
:102F7200F007003003180130F10700300318013068
:102F8200F20701300310F20CF10CF00CFF3E031DAE
:102F9200C32FFF3072050319DD2FB42F02307302E5
:102FA200031CDF2F0130F30201300310F00DF10D8D
:102FB200F20DFF3E031DD62FF11FCF2F7318E72FFF
:102FC200FF30F0057F30F105FF30F2050310F30CFE
:102FD2007308F500F601F70110300310F50DF60D38
:102FE200F70DFF3E031DEE2F7508F0047608F1047D
:0E2FF2007708F204740803190800F2170800AB
:04400E00E2EFFFFFDF
:00000001FF
