:100000000A128A11EE2F00308A000408840A82073F
:100010000034013400340A34003464340034E834E9
:100020000334103427344C346534633474347534F9
:10003000723465342034743465346D34703465340E
:100040007234613474347534723465342034443419
:10005000533431343634323431340D340A340034CC
:0A006000253464340D340A340034F2
:100982001434003483161419C32C111F0800C62C0A
:1009920028309400183083169300941708001830FA
:1009A2009900A43098009830831298000800F00053
:1009B2008316981CD92C7008831299000800F10044
:1009C200831611141118E32C7108831293000A1272
:1009D2008A11C3240A128A117008831293000A1220
:1009E2008A11C3240A128A111115111D0800F62C4E
:1009F200F200831611141118FC2C72088312930052
:100A02000A128A11C3240A128A11700883129300EF
:100A12000A128A11C3240A128A11710883129300DE
:100A22000A128A11C3240A128A111115111D080013
:100A3200172DF2008316111411181D2D720883123E
:100A420093000A128A11C3240A128A1170088312AF
:100A520093000A128A11C3240A128A11710883129E
:100A620093000A128A11C3240A128A111115111D48
:100A72000800382D780879040319682DFD01FD0A54
:100A8200F91B4F2D01300310F80DF90DFF3E031D28
:100A9200442D0130FC007C08FD07412D79087B02C2
:100AA200031D552D78087A02031C5D2D7808FA0281
:100AB2007908031CFB03FB0201300310F90CF80C4C
:100AC200FF3E031D5E2D0130FD02031D4F2D7B08ED
:100AD200F9007A08F8000800F300831611141118BF
:100AE200702D7308831293000A128A11C3240A120A
:100AF2008A117008831293000A128A11C3240A12FF
:100B02008A1111151119832D11141118862D7308CC
:100B1200013E831293000A128A11C3240A128A1117
:100B220091159119922D83121308F1007108F200A8
:100B32000A128A11C3240A128A11111511199F2D42
:100B420072080800F501F601700871040319DA2D24
:100B5200F701F70AF11BB92D01300310F00DF10D69
:100B6200FF3E031DAE2D0130F4007408F707AB2DD4
:100B720001300310F50DF60DFF3E031DBA2D71086D
:100B82007302031DC62D70087202031CCF2D70085C
:100B9200F2027108031CF303F3027514013003100F
:100BA200F10CF00CFF3E031DD02D0130F702031DA6
:100BB200B92D7608F1007508F0000800F601F31F60
:100BC200E92DF209F309F20A0319F30AF601F60A0A
:100BD200F11FF02DF009F109F00A0319F10A70086A
:100BE200710403191D2EF501F50AF11B042E0130C3
:100BF2000310F00DF10DFF3E031DF92D0130F4003D
:100C02007408F507F62D71087302031D0A2E700889
:100C12007202031C122E7008F2027108031CF30305
:100C2200F30201300310F10CF00CFF3E031D132EF2
:100C32000130F502031D042E76080319252EF20950
:100C4200F309F20A0319F30A7308F1007208F000BB
:100C52000800F601F11F342EF009F109F00A031918
:100C6200F10AF601F60AF31F3F2EF209F309F20A1E
:100C72000319F30A0130F4007408F606F701F801CB
:100C8200700871040319762EF501F50AF11B552E31
:100C920001300310F00DF10DFF3E031D4A2E01300D
:100CA200F4007408F507472E01300310F70DF80D14
:100CB200FF3E031D562E71087302031D622E70083B
:100CC2007202031C6B2E7008F2027108031CF303FC
:100CD200F302771401300310F10CF00CFF3E031DF8
:100CE2006C2E0130F502031D552E760803197E2E57
:100CF200F709F809F70A0319F80A7808F1007708E2
:100D0200F00008000A128A11C9240A128A110A1272
:100D12008A11D0240A128A110B300A128A1135273D
:100D22000A128A11EE3083120313AC002C08F00071
:100D320092300A128A11E0240A128A11AA3083120E
:100D4200AC002C08F00092300A128A116D250A12AA
:100D52008A118312AD00AE012D08B3002E08B40033
:100D62003408A1003308A00028300A128A1135275E
:100D72000A128A11F0010C30AC002C08F100C630C6
:100D82000A128A111A250A128A110A30F00000305A
:100D9200F10083123408F3003308F2000A128A11B8
:100DA2002A260A128A117108B2007008B1000A30AC
:100DB200F0000030F1003408F3003308F2000A12A8
:100DC2008A11DF250A128A117108B0007008AF007B
:100DD200F0015430AC002C08F100C6300A128A111E
:100DE200F9240A128A11F0013D308312AC002C085A
:100DF200F100C6300A128A11F9240A128A11F0018E
:100E020083123108303EAC002C08F100C6300A12C1
:100E12008A11F9240A128A11F00183122F08303E36
:100E2200AC002C08F100C6300A128A11F9240A1209
:100E32008A11F00143308312AC002C08F100C63055
:100E42000A128A11F9240A128A1106308312031334
:100E5200AE001330AD00AD30AC00AC0B2E2FAD0B9D
:100E62002E2FAE0B2E2F932EA8002030A200220888
:100E7200A5000130A807FF30280784000A128A1152
:100E820003200A128A11A2002208AB002B080319C0
:100E9200080025302B060319552F2B080A128A1138
:100EA200D8240A128A113A2FA6010130A807FF306E
:100EB200280784000A128A1103200A128A11AB0041
:100EC200003A0319ED2F643A03196B2F0D3A0319F7
:100ED2006B2F3A2F2508840083130008A900840A87
:100EE2000008AA000230A2002208A507AA1F822F2A
:100EF2000330A2002208A604A909AA09A90A031913
:100F0200AA0AAB01AB0A2B08A2002207013E840009
:100F12000A128A1103200A128A11A3000A128A11E4
:100F220003200A128A11A40024082A02031D9B2FFF
:100F320023082902031CA52F0130A2002208AB07B7
:100F420005302B06031D842F260803390319AF2F02
:100F52002D300A128A11D8240A128A112B08A200F3
:100F62002208A700FF30A2002208A707270A0319B8
:100F72003A2F0A30F8000030F9002708A2002207B1
:100F8200013E84000A128A1103200A128A11F0001B
:100F92000A128A1103200A128A11F1002A08F300A8
:100FA2002908F2000A128A11A3250A128A1171086D
:100FB200FB007008FA000A128A113B250A128A11F4
:100FC2007808303EA3002308AB002B080A128A11CE
:100FD200D8240A128A11B32F08000A128A11C124D6
:100FE2000A128A11B3000A128A11C224B400AF0194
:0E0FF200B001B101B20183010A128A11832EEF
:04400E00E2EFFFFFDF
:00000001FF
