:100000000A128A11F22F00308A000408840A82073B
:100010000034013400340A34003464340034E834E9
:100020000334103427344C346534633474347534F9
:10003000723465342034743465346D34703465340E
:100040007234613474347534723465342034443419
:10005000533431343634323431340D340A340034CC
:0A006000253464340D340A340034F2
:100C560014340034831614192D2E111F0800302E5B
:100C66002830940018308316930094170800183023
:100C76009900A43098009830831298000800F0007C
:100C86008316981C432E7008831299000800F10001
:100C96008316111411184D2E7108831293000A122F
:100CA6008A112D260A128A117008831293000A12DD
:100CB6008A112D260A128A111115111D0800602E9F
:100CC600780879040319902EFD01FD0AF91B772E89
:100CD60001300310F80DF90DFF3E031D6C2E013097
:100CE600FC007C08FD07692E79087B02031D7D2E1A
:100CF60078087A02031C852E7808FA027908031C04
:100D0600FB03FB0201300310F90CF80CFF3E031D38
:100D1600862E0130FD02031D772E7B08F9007A0826
:100D2600F80008000A128A1133260A128A110A12DA
:100D36008A113A260A128A110B300A128A113927A9
:100D46000A128A11EE30AC002C08F00090300A121C
:100D56008A114A260A128A11AA308312AC002C087C
:100D6600F00090300A128A11C7260A128A118312DD
:100D7600AD00AE012D08AF002E08B0003008A1006E
:100D86002F08A0002830A02EF30083161114111886
:100D9600CA2E7308831293000A128A112D260A128C
:100DA6008A117008831293000A128A112D260A12DC
:100DB6008A1111151119DD2E11141118E02E730860
:100DC600013E831293000A128A112D260A128A11F5
:100DD60091159119EC2E83121308F1007108F20097
:100DE6000A128A112D260A128A1111151119F92EC5
:100DF60072080800F501F601700871040319342F12
:100E0600F701F70AF11B132F01300310F00DF10D56
:100E1600FF3E031D082F0130F4007408F707052F65
:100E260001300310F50DF60DFF3E031D142F71085A
:100E36007302031D202F70087202031C292F7008ED
:100E4600F2027108031CF303F30275140130031058
:100E5600F10CF00CFF3E031D2A2F0130F702031D93
:100E6600132F7608F1007508F0000800A80020305E
:100E7600A2002208A5000130A807FF302807840039
:100E86000A128A1103200A128A11A2002208AB0054
:100E96002B080319080025302B060319592F2B0898
:100EA6000A128A1142260A128A113E2FA601013021
:100EB600A807FF30280784000A128A1103200A12A5
:100EC6008A11AB00003A0319F12F643A03196F2F08
:100ED6000D3A03196F2F3E2F25088400831300084F
:100EE600A900840A0008AA000230A2002208A50769
:100EF600AA1F862F0330A2002208A604A909AA0960
:100F0600A90A0319AA0AAB01AB0A2B08A2002207F9
:100F1600013E84000A128A1103200A128A11A300D4
:100F26000A128A1103200A128A11A40024082A022E
:100F3600031D9F2F23082902031CA92F0130A2009D
:100F46002208AB0705302B06031D882F2608033918
:100F56000319B32F2D300A128A1142260A128A115A
:100F66002B08A2002208A700FF30A2002208A7072C
:100F7600270A03193E2F0A30F8000030F900270827
:100F8600A2002207013E84000A128A1103200A12D7
:100F96008A11F0000A128A1103200A128A11F1003E
:100FA6002A08F3002908F2000A128A11FD260A12FD
:100FB6008A117108FB007008FA000A128A1163266A
:100FC6000A128A117808303EA3002308AB002B08CA
:100FD6000A128A1142260A128A11B72F08000A122B
:100FE6008A112B260A128A11AF000A128A112C26A0
:0A0FF600B00083010A128A11952E43
:04400E00E2EFFFFFDF
:00000001FF
