:100000000A128A11F22F00308A000408840A82073B
:100010000034013400340A34003464340034E834E9
:100020000334103427344C346534633474347534F9
:10003000723465342034743465346D34703465340E
:100040007234613474347534723465342034443419
:10005000533431343634323431340D340A340034CC
:0E00600054343D34253464340D340A340034F5
:100C2C001434003483161419182E111F08001B2EAF
:100C3C00283094001830831693009417080018304D
:100C4C009900A43098009830831298000800F000A6
:100C5C008316981C2E2E7008831299000800F10040
:100C6C00831611141118382E7108831293000A126E
:100C7C008A1118260A128A117008831293000A121C
:100C8C008A1118260A128A111115111D08004B2EF3
:100C9C007808790403197B2EFD01FD0AF91B622EDD
:100CAC0001300310F80DF90DFF3E031D572E0130D6
:100CBC00FC007C08FD07542E79087B02031D682E6E
:100CCC0078087A02031C702E7808FA027908031C43
:100CDC00FB03FB0201300310F90CF80CFF3E031D63
:100CEC00712E0130FD02031D622E7B08F9007A087B
:100CFC00F8000800F300831611141118832E7308E2
:100D0C00831293000A128A1118260A128A1170088B
:100D1C00831293000A128A1118260A128A111115CD
:100D2C001119962E11141118992E7308013E831265
:100D3C0093000A128A1118260A128A119115911918
:100D4C00A52E83121308F1007108F2000A128A1101
:100D5C0018260A128A1111151119B22E72080800E0
:100D6C00F501F601700871040319ED2EF701F70A6D
:100D7C00F11BCC2E01300310F00DF10DFF3E031DC5
:100D8C00C12E0130F4007408F707BE2E0130031099
:100D9C00F50DF60DFF3E031DCD2E71087302031DDC
:100DAC00D92E70087202031CE22E7008F202710830
:100DBC00031CF303F302751401300310F10CF00C57
:100DCC00FF3E031DE32E0130F702031DCC2E7608E7
:100DDC00F1007508F00008000A128A111E260A128A
:100DEC008A110A128A1125260A128A110B300A124C
:100DFC008A1139270A128A11EE3083120313AC00C0
:100E0C002C08F00090300A128A1135260A128A1129
:100E1C00AA308312AC002C08F00090300A128A1110
:100E2C0080260A128A118312AD00AE012D08AF0084
:100E3C002E08B0003008A1002F08A00028300A129C
:100E4C008A1139270A128A11063083120313AE0055
:100E5C001330AD00AD30AC00AC0B322FAD0B322FDC
:100E6C00AE0B322F022FA8002030A2002208A500C2
:100E7C000130A807FF30280784000A128A110320CA
:100E8C000A128A11A2002208AB002B0803190800D1
:100E9C0025302B060319592F2B080A128A112D26DF
:100EAC000A128A113E2FA6010130A807FF3028072D
:100EBC0084000A128A1103200A128A11AB00003A2C
:100ECC000319F12F643A03196F2F0D3A03196F2F81
:100EDC003E2F2508840083130008A900840A00080B
:100EEC00AA000230A2002208A507AA1F862F0330F1
:100EFC00A2002208A604A909AA09A90A0319AA0A88
:100F0C00AB01AB0A2B08A2002207013E84000A1297
:100F1C008A1103200A128A11A3000A128A110320D3
:100F2C000A128A11A40024082A02031D9F2F2308E9
:100F3C002902031CA92F0130A2002208AB0705309F
:100F4C002B06031D882F260803390319B32F2D30C8
:100F5C000A128A112D260A128A112B08A2002208C5
:100F6C00A700FF30A2002208A707270A03193E2F6B
:100F7C000A30F8000030F9002708A2002207013ED1
:100F8C0084000A128A1103200A128A11F0000A1234
:100F9C008A1103200A128A11F1002A08F300290889
:100FAC00F2000A128A11B6260A128A117108FB0085
:100FBC007008FA000A128A114E260A128A11780851
:100FCC00303EA3002308AB002B080A128A112D26F1
:100FDC000A128A11B72F08000A128A1116260A1251
:100FEC008A11AF000A128A111726B00083010A1267
:040FFC008A11F22E36
:04400E00E2EFFFFFDF
:00000001FF
